{
  "contracts/SixElements.sol": {
    "SixElements": {
      "abi": [
        {
          "inputs": [
            {
              "internalType": "address",
              "name": "_devSupporter",
              "type": "address"
            }
          ],
          "stateMutability": "nonpayable",
          "type": "constructor"
        },
        {
          "anonymous": false,
          "inputs": [
            {
              "indexed": false,
              "internalType": "address",
              "name": "player",
              "type": "address"
            },
            {
              "indexed": false,
              "internalType": "uint8",
              "name": "x",
              "type": "uint8"
            },
            {
              "indexed": false,
              "internalType": "uint8",
              "name": "y",
              "type": "uint8"
            },
            {
              "indexed": false,
              "internalType": "uint8",
              "name": "unitCount",
              "type": "uint8"
            }
          ],
          "name": "AppendUnits",
          "type": "event"
        },
        {
          "anonymous": false,
          "inputs": [
            {
              "indexed": false,
              "internalType": "address",
              "name": "player",
              "type": "address"
            },
            {
              "indexed": false,
              "internalType": "uint8",
              "name": "fromX",
              "type": "uint8"
            },
            {
              "indexed": false,
              "internalType": "uint8",
              "name": "fromY",
              "type": "uint8"
            },
            {
              "indexed": false,
              "internalType": "uint8",
              "name": "toX",
              "type": "uint8"
            },
            {
              "indexed": false,
              "internalType": "uint8",
              "name": "toY",
              "type": "uint8"
            }
          ],
          "name": "Attack",
          "type": "event"
        },
        {
          "anonymous": false,
          "inputs": [
            {
              "indexed": false,
              "internalType": "address",
              "name": "player",
              "type": "address"
            },
            {
              "indexed": false,
              "internalType": "uint256",
              "name": "quantity",
              "type": "uint256"
            }
          ],
          "name": "BuyEnergy",
          "type": "event"
        },
        {
          "anonymous": false,
          "inputs": [
            {
              "indexed": false,
              "internalType": "address",
              "name": "player",
              "type": "address"
            },
            {
              "indexed": false,
              "internalType": "uint8",
              "name": "x",
              "type": "uint8"
            },
            {
              "indexed": false,
              "internalType": "uint8",
              "name": "y",
              "type": "uint8"
            },
            {
              "indexed": false,
              "internalType": "enum SixElements.ArmyKind",
              "name": "kind",
              "type": "uint8"
            },
            {
              "indexed": false,
              "internalType": "uint8",
              "name": "unitCount",
              "type": "uint8"
            }
          ],
          "name": "CreateArmy",
          "type": "event"
        },
        {
          "anonymous": false,
          "inputs": [
            {
              "indexed": false,
              "internalType": "uint256",
              "name": "season",
              "type": "uint256"
            },
            {
              "indexed": false,
              "internalType": "address",
              "name": "winner",
              "type": "address"
            }
          ],
          "name": "EndSeason",
          "type": "event"
        },
        {
          "anonymous": false,
          "inputs": [
            {
              "indexed": false,
              "internalType": "address",
              "name": "player",
              "type": "address"
            },
            {
              "indexed": false,
              "internalType": "uint8",
              "name": "x",
              "type": "uint8"
            },
            {
              "indexed": false,
              "internalType": "uint8",
              "name": "y",
              "type": "uint8"
            },
            {
              "indexed": false,
              "internalType": "enum SixElements.ArmyKind",
              "name": "kind",
              "type": "uint8"
            },
            {
              "indexed": false,
              "internalType": "uint8",
              "name": "unitCount",
              "type": "uint8"
            }
          ],
          "name": "JoinGame",
          "type": "event"
        },
        {
          "anonymous": false,
          "inputs": [
            {
              "indexed": false,
              "internalType": "address",
              "name": "supporter",
              "type": "address"
            },
            {
              "indexed": false,
              "internalType": "address",
              "name": "to",
              "type": "address"
            },
            {
              "indexed": false,
              "internalType": "uint256",
              "name": "quantity",
              "type": "uint256"
            }
          ],
          "name": "Support",
          "type": "event"
        },
        {
          "anonymous": false,
          "inputs": [
            {
              "indexed": false,
              "internalType": "address",
              "name": "player",
              "type": "address"
            },
            {
              "indexed": false,
              "internalType": "uint256",
              "name": "quantity",
              "type": "uint256"
            }
          ],
          "name": "UseEnergy",
          "type": "event"
        },
        {
          "inputs": [],
          "name": "BASE_MAP_H",
          "outputs": [
            {
              "internalType": "uint8",
              "name": "",
              "type": "uint8"
            }
          ],
          "stateMutability": "view",
          "type": "function"
        },
        {
          "inputs": [],
          "name": "BASE_MAP_W",
          "outputs": [
            {
              "internalType": "uint8",
              "name": "",
              "type": "uint8"
            }
          ],
          "stateMutability": "view",
          "type": "function"
        },
        {
          "inputs": [],
          "name": "BASE_SUMMON_ENERGY",
          "outputs": [
            {
              "internalType": "uint8",
              "name": "",
              "type": "uint8"
            }
          ],
          "stateMutability": "view",
          "type": "function"
        },
        {
          "inputs": [],
          "name": "ENERGY_PRICE",
          "outputs": [
            {
              "internalType": "uint256",
              "name": "",
              "type": "uint256"
            }
          ],
          "stateMutability": "view",
          "type": "function"
        },
        {
          "inputs": [],
          "name": "MAX_ENTER_COUNT_PER_BLOCK",
          "outputs": [
            {
              "internalType": "uint8",
              "name": "",
              "type": "uint8"
            }
          ],
          "stateMutability": "view",
          "type": "function"
        },
        {
          "inputs": [],
          "name": "MAX_MAP_H",
          "outputs": [
            {
              "internalType": "uint8",
              "name": "",
              "type": "uint8"
            }
          ],
          "stateMutability": "view",
          "type": "function"
        },
        {
          "inputs": [],
          "name": "MAX_MAP_W",
          "outputs": [
            {
              "internalType": "uint8",
              "name": "",
              "type": "uint8"
            }
          ],
          "stateMutability": "view",
          "type": "function"
        },
        {
          "inputs": [],
          "name": "MAX_UNIT_COUNT",
          "outputs": [
            {
              "internalType": "uint8",
              "name": "",
              "type": "uint8"
            }
          ],
          "stateMutability": "view",
          "type": "function"
        },
        {
          "inputs": [
            {
              "internalType": "uint8",
              "name": "x",
              "type": "uint8"
            },
            {
              "internalType": "uint8",
              "name": "y",
              "type": "uint8"
            },
            {
              "internalType": "uint8",
              "name": "unitCount",
              "type": "uint8"
            }
          ],
          "name": "appendUnits",
          "outputs": [],
          "stateMutability": "payable",
          "type": "function"
        },
        {
          "inputs": [
            {
              "internalType": "uint8",
              "name": "fromX",
              "type": "uint8"
            },
            {
              "internalType": "uint8",
              "name": "fromY",
              "type": "uint8"
            },
            {
              "internalType": "uint8",
              "name": "toX",
              "type": "uint8"
            },
            {
              "internalType": "uint8",
              "name": "toY",
              "type": "uint8"
            }
          ],
          "name": "attack",
          "outputs": [],
          "stateMutability": "nonpayable",
          "type": "function"
        },
        {
          "inputs": [],
          "name": "buyEnergy",
          "outputs": [],
          "stateMutability": "payable",
          "type": "function"
        },
        {
          "inputs": [
            {
              "internalType": "address",
              "name": "newDevSupporter",
              "type": "address"
            }
          ],
          "name": "changeDevSupporter",
          "outputs": [],
          "stateMutability": "nonpayable",
          "type": "function"
        },
        {
          "inputs": [
            {
              "internalType": "address",
              "name": "newDeveloper",
              "type": "address"
            }
          ],
          "name": "changeDeveloper",
          "outputs": [],
          "stateMutability": "nonpayable",
          "type": "function"
        },
        {
          "inputs": [
            {
              "internalType": "uint8",
              "name": "x",
              "type": "uint8"
            },
            {
              "internalType": "uint8",
              "name": "y",
              "type": "uint8"
            },
            {
              "internalType": "enum SixElements.ArmyKind",
              "name": "kind",
              "type": "uint8"
            },
            {
              "internalType": "uint8",
              "name": "unitCount",
              "type": "uint8"
            }
          ],
          "name": "createArmy",
          "outputs": [],
          "stateMutability": "payable",
          "type": "function"
        },
        {
          "inputs": [],
          "name": "devSupporter",
          "outputs": [
            {
              "internalType": "address",
              "name": "",
              "type": "address"
            }
          ],
          "stateMutability": "view",
          "type": "function"
        },
        {
          "inputs": [],
          "name": "developer",
          "outputs": [
            {
              "internalType": "address",
              "name": "",
              "type": "address"
            }
          ],
          "stateMutability": "view",
          "type": "function"
        },
        {
          "inputs": [
            {
              "internalType": "address",
              "name": "",
              "type": "address"
            }
          ],
          "name": "energies",
          "outputs": [
            {
              "internalType": "uint256",
              "name": "",
              "type": "uint256"
            }
          ],
          "stateMutability": "view",
          "type": "function"
        },
        {
          "inputs": [
            {
              "internalType": "uint256",
              "name": "",
              "type": "uint256"
            },
            {
              "internalType": "address",
              "name": "",
              "type": "address"
            },
            {
              "internalType": "address",
              "name": "",
              "type": "address"
            }
          ],
          "name": "energySupported",
          "outputs": [
            {
              "internalType": "uint256",
              "name": "",
              "type": "uint256"
            }
          ],
          "stateMutability": "view",
          "type": "function"
        },
        {
          "inputs": [
            {
              "internalType": "uint256",
              "name": "",
              "type": "uint256"
            },
            {
              "internalType": "address",
              "name": "",
              "type": "address"
            }
          ],
          "name": "energyTaken",
          "outputs": [
            {
              "internalType": "uint256",
              "name": "",
              "type": "uint256"
            }
          ],
          "stateMutability": "view",
          "type": "function"
        },
        {
          "inputs": [
            {
              "internalType": "uint256",
              "name": "",
              "type": "uint256"
            },
            {
              "internalType": "address",
              "name": "",
              "type": "address"
            }
          ],
          "name": "energyUsed",
          "outputs": [
            {
              "internalType": "uint256",
              "name": "",
              "type": "uint256"
            }
          ],
          "stateMutability": "view",
          "type": "function"
        },
        {
          "inputs": [
            {
              "internalType": "uint256",
              "name": "",
              "type": "uint256"
            }
          ],
          "name": "enterCountsPerBlock",
          "outputs": [
            {
              "internalType": "uint8",
              "name": "",
              "type": "uint8"
            }
          ],
          "stateMutability": "view",
          "type": "function"
        },
        {
          "inputs": [
            {
              "internalType": "uint256",
              "name": "",
              "type": "uint256"
            },
            {
              "internalType": "uint256",
              "name": "",
              "type": "uint256"
            }
          ],
          "name": "map",
          "outputs": [
            {
              "internalType": "enum SixElements.ArmyKind",
              "name": "kind",
              "type": "uint8"
            },
            {
              "internalType": "uint8",
              "name": "unitCount",
              "type": "uint8"
            },
            {
              "internalType": "address",
              "name": "owner",
              "type": "address"
            },
            {
              "internalType": "uint256",
              "name": "blockNumber",
              "type": "uint256"
            }
          ],
          "stateMutability": "view",
          "type": "function"
        },
        {
          "inputs": [],
          "name": "mapHeight",
          "outputs": [
            {
              "internalType": "uint8",
              "name": "",
              "type": "uint8"
            }
          ],
          "stateMutability": "view",
          "type": "function"
        },
        {
          "inputs": [],
          "name": "mapWidth",
          "outputs": [
            {
              "internalType": "uint8",
              "name": "",
              "type": "uint8"
            }
          ],
          "stateMutability": "view",
          "type": "function"
        },
        {
          "inputs": [
            {
              "internalType": "uint256",
              "name": "",
              "type": "uint256"
            },
            {
              "internalType": "address",
              "name": "",
              "type": "address"
            }
          ],
          "name": "occupyCounts",
          "outputs": [
            {
              "internalType": "uint8",
              "name": "",
              "type": "uint8"
            }
          ],
          "stateMutability": "view",
          "type": "function"
        },
        {
          "inputs": [
            {
              "internalType": "uint256",
              "name": "",
              "type": "uint256"
            }
          ],
          "name": "rewards",
          "outputs": [
            {
              "internalType": "uint256",
              "name": "",
              "type": "uint256"
            }
          ],
          "stateMutability": "view",
          "type": "function"
        },
        {
          "inputs": [],
          "name": "season",
          "outputs": [
            {
              "internalType": "uint256",
              "name": "",
              "type": "uint256"
            }
          ],
          "stateMutability": "view",
          "type": "function"
        },
        {
          "inputs": [
            {
              "internalType": "address",
              "name": "to",
              "type": "address"
            },
            {
              "internalType": "uint256",
              "name": "quantity",
              "type": "uint256"
            }
          ],
          "name": "support",
          "outputs": [],
          "stateMutability": "payable",
          "type": "function"
        },
        {
          "inputs": [
            {
              "internalType": "uint256",
              "name": "targetSeason",
              "type": "uint256"
            }
          ],
          "name": "supporterWithdraw",
          "outputs": [],
          "stateMutability": "nonpayable",
          "type": "function"
        },
        {
          "inputs": [
            {
              "internalType": "uint256",
              "name": "",
              "type": "uint256"
            },
            {
              "internalType": "address",
              "name": "",
              "type": "address"
            }
          ],
          "name": "supporterWithdrawns",
          "outputs": [
            {
              "internalType": "bool",
              "name": "",
              "type": "bool"
            }
          ],
          "stateMutability": "view",
          "type": "function"
        },
        {
          "inputs": [
            {
              "internalType": "uint256",
              "name": "",
              "type": "uint256"
            }
          ],
          "name": "winners",
          "outputs": [
            {
              "internalType": "address",
              "name": "",
              "type": "address"
            }
          ],
          "stateMutability": "view",
          "type": "function"
        }
      ],
      "evm": {
        "bytecode": {
          "linkReferences": {},
          "object": "60806040526004608360006101000a81548160ff021916908360ff1602179055506004608360016101000a81548160ff021916908360ff16021790555060006084553480156200004e57600080fd5b5060405162004b4238038062004b42833981810160405281019062000074919062000113565b336000806101000a81548173ffffffffffffffffffffffffffffffffffffffff021916908373ffffffffffffffffffffffffffffffffffffffff16021790555080600160006101000a81548173ffffffffffffffffffffffffffffffffffffffff021916908373ffffffffffffffffffffffffffffffffffffffff1602179055505062000198565b6000815190506200010d816200017e565b92915050565b6000602082840312156200012c576200012b62000179565b5b60006200013c84828501620000fc565b91505092915050565b6000620001528262000159565b9050919050565b600073ffffffffffffffffffffffffffffffffffffffff82169050919050565b600080fd5b620001898162000145565b81146200019557600080fd5b50565b61499a80620001a86000396000f3fe6080604052600436106101d85760003560e01c806396ff66c211610102578063c0145d8d11610095578063ec7f828811610064578063ec7f828814610691578063f0204194146106bc578063f301af42146106f9578063fd48d4a614610736576101d8565b8063c0145d8d146105e5578063c50b0fb014610610578063ca4b208b1461063b578063e70b525914610666576101d8565b8063a90b9128116100d1578063a90b912814610500578063ba0380b214610540578063ba9ae4811461057d578063bde1847c146105a8576101d8565b806396ff66c2146104305780639e20a2691461045b5780639eae6f2614610486578063a2fb1175146104c3576101d8565b806339e765a11161017a57806383ab6d131161014957806383ab6d131461037257806388e8e53b1461039d5780638ba2c280146103c85780638d04919014610405576101d8565b806339e765a1146102e45780633d5425fe146102ee5780634f0a1eb214610319578063568305b314610356576101d8565b8063219467b4116101b6578063219467b41461025857806323c834bc1461028357806331119b4d1461029f57806336c96cc0146102c8576101d8565b80630fcf06a2146101dd5780631097bcf5146102065780631616df501461022f575b600080fd5b3480156101e957600080fd5b5061020460048036038101906101ff9190613dbd565b610773565b005b34801561021257600080fd5b5061022d60048036038101906102289190613f77565b610a37565b005b34801561023b57600080fd5b5061025660048036038101906102519190613d50565b611968565b005b34801561026457600080fd5b5061026d611a06565b60405161027a91906143c5565b60405180910390f35b61029d60048036038101906102989190613ebd565b611a0b565b005b3480156102ab57600080fd5b506102c660048036038101906102c19190613d50565b612ac2565b005b6102e260048036038101906102dd9190613d7d565b612b5d565b005b6102ec612d98565b005b3480156102fa57600080fd5b50610303612f76565b60405161031091906140fb565b60405180910390f35b34801561032557600080fd5b50610340600480360381019061033b9190613dea565b612f9c565b60405161034d91906143c5565b60405180910390f35b610370600480360381019061036b9190613f24565b612fcb565b005b34801561037e57600080fd5b50610387613326565b60405161039491906143c5565b60405180910390f35b3480156103a957600080fd5b506103b261332b565b6040516103bf91906143c5565b60405180910390f35b3480156103d457600080fd5b506103ef60048036038101906103ea9190613e2a565b613330565b6040516103fc9190614381565b60405180910390f35b34801561041157600080fd5b5061041a613362565b60405161042791906143c5565b60405180910390f35b34801561043c57600080fd5b50610445613375565b6040516104529190614381565b60405180910390f35b34801561046757600080fd5b5061047061337f565b60405161047d91906143c5565b60405180910390f35b34801561049257600080fd5b506104ad60048036038101906104a89190613dea565b613384565b6040516104ba9190614381565b60405180910390f35b3480156104cf57600080fd5b506104ea60048036038101906104e59190613dbd565b6133a9565b6040516104f791906140fb565b60405180910390f35b34801561050c57600080fd5b5061052760048036038101906105229190613e7d565b6133dc565b604051610537949392919061427c565b60405180910390f35b34801561054c57600080fd5b5061056760048036038101906105629190613d50565b61345f565b6040516105749190614381565b60405180910390f35b34801561058957600080fd5b50610592613477565b60405161059f91906143c5565b60405180910390f35b3480156105b457600080fd5b506105cf60048036038101906105ca9190613dea565b61347c565b6040516105dc9190614381565b60405180910390f35b3480156105f157600080fd5b506105fa6134a1565b60405161060791906143c5565b60405180910390f35b34801561061c57600080fd5b506106256134a6565b6040516106329190614381565b60405180910390f35b34801561064757600080fd5b506106506134ac565b60405161065d91906140fb565b60405180910390f35b34801561067257600080fd5b5061067b6134d0565b60405161068891906143c5565b60405180910390f35b34801561069d57600080fd5b506106a66134e3565b6040516106b391906143c5565b60405180910390f35b3480156106c857600080fd5b506106e360048036038101906106de9190613dbd565b6134e8565b6040516106f091906143c5565b60405180910390f35b34801561070557600080fd5b50610720600480360381019061071b9190613dbd565b613508565b60405161072d9190614381565b60405180910390f35b34801561074257600080fd5b5061075d60048036038101906107589190613dea565b613520565b60405161076a9190614261565b60405180910390f35b608454811061078157600080fd5b600115156087600083815260200190815260200160002060003373ffffffffffffffffffffffffffffffffffffffff1673ffffffffffffffffffffffffffffffffffffffff16815260200190815260200160002060009054906101000a900460ff16151514156107f057600080fd5b60016087600083815260200190815260200160002060003373ffffffffffffffffffffffffffffffffffffffff1673ffffffffffffffffffffffffffffffffffffffff16815260200190815260200160002060006101000a81548160ff0219169083151502179055503373ffffffffffffffffffffffffffffffffffffffff166108fc6089600084815260200190815260200160002060003373ffffffffffffffffffffffffffffffffffffffff1673ffffffffffffffffffffffffffffffffffffffff168152602001908152602001600020546088600085815260200190815260200160002060003373ffffffffffffffffffffffffffffffffffffffff1673ffffffffffffffffffffffffffffffffffffffff1681526020019081526020016000205461091f91906143f1565b608a600085815260200190815260200160002060003373ffffffffffffffffffffffffffffffffffffffff1673ffffffffffffffffffffffffffffffffffffffff16815260200190815260200160002060006086600087815260200190815260200160002060009054906101000a900473ffffffffffffffffffffffffffffffffffffffff1673ffffffffffffffffffffffffffffffffffffffff1673ffffffffffffffffffffffffffffffffffffffff1681526020019081526020016000205460856000868152602001908152602001600020546109fe919061451c565b610a0891906144af565b9081150290604051600060405180830381858888f19350505050158015610a33573d6000803e3d6000fd5b5050565b608360009054906101000a900460ff1660ff168460ff16108015610a6f5750608360019054906101000a900460ff1660ff168360ff16105b610a7857600080fd5b608360009054906101000a900460ff1660ff168260ff16108015610ab05750608360019054906101000a900460ff1660ff168160ff16105b610ab957600080fd5b60018160ff168460ff1610610ad9578184610ad491906145e5565b610ae6565b8382610ae591906145e5565b5b8360ff168660ff1610610b04578386610aff91906145e5565b610b11565b8584610b1091906145e5565b5b610b1b9190614447565b60ff1614610b2857600080fd5b600060038460ff1660088110610b4157610b4061475f565b5b601002018560ff1660088110610b5a57610b5961475f565b5b600202019050600060038360ff1660088110610b7957610b7861475f565b5b601002018460ff1660088110610b9257610b9161475f565b5b6002020190503373ffffffffffffffffffffffffffffffffffffffff168260000160029054906101000a900473ffffffffffffffffffffffffffffffffffffffff1673ffffffffffffffffffffffffffffffffffffffff1614610bf457600080fd5b43826001015410610c3a576040517f08c379a0000000000000000000000000000000000000000000000000000000008152600401610c31906142e1565b60405180910390fd5b600073ffffffffffffffffffffffffffffffffffffffff168160000160029054906101000a900473ffffffffffffffffffffffffffffffffffffffff1673ffffffffffffffffffffffffffffffffffffffff161415610e3a578160038460ff1660088110610cab57610caa61475f565b5b601002018560ff1660088110610cc457610cc361475f565b5b600202016000820160009054906101000a900460ff168160000160006101000a81548160ff02191690836005811115610d0057610cff614730565b5b02179055506000820160019054906101000a900460ff168160000160016101000a81548160ff021916908360ff1602179055506000820160029054906101000a900473ffffffffffffffffffffffffffffffffffffffff168160000160026101000a81548173ffffffffffffffffffffffffffffffffffffffff021916908373ffffffffffffffffffffffffffffffffffffffff1602179055506001820154816001015590505060038560ff1660088110610dbe57610dbd61475f565b5b601002018660ff1660088110610dd757610dd661475f565b5b60020201600080820160006101000a81549060ff02191690556000820160016101000a81549060ff02191690556000820160026101000a81549073ffffffffffffffffffffffffffffffffffffffff021916905560018201600090555050611921565b3373ffffffffffffffffffffffffffffffffffffffff168160000160029054906101000a900473ffffffffffffffffffffffffffffffffffffffff1673ffffffffffffffffffffffffffffffffffffffff161415611098578160000160009054906101000a900460ff166005811115610eb657610eb5614730565b5b8160000160009054906101000a900460ff166005811115610eda57610ed9614730565b5b14610ee457600080fd5b60008260000160019054906101000a900460ff168260000160019054906101000a900460ff16610f149190614447565b9050601e60ff168160ff161115610f60576040517f08c379a0000000000000000000000000000000000000000000000000000000008152600401610f57906142c1565b60405180910390fd5b808260000160016101000a81548160ff021916908360ff1602179055506001608b6000608454815260200190815260200160002060003373ffffffffffffffffffffffffffffffffffffffff1673ffffffffffffffffffffffffffffffffffffffff16815260200190815260200160002060008282829054906101000a900460ff16610fec91906145e5565b92506101000a81548160ff021916908360ff16021790555060038660ff166008811061101b5761101a61475f565b5b601002018760ff16600881106110345761103361475f565b5b60020201600080820160006101000a81549060ff02191690556000820160016101000a81549060ff02191690556000820160026101000a81549073ffffffffffffffffffffffffffffffffffffffff02191690556001820160009055505050611920565b600061122a836040518060800160405290816000820160009054906101000a900460ff1660058111156110ce576110cd614730565b5b60058111156110e0576110df614730565b5b81526020016000820160019054906101000a900460ff1660ff1660ff1681526020016000820160029054906101000a900473ffffffffffffffffffffffffffffffffffffffff1673ffffffffffffffffffffffffffffffffffffffff1673ffffffffffffffffffffffffffffffffffffffff168152602001600182015481525050836040518060800160405290816000820160009054906101000a900460ff16600581111561119257611191614730565b5b60058111156111a4576111a3614730565b5b81526020016000820160019054906101000a900460ff1660ff1660ff1681526020016000820160029054906101000a900473ffffffffffffffffffffffffffffffffffffffff1673ffffffffffffffffffffffffffffffffffffffff1673ffffffffffffffffffffffffffffffffffffffff16815260200160018201548152505061354f565b905060006113be836040518060800160405290816000820160009054906101000a900460ff16600581111561126257611261614730565b5b600581111561127457611273614730565b5b81526020016000820160019054906101000a900460ff1660ff1660ff1681526020016000820160029054906101000a900473ffffffffffffffffffffffffffffffffffffffff1673ffffffffffffffffffffffffffffffffffffffff1673ffffffffffffffffffffffffffffffffffffffff168152602001600182015481525050856040518060800160405290816000820160009054906101000a900460ff16600581111561132657611325614730565b5b600581111561133857611337614730565b5b81526020016000820160019054906101000a900460ff1660ff1660ff1681526020016000820160029054906101000a900473ffffffffffffffffffffffffffffffffffffffff1673ffffffffffffffffffffffffffffffffffffffff1673ffffffffffffffffffffffffffffffffffffffff16815260200160018201548152505061354f565b90508260000160019054906101000a900460ff1660ff168260ff161061151c576001608b6000608454815260200190815260200160002060008560000160029054906101000a900473ffffffffffffffffffffffffffffffffffffffff1673ffffffffffffffffffffffffffffffffffffffff1673ffffffffffffffffffffffffffffffffffffffff16815260200190815260200160002060008282829054906101000a900460ff1661147191906145e5565b92506101000a81548160ff021916908360ff16021790555060038560ff16600881106114a05761149f61475f565b5b601002018660ff16600881106114b9576114b861475f565b5b60020201600080820160006101000a81549060ff02191690556000820160016101000a81549060ff02191690556000820160026101000a81549073ffffffffffffffffffffffffffffffffffffffff021916905560018201600090555050611555565b818360000160018282829054906101000a900460ff1661153c91906145e5565b92506101000a81548160ff021916908360ff1602179055505b8360000160019054906101000a900460ff1660ff168160ff161061168d576001608b6000608454815260200190815260200160002060003373ffffffffffffffffffffffffffffffffffffffff1673ffffffffffffffffffffffffffffffffffffffff16815260200190815260200160002060008282829054906101000a900460ff166115e291906145e5565b92506101000a81548160ff021916908360ff16021790555060038760ff16600881106116115761161061475f565b5b601002018860ff166008811061162a5761162961475f565b5b60020201600080820160006101000a81549060ff02191690556000820160016101000a81549060ff02191690556000820160026101000a81549073ffffffffffffffffffffffffffffffffffffffff0219169055600182016000905550506116c6565b808460000160018282829054906101000a900460ff166116ad91906145e5565b92506101000a81548160ff021916908360ff1602179055505b3373ffffffffffffffffffffffffffffffffffffffff168460000160029054906101000a900473ffffffffffffffffffffffffffffffffffffffff1673ffffffffffffffffffffffffffffffffffffffff161480156117755750600073ffffffffffffffffffffffffffffffffffffffff168360000160029054906101000a900473ffffffffffffffffffffffffffffffffffffffff1673ffffffffffffffffffffffffffffffffffffffff16145b1561191d578360038660ff16600881106117925761179161475f565b5b601002018760ff16600881106117ab576117aa61475f565b5b600202016000820160009054906101000a900460ff168160000160006101000a81548160ff021916908360058111156117e7576117e6614730565b5b02179055506000820160019054906101000a900460ff168160000160016101000a81548160ff021916908360ff1602179055506000820160029054906101000a900473ffffffffffffffffffffffffffffffffffffffff168160000160026101000a81548173ffffffffffffffffffffffffffffffffffffffff021916908373ffffffffffffffffffffffffffffffffffffffff1602179055506001820154816001015590505060038760ff16600881106118a5576118a461475f565b5b601002018860ff16600881106118be576118bd61475f565b5b60020201600080820160006101000a81549060ff02191690556000820160016101000a81549060ff02191690556000820160026101000a81549073ffffffffffffffffffffffffffffffffffffffff0219169055600182016000905550505b50505b5b7f6c9ebc7b3fffa9dc72668688527caf73b3803a8cefcf455809ba4ced9383e517338787878760405161195895949392919061420e565b60405180910390a1505050505050565b3373ffffffffffffffffffffffffffffffffffffffff16600160009054906101000a900473ffffffffffffffffffffffffffffffffffffffff1673ffffffffffffffffffffffffffffffffffffffff16146119c257600080fd5b80600160006101000a81548173ffffffffffffffffffffffffffffffffffffffff021916908373ffffffffffffffffffffffffffffffffffffffff16021790555050565b600881565b608360009054906101000a900460ff1660ff168460ff16108015611a435750608360019054906101000a900460ff1660ff168360ff16105b8015611ad25750600073ffffffffffffffffffffffffffffffffffffffff1660038460ff1660088110611a7957611a7861475f565b5b601002018560ff1660088110611a9257611a9161475f565b5b6002020160000160029054906101000a900473ffffffffffffffffffffffffffffffffffffffff1673ffffffffffffffffffffffffffffffffffffffff16145b611b11576040517f08c379a0000000000000000000000000000000000000000000000000000000008152600401611b0890614361565b60405180910390fd5b60006005811115611b2557611b24614730565b5b826005811115611b3857611b37614730565b5b10158015611b6a5750600580811115611b5457611b53614730565b5b826005811115611b6757611b66614730565b5b11155b611b7357600080fd5b601e60ff168160ff161115611bbd576040517f08c379a0000000000000000000000000000000000000000000000000000000008152600401611bb4906142c1565b60405180910390fd5b6000608b6000608454815260200190815260200160002060003373ffffffffffffffffffffffffffffffffffffffff1673ffffffffffffffffffffffffffffffffffffffff16815260200190815260200160002060009054906101000a900460ff1660ff161415611fd457600860ff16608c600043815260200190815260200160002060009054906101000a900460ff1660ff161115611c92576040517f08c379a0000000000000000000000000000000000000000000000000000000008152600401611c8990614341565b60405180910390fd5b611c9a612d98565b6000608454600a60ff16611cae91906143f1565b8260ff16611cbc919061451c565b905080600260003373ffffffffffffffffffffffffffffffffffffffff1673ffffffffffffffffffffffffffffffffffffffff1681526020019081526020016000206000828254611d0d91906145b1565b925050819055508060886000608454815260200190815260200160002060003373ffffffffffffffffffffffffffffffffffffffff1673ffffffffffffffffffffffffffffffffffffffff1681526020019081526020016000206000828254611d7691906143f1565b925050819055507f2d78aabdffbcdf19e64604c0d977dac0612f4b6b9748e5107eddbbdfa5203bf83382604051611dae92919061414d565b60405180910390a16040518060800160405280846005811115611dd457611dd3614730565b5b81526020018360ff1681526020013373ffffffffffffffffffffffffffffffffffffffff1681526020014381525060038560ff1660088110611e1957611e1861475f565b5b601002018660ff1660088110611e3257611e3161475f565b5b6002020160008201518160000160006101000a81548160ff02191690836005811115611e6157611e60614730565b5b021790555060208201518160000160016101000a81548160ff021916908360ff16021790555060408201518160000160026101000a81548173ffffffffffffffffffffffffffffffffffffffff021916908373ffffffffffffffffffffffffffffffffffffffff160217905550606082015181600101559050506001608b6000608454815260200190815260200160002060003373ffffffffffffffffffffffffffffffffffffffff1673ffffffffffffffffffffffffffffffffffffffff16815260200190815260200160002060006101000a81548160ff021916908360ff1602179055506001608c600043815260200190815260200160002060008282829054906101000a900460ff16611f779190614447565b92506101000a81548160ff021916908360ff1602179055507f6d0acd8dff7dbe302690533979375614697c5291f7e843e42fa43df9a0fa16763386868686604051611fc6959493929190614176565b60405180910390a150612abc565b60018460ff161015801561207657503373ffffffffffffffffffffffffffffffffffffffff1660038460ff16600881106120115761201061475f565b5b6010020160018661202291906145e5565b60ff16600881106120365761203561475f565b5b6002020160000160029054906101000a900473ffffffffffffffffffffffffffffffffffffffff1673ffffffffffffffffffffffffffffffffffffffff16145b80156120c457504360038460ff16600881106120955761209461475f565b5b601002016001866120a691906145e5565b60ff16600881106120ba576120b961475f565b5b6002020160010154105b806121bb575060018360ff161015801561216c57503373ffffffffffffffffffffffffffffffffffffffff1660036001856120ff91906145e5565b60ff16600881106121135761211261475f565b5b601002018560ff166008811061212c5761212b61475f565b5b6002020160000160029054906101000a900473ffffffffffffffffffffffffffffffffffffffff1673ffffffffffffffffffffffffffffffffffffffff16145b80156121ba575043600360018561218391906145e5565b60ff16600881106121975761219661475f565b5b601002018560ff16600881106121b0576121af61475f565b5b6002020160010154105b5b806122ce57506001608360009054906101000a900460ff166121dd91906145e5565b60ff168460ff1610801561227f57503373ffffffffffffffffffffffffffffffffffffffff1660038460ff166008811061221a5761221961475f565b5b6010020160018661222b9190614447565b60ff166008811061223f5761223e61475f565b5b6002020160000160029054906101000a900473ffffffffffffffffffffffffffffffffffffffff1673ffffffffffffffffffffffffffffffffffffffff16145b80156122cd57504360038460ff166008811061229e5761229d61475f565b5b601002016001866122af9190614447565b60ff16600881106122c3576122c261475f565b5b6002020160010154105b5b806123e157506001608360019054906101000a900460ff166122f091906145e5565b60ff168360ff1610801561239257503373ffffffffffffffffffffffffffffffffffffffff1660036001856123259190614447565b60ff16600881106123395761233861475f565b5b601002018560ff16600881106123525761235161475f565b5b6002020160000160029054906101000a900473ffffffffffffffffffffffffffffffffffffffff1673ffffffffffffffffffffffffffffffffffffffff16145b80156123e057504360036001856123a99190614447565b60ff16600881106123bd576123bc61475f565b5b601002018560ff16600881106123d6576123d561475f565b5b6002020160010154105b5b612420576040517f08c379a000000000000000000000000000000000000000000000000000000000815260040161241790614301565b60405180910390fd5b612428612d98565b6000608454600a60ff1661243c91906143f1565b8260ff1661244a919061451c565b905080600260003373ffffffffffffffffffffffffffffffffffffffff1673ffffffffffffffffffffffffffffffffffffffff168152602001908152602001600020600082825461249b91906145b1565b925050819055508060886000608454815260200190815260200160002060003373ffffffffffffffffffffffffffffffffffffffff1673ffffffffffffffffffffffffffffffffffffffff168152602001908152602001600020600082825461250491906143f1565b925050819055507f2d78aabdffbcdf19e64604c0d977dac0612f4b6b9748e5107eddbbdfa5203bf8338260405161253c92919061414d565b60405180910390a1604051806080016040528084600581111561256257612561614730565b5b81526020018360ff1681526020013373ffffffffffffffffffffffffffffffffffffffff1681526020014381525060038560ff16600881106125a7576125a661475f565b5b601002018660ff16600881106125c0576125bf61475f565b5b6002020160008201518160000160006101000a81548160ff021916908360058111156125ef576125ee614730565b5b021790555060208201518160000160016101000a81548160ff021916908360ff16021790555060408201518160000160026101000a81548173ffffffffffffffffffffffffffffffffffffffff021916908373ffffffffffffffffffffffffffffffffffffffff160217905550606082015181600101559050506001608b6000608454815260200190815260200160002060003373ffffffffffffffffffffffffffffffffffffffff1673ffffffffffffffffffffffffffffffffffffffff16815260200190815260200160002060008282829054906101000a900460ff166126d89190614447565b92506101000a81548160ff021916908360ff1602179055507fc24961febc4594b0071b89fa2c280f2b3d07e773e9ced8a26de2e87e9c182e803386868686604051612727959493929190614176565b60405180910390a1608360019054906101000a900460ff16608360009054906101000a900460ff166127599190614576565b60ff16608b6000608454815260200190815260200160002060003373ffffffffffffffffffffffffffffffffffffffff1673ffffffffffffffffffffffffffffffffffffffff16815260200190815260200160002060009054906101000a900460ff1660ff161415612aba573360866000608454815260200190815260200160002060006101000a81548173ffffffffffffffffffffffffffffffffffffffff021916908373ffffffffffffffffffffffffffffffffffffffff160217905550600060896000608454815260200190815260200160002060003373ffffffffffffffffffffffffffffffffffffffff1673ffffffffffffffffffffffffffffffffffffffff1681526020019081526020016000205460886000608454815260200190815260200160002060003373ffffffffffffffffffffffffffffffffffffffff1673ffffffffffffffffffffffffffffffffffffffff168152602001908152602001600020546128cb91906143f1565b60886000608454815260200190815260200160002060003373ffffffffffffffffffffffffffffffffffffffff1673ffffffffffffffffffffffffffffffffffffffff168152602001908152602001600020546085600060845481526020019081526020016000205461293e919061451c565b61294891906144af565b90507fd1d05b4cb67fa991a51e7b2ab5fd9cd829cb70774e82694d9e576153979c3b7e6084543360405161297d92919061439c565b60405180910390a1600360006129939190613c3e565b6001608460008282546129a691906143f1565b92505081905550600060056084546129be91906146a1565b1415612a7157600860ff16608360009054906101000a900460ff1660ff161015612a1a576001608360008282829054906101000a900460ff16612a019190614447565b92506101000a81548160ff021916908360ff1602179055505b600860ff16608360019054906101000a900460ff1660ff161015612a70576001608360018282829054906101000a900460ff16612a579190614447565b92506101000a81548160ff021916908360ff1602179055505b5b3373ffffffffffffffffffffffffffffffffffffffff166108fc829081150290604051600060405180830381858888f19350505050158015612ab7573d6000803e3d6000fd5b50505b505b50505050565b3373ffffffffffffffffffffffffffffffffffffffff1660008054906101000a900473ffffffffffffffffffffffffffffffffffffffff1673ffffffffffffffffffffffffffffffffffffffff1614612b1a57600080fd5b806000806101000a81548173ffffffffffffffffffffffffffffffffffffffff021916908373ffffffffffffffffffffffffffffffffffffffff16021790555050565b612b65612d98565b80600260003373ffffffffffffffffffffffffffffffffffffffff1673ffffffffffffffffffffffffffffffffffffffff1681526020019081526020016000206000828254612bb491906145b1565b9250508190555080600260008473ffffffffffffffffffffffffffffffffffffffff1673ffffffffffffffffffffffffffffffffffffffff1681526020019081526020016000206000828254612c0a91906143f1565b925050819055508060896000608454815260200190815260200160002060008473ffffffffffffffffffffffffffffffffffffffff1673ffffffffffffffffffffffffffffffffffffffff1681526020019081526020016000206000828254612c7391906143f1565b9250508190555080608a6000608454815260200190815260200160002060003373ffffffffffffffffffffffffffffffffffffffff1673ffffffffffffffffffffffffffffffffffffffff16815260200190815260200160002060008473ffffffffffffffffffffffffffffffffffffffff1673ffffffffffffffffffffffffffffffffffffffff1681526020019081526020016000206000828254612d1991906143f1565b925050819055507f2d78aabdffbcdf19e64604c0d977dac0612f4b6b9748e5107eddbbdfa5203bf83382604051612d5192919061414d565b60405180910390a17f3f813e008231faa321621af212ed9374d27d2d71e618ffa6f40e873eef2e1ac1338383604051612d8c93929190614116565b60405180910390a15050565b6000655af3107a400034612dac91906144af565b90506000811115612f735780600260003373ffffffffffffffffffffffffffffffffffffffff1673ffffffffffffffffffffffffffffffffffffffff1681526020019081526020016000206000828254612e0691906143f1565b925050819055506064605f34612e1c919061451c565b612e2691906144af565b6085600060845481526020019081526020016000206000828254612e4a91906143f1565b9250508190555060008054906101000a900473ffffffffffffffffffffffffffffffffffffffff1673ffffffffffffffffffffffffffffffffffffffff166108fc601934612e9891906144af565b9081150290604051600060405180830381858888f19350505050158015612ec3573d6000803e3d6000fd5b50600160009054906101000a900473ffffffffffffffffffffffffffffffffffffffff1673ffffffffffffffffffffffffffffffffffffffff166108fc606434612f0d91906144af565b9081150290604051600060405180830381858888f19350505050158015612f38573d6000803e3d6000fd5b507fcd17f300cbaa3a53b211634d2a532fd1b21508a1b1c8f4779f77906ad420bb3a3382604051612f6a92919061414d565b60405180910390a15b50565b600160009054906101000a900473ffffffffffffffffffffffffffffffffffffffff1681565b608b6020528160005260406000206020528060005260406000206000915091509054906101000a900460ff1681565b608360009054906101000a900460ff1660ff168360ff161080156130035750608360019054906101000a900460ff1660ff168260ff16105b801561309157503373ffffffffffffffffffffffffffffffffffffffff1660038360ff16600881106130385761303761475f565b5b601002018460ff16600881106130515761305061475f565b5b6002020160000160029054906101000a900473ffffffffffffffffffffffffffffffffffffffff1673ffffffffffffffffffffffffffffffffffffffff16145b6130d0576040517f08c379a00000000000000000000000000000000000000000000000000000000081526004016130c790614321565b60405180910390fd5b60008160038460ff16600881106130ea576130e961475f565b5b601002018560ff16600881106131035761310261475f565b5b6002020160000160019054906101000a900460ff166131229190614447565b9050601e60ff168160ff16111561316e576040517f08c379a0000000000000000000000000000000000000000000000000000000008152600401613165906142c1565b60405180910390fd5b613176612d98565b6000608454600a60ff1661318a91906143f1565b8360ff16613198919061451c565b905080600260003373ffffffffffffffffffffffffffffffffffffffff1673ffffffffffffffffffffffffffffffffffffffff16815260200190815260200160002060008282546131e991906145b1565b925050819055508060886000608454815260200190815260200160002060003373ffffffffffffffffffffffffffffffffffffffff1673ffffffffffffffffffffffffffffffffffffffff168152602001908152602001600020600082825461325291906143f1565b925050819055507f2d78aabdffbcdf19e64604c0d977dac0612f4b6b9748e5107eddbbdfa5203bf8338260405161328a92919061414d565b60405180910390a18160038560ff16600881106132aa576132a961475f565b5b601002018660ff16600881106132c3576132c261475f565b5b6002020160000160016101000a81548160ff021916908360ff1602179055507fe689ab9829cab67df59770aa37b4ae2e84c0e3ceaa686e2fd48faf4ccf40b8473386868660405161331794939291906141c9565b60405180910390a15050505050565b600481565b600a81565b608a60205282600052604060002060205281600052604060002060205280600052604060002060009250925050505481565b608360009054906101000a900460ff1681565b655af3107a400081565b600881565b6088602052816000526040600020602052806000526040600020600091509150505481565b60866020528060005260406000206000915054906101000a900473ffffffffffffffffffffffffffffffffffffffff1681565b600382600881106133ec57600080fd5b6010020181600881106133fe57600080fd5b60020201600091509150508060000160009054906101000a900460ff16908060000160019054906101000a900460ff16908060000160029054906101000a900473ffffffffffffffffffffffffffffffffffffffff16908060010154905084565b60026020528060005260406000206000915090505481565b601e81565b6089602052816000526040600020602052806000526040600020600091509150505481565b600881565b60845481565b60008054906101000a900473ffffffffffffffffffffffffffffffffffffffff1681565b608360019054906101000a900460ff1681565b600481565b608c6020528060005260406000206000915054906101000a900460ff1681565b60856020528060005260406000206000915090505481565b60876020528160005260406000206020528060005260406000206000915091509054906101000a900460ff1681565b600080836020015160ff169050600060058111156135705761356f614730565b5b8460000151600581111561358757613586614730565b5b14156136bd576005808111156135a05761359f614730565b5b836000015160058111156135b7576135b6614730565b5b14156135d1576002816135ca91906144e0565b90506136b8565b600160058111156135e5576135e4614730565b5b836000015160058111156135fc576135fb614730565b5b148061363057506002600581111561361757613616614730565b5b8360000151600581111561362e5761362d614730565b5b145b8061366357506003600581111561364a57613649614730565b5b8360000151600581111561366157613660614730565b5b145b8061369657506004600581111561367d5761367c614730565b5b8360000151600581111561369457613693614730565b5b145b156136b757607d6064826136aa91906144e0565b6136b4919061447e565b90505b5b613c34565b6005808111156136d0576136cf614730565b5b846000015160058111156136e7576136e6614730565b5b141561381e576001600581111561370157613700614730565b5b8360000151600581111561371857613717614730565b5b148061374c57506002600581111561373357613732614730565b5b8360000151600581111561374a57613749614730565b5b145b8061377f57506003600581111561376657613765614730565b5b8360000151600581111561377d5761377c614730565b5b145b806137b257506004600581111561379957613798614730565b5b836000015160058111156137b0576137af614730565b5b145b156137d7576064607d826137c691906144e0565b6137d0919061447e565b9050613819565b600060058111156137eb576137ea614730565b5b8360000151600581111561380257613801614730565b5b141561381857600281613815919061447e565b90505b5b613c33565b6000600581111561383257613831614730565b5b8360000151600581111561384957613848614730565b5b141561386f576064607d8261385e91906144e0565b613868919061447e565b9050613c32565b60058081111561388257613881614730565b5b8360000151600581111561389957613898614730565b5b14156138bf57607d6064826138ae91906144e0565b6138b8919061447e565b9050613c31565b600160058111156138d3576138d2614730565b5b846000015160058111156138ea576138e9614730565b5b14801561391f57506003600581111561390657613905614730565b5b8360000151600581111561391d5761391c614730565b5b145b8061398657506003600581111561393957613938614730565b5b846000015160058111156139505761394f614730565b5b14801561398557506004600581111561396c5761396b614730565b5b8360000151600581111561398357613982614730565b5b145b5b806139ed5750600460058111156139a05761399f614730565b5b846000015160058111156139b7576139b6614730565b5b1480156139ec5750600260058111156139d3576139d2614730565b5b836000015160058111156139ea576139e9614730565b5b145b5b80613a54575060026005811115613a0757613a06614730565b5b84600001516005811115613a1e57613a1d614730565b5b148015613a53575060016005811115613a3a57613a39614730565b5b83600001516005811115613a5157613a50614730565b5b145b5b15613a7957600a600f82613a6891906144e0565b613a72919061447e565b9050613c30565b60036005811115613a8d57613a8c614730565b5b84600001516005811115613aa457613aa3614730565b5b148015613ad9575060016005811115613ac057613abf614730565b5b83600001516005811115613ad757613ad6614730565b5b145b80613b40575060046005811115613af357613af2614730565b5b84600001516005811115613b0a57613b09614730565b5b148015613b3f575060036005811115613b2657613b25614730565b5b83600001516005811115613b3d57613b3c614730565b5b145b5b80613ba7575060026005811115613b5a57613b59614730565b5b84600001516005811115613b7157613b70614730565b5b148015613ba6575060046005811115613b8d57613b8c614730565b5b83600001516005811115613ba457613ba3614730565b5b145b5b80613c0e575060016005811115613bc157613bc0614730565b5b84600001516005811115613bd857613bd7614730565b5b148015613c0d575060026005811115613bf457613bf3614730565b5b83600001516005811115613c0b57613c0a614730565b5b145b5b15613c2f57600f600a82613c2291906144e0565b613c2c919061447e565b90505b5b5b5b5b5b8091505092915050565b508060086010020190613c519190613c54565b50565b5b80821115613c745760008181613c6b9190613c78565b50601001613c55565b5090565b508060086002020190613c8b9190613c8e565b50565b5b80821115613cf857600080820160006101000a81549060ff02191690556000820160016101000a81549060ff02191690556000820160026101000a81549073ffffffffffffffffffffffffffffffffffffffff0219169055600182016000905550600201613c8f565b5090565b600081359050613d0b8161490f565b92915050565b600081359050613d2081614926565b92915050565b600081359050613d3581614936565b92915050565b600081359050613d4a8161494d565b92915050565b600060208284031215613d6657613d6561478e565b5b6000613d7484828501613cfc565b91505092915050565b60008060408385031215613d9457613d9361478e565b5b6000613da285828601613cfc565b9250506020613db385828601613d26565b9150509250929050565b600060208284031215613dd357613dd261478e565b5b6000613de184828501613d26565b91505092915050565b60008060408385031215613e0157613e0061478e565b5b6000613e0f85828601613d26565b9250506020613e2085828601613cfc565b9150509250929050565b600080600060608486031215613e4357613e4261478e565b5b6000613e5186828701613d26565b9350506020613e6286828701613cfc565b9250506040613e7386828701613cfc565b9150509250925092565b60008060408385031215613e9457613e9361478e565b5b6000613ea285828601613d26565b9250506020613eb385828601613d26565b9150509250929050565b60008060008060808587031215613ed757613ed661478e565b5b6000613ee587828801613d3b565b9450506020613ef687828801613d3b565b9350506040613f0787828801613d11565b9250506060613f1887828801613d3b565b91505092959194509250565b600080600060608486031215613f3d57613f3c61478e565b5b6000613f4b86828701613d3b565b9350506020613f5c86828701613d3b565b9250506040613f6d86828701613d3b565b9150509250925092565b60008060008060808587031215613f9157613f9061478e565b5b6000613f9f87828801613d3b565b9450506020613fb087828801613d3b565b9350506040613fc187828801613d3b565b9250506060613fd287828801613d3b565b91505092959194509250565b613fe781614619565b82525050565b613ff68161462b565b82525050565b6140058161468f565b82525050565b60006140186021836143e0565b915061402382614793565b604082019050919050565b600061403b601f836143e0565b9150614046826147e2565b602082019050919050565b600061405e602f836143e0565b91506140698261480b565b604082019050919050565b60006140816018836143e0565b915061408c8261485a565b602082019050919050565b60006140a46022836143e0565b91506140af82614883565b604082019050919050565b60006140c76017836143e0565b91506140d2826148d2565b602082019050919050565b6140e681614678565b82525050565b6140f581614682565b82525050565b60006020820190506141106000830184613fde565b92915050565b600060608201905061412b6000830186613fde565b6141386020830185613fde565b61414560408301846140dd565b949350505050565b60006040820190506141626000830185613fde565b61416f60208301846140dd565b9392505050565b600060a08201905061418b6000830188613fde565b61419860208301876140ec565b6141a560408301866140ec565b6141b26060830185613ffc565b6141bf60808301846140ec565b9695505050505050565b60006080820190506141de6000830187613fde565b6141eb60208301866140ec565b6141f860408301856140ec565b61420560608301846140ec565b95945050505050565b600060a0820190506142236000830188613fde565b61423060208301876140ec565b61423d60408301866140ec565b61424a60608301856140ec565b61425760808301846140ec565b9695505050505050565b60006020820190506142766000830184613fed565b92915050565b60006080820190506142916000830187613ffc565b61429e60208301866140ec565b6142ab6040830185613fde565b6142b860608301846140dd565b95945050505050565b600060208201905081810360008301526142da8161400b565b9050919050565b600060208201905081810360008301526142fa8161402e565b9050919050565b6000602082019050818103600083015261431a81614051565b9050919050565b6000602082019050818103600083015261433a81614074565b9050919050565b6000602082019050818103600083015261435a81614097565b9050919050565b6000602082019050818103600083015261437a816140ba565b9050919050565b600060208201905061439660008301846140dd565b92915050565b60006040820190506143b160008301856140dd565b6143be6020830184613fde565b9392505050565b60006020820190506143da60008301846140ec565b92915050565b600082825260208201905092915050565b60006143fc82614678565b915061440783614678565b9250827fffffffffffffffffffffffffffffffffffffffffffffffffffffffffffffffff0382111561443c5761443b6146d2565b5b828201905092915050565b600061445282614682565b915061445d83614682565b92508260ff03821115614473576144726146d2565b5b828201905092915050565b60006144898261464a565b91506144948361464a565b9250826144a4576144a3614701565b5b828204905092915050565b60006144ba82614678565b91506144c583614678565b9250826144d5576144d4614701565b5b828204905092915050565b60006144eb8261464a565b91506144f68361464a565b92508161ffff0483118215151615614511576145106146d2565b5b828202905092915050565b600061452782614678565b915061453283614678565b9250817fffffffffffffffffffffffffffffffffffffffffffffffffffffffffffffffff048311821515161561456b5761456a6146d2565b5b828202905092915050565b600061458182614682565b915061458c83614682565b92508160ff04831182151516156145a6576145a56146d2565b5b828202905092915050565b60006145bc82614678565b91506145c783614678565b9250828210156145da576145d96146d2565b5b828203905092915050565b60006145f082614682565b91506145fb83614682565b92508282101561460e5761460d6146d2565b5b828203905092915050565b600061462482614658565b9050919050565b60008115159050919050565b6000819050614645826148fb565b919050565b600061ffff82169050919050565b600073ffffffffffffffffffffffffffffffffffffffff82169050919050565b6000819050919050565b600060ff82169050919050565b600061469a82614637565b9050919050565b60006146ac82614678565b91506146b783614678565b9250826146c7576146c6614701565b5b828206905092915050565b7f4e487b7100000000000000000000000000000000000000000000000000000000600052601160045260246000fd5b7f4e487b7100000000000000000000000000000000000000000000000000000000600052601260045260246000fd5b7f4e487b7100000000000000000000000000000000000000000000000000000000600052602160045260246000fd5b7f4e487b7100000000000000000000000000000000000000000000000000000000600052603260045260246000fd5b600080fd5b7f45786365656473206d617820756e697420636f756e747320706572207370616360008201527f6500000000000000000000000000000000000000000000000000000000000000602082015250565b7f5761697420756e74696c206e65787420626c6f636b20746f2061747461636b00600082015250565b7f4f6e6c792073756d6d6f6e206e65787420746f207370616365206f636375706960008201527f656420627920796f75722061726d790000000000000000000000000000000000602082015250565b7f4f6e6c7920617070656e6420746f20796f75722061726d790000000000000000600082015250565b7f45786365656473206d617820656e74657220636f756e74732070657220626c6f60008201527f636b000000000000000000000000000000000000000000000000000000000000602082015250565b7f54686973207370616365206973206e6f7420656d707479000000000000000000600082015250565b6006811061490c5761490b614730565b5b50565b61491881614619565b811461492357600080fd5b50565b6006811061493357600080fd5b50565b61493f81614678565b811461494a57600080fd5b50565b61495681614682565b811461496157600080fd5b5056fea26469706673582212206f7cf27e1944249d8132a36aca72fc7c0a7ab6170e455a28073a809e9225fe4864736f6c63430008050033",
          "opcodes": "PUSH1 0x80 PUSH1 0x40 MSTORE PUSH1 0x4 PUSH1 0x83 PUSH1 0x0 PUSH2 0x100 EXP DUP2 SLOAD DUP2 PUSH1 0xFF MUL NOT AND SWAP1 DUP4 PUSH1 0xFF AND MUL OR SWAP1 SSTORE POP PUSH1 0x4 PUSH1 0x83 PUSH1 0x1 PUSH2 0x100 EXP DUP2 SLOAD DUP2 PUSH1 0xFF MUL NOT AND SWAP1 DUP4 PUSH1 0xFF AND MUL OR SWAP1 SSTORE POP PUSH1 0x0 PUSH1 0x84 SSTORE CALLVALUE DUP1 ISZERO PUSH3 0x4E JUMPI PUSH1 0x0 DUP1 REVERT JUMPDEST POP PUSH1 0x40 MLOAD PUSH3 0x4B42 CODESIZE SUB DUP1 PUSH3 0x4B42 DUP4 CODECOPY DUP2 DUP2 ADD PUSH1 0x40 MSTORE DUP2 ADD SWAP1 PUSH3 0x74 SWAP2 SWAP1 PUSH3 0x113 JUMP JUMPDEST CALLER PUSH1 0x0 DUP1 PUSH2 0x100 EXP DUP2 SLOAD DUP2 PUSH20 0xFFFFFFFFFFFFFFFFFFFFFFFFFFFFFFFFFFFFFFFF MUL NOT AND SWAP1 DUP4 PUSH20 0xFFFFFFFFFFFFFFFFFFFFFFFFFFFFFFFFFFFFFFFF AND MUL OR SWAP1 SSTORE POP DUP1 PUSH1 0x1 PUSH1 0x0 PUSH2 0x100 EXP DUP2 SLOAD DUP2 PUSH20 0xFFFFFFFFFFFFFFFFFFFFFFFFFFFFFFFFFFFFFFFF MUL NOT AND SWAP1 DUP4 PUSH20 0xFFFFFFFFFFFFFFFFFFFFFFFFFFFFFFFFFFFFFFFF AND MUL OR SWAP1 SSTORE POP POP PUSH3 0x198 JUMP JUMPDEST PUSH1 0x0 DUP2 MLOAD SWAP1 POP PUSH3 0x10D DUP2 PUSH3 0x17E JUMP JUMPDEST SWAP3 SWAP2 POP POP JUMP JUMPDEST PUSH1 0x0 PUSH1 0x20 DUP3 DUP5 SUB SLT ISZERO PUSH3 0x12C JUMPI PUSH3 0x12B PUSH3 0x179 JUMP JUMPDEST JUMPDEST PUSH1 0x0 PUSH3 0x13C DUP5 DUP3 DUP6 ADD PUSH3 0xFC JUMP JUMPDEST SWAP2 POP POP SWAP3 SWAP2 POP POP JUMP JUMPDEST PUSH1 0x0 PUSH3 0x152 DUP3 PUSH3 0x159 JUMP JUMPDEST SWAP1 POP SWAP2 SWAP1 POP JUMP JUMPDEST PUSH1 0x0 PUSH20 0xFFFFFFFFFFFFFFFFFFFFFFFFFFFFFFFFFFFFFFFF DUP3 AND SWAP1 POP SWAP2 SWAP1 POP JUMP JUMPDEST PUSH1 0x0 DUP1 REVERT JUMPDEST PUSH3 0x189 DUP2 PUSH3 0x145 JUMP JUMPDEST DUP2 EQ PUSH3 0x195 JUMPI PUSH1 0x0 DUP1 REVERT JUMPDEST POP JUMP JUMPDEST PUSH2 0x499A DUP1 PUSH3 0x1A8 PUSH1 0x0 CODECOPY PUSH1 0x0 RETURN INVALID PUSH1 0x80 PUSH1 0x40 MSTORE PUSH1 0x4 CALLDATASIZE LT PUSH2 0x1D8 JUMPI PUSH1 0x0 CALLDATALOAD PUSH1 0xE0 SHR DUP1 PUSH4 0x96FF66C2 GT PUSH2 0x102 JUMPI DUP1 PUSH4 0xC0145D8D GT PUSH2 0x95 JUMPI DUP1 PUSH4 0xEC7F8288 GT PUSH2 0x64 JUMPI DUP1 PUSH4 0xEC7F8288 EQ PUSH2 0x691 JUMPI DUP1 PUSH4 0xF0204194 EQ PUSH2 0x6BC JUMPI DUP1 PUSH4 0xF301AF42 EQ PUSH2 0x6F9 JUMPI DUP1 PUSH4 0xFD48D4A6 EQ PUSH2 0x736 JUMPI PUSH2 0x1D8 JUMP JUMPDEST DUP1 PUSH4 0xC0145D8D EQ PUSH2 0x5E5 JUMPI DUP1 PUSH4 0xC50B0FB0 EQ PUSH2 0x610 JUMPI DUP1 PUSH4 0xCA4B208B EQ PUSH2 0x63B JUMPI DUP1 PUSH4 0xE70B5259 EQ PUSH2 0x666 JUMPI PUSH2 0x1D8 JUMP JUMPDEST DUP1 PUSH4 0xA90B9128 GT PUSH2 0xD1 JUMPI DUP1 PUSH4 0xA90B9128 EQ PUSH2 0x500 JUMPI DUP1 PUSH4 0xBA0380B2 EQ PUSH2 0x540 JUMPI DUP1 PUSH4 0xBA9AE481 EQ PUSH2 0x57D JUMPI DUP1 PUSH4 0xBDE1847C EQ PUSH2 0x5A8 JUMPI PUSH2 0x1D8 JUMP JUMPDEST DUP1 PUSH4 0x96FF66C2 EQ PUSH2 0x430 JUMPI DUP1 PUSH4 0x9E20A269 EQ PUSH2 0x45B JUMPI DUP1 PUSH4 0x9EAE6F26 EQ PUSH2 0x486 JUMPI DUP1 PUSH4 0xA2FB1175 EQ PUSH2 0x4C3 JUMPI PUSH2 0x1D8 JUMP JUMPDEST DUP1 PUSH4 0x39E765A1 GT PUSH2 0x17A JUMPI DUP1 PUSH4 0x83AB6D13 GT PUSH2 0x149 JUMPI DUP1 PUSH4 0x83AB6D13 EQ PUSH2 0x372 JUMPI DUP1 PUSH4 0x88E8E53B EQ PUSH2 0x39D JUMPI DUP1 PUSH4 0x8BA2C280 EQ PUSH2 0x3C8 JUMPI DUP1 PUSH4 0x8D049190 EQ PUSH2 0x405 JUMPI PUSH2 0x1D8 JUMP JUMPDEST DUP1 PUSH4 0x39E765A1 EQ PUSH2 0x2E4 JUMPI DUP1 PUSH4 0x3D5425FE EQ PUSH2 0x2EE JUMPI DUP1 PUSH4 0x4F0A1EB2 EQ PUSH2 0x319 JUMPI DUP1 PUSH4 0x568305B3 EQ PUSH2 0x356 JUMPI PUSH2 0x1D8 JUMP JUMPDEST DUP1 PUSH4 0x219467B4 GT PUSH2 0x1B6 JUMPI DUP1 PUSH4 0x219467B4 EQ PUSH2 0x258 JUMPI DUP1 PUSH4 0x23C834BC EQ PUSH2 0x283 JUMPI DUP1 PUSH4 0x31119B4D EQ PUSH2 0x29F JUMPI DUP1 PUSH4 0x36C96CC0 EQ PUSH2 0x2C8 JUMPI PUSH2 0x1D8 JUMP JUMPDEST DUP1 PUSH4 0xFCF06A2 EQ PUSH2 0x1DD JUMPI DUP1 PUSH4 0x1097BCF5 EQ PUSH2 0x206 JUMPI DUP1 PUSH4 0x1616DF50 EQ PUSH2 0x22F JUMPI JUMPDEST PUSH1 0x0 DUP1 REVERT JUMPDEST CALLVALUE DUP1 ISZERO PUSH2 0x1E9 JUMPI PUSH1 0x0 DUP1 REVERT JUMPDEST POP PUSH2 0x204 PUSH1 0x4 DUP1 CALLDATASIZE SUB DUP2 ADD SWAP1 PUSH2 0x1FF SWAP2 SWAP1 PUSH2 0x3DBD JUMP JUMPDEST PUSH2 0x773 JUMP JUMPDEST STOP JUMPDEST CALLVALUE DUP1 ISZERO PUSH2 0x212 JUMPI PUSH1 0x0 DUP1 REVERT JUMPDEST POP PUSH2 0x22D PUSH1 0x4 DUP1 CALLDATASIZE SUB DUP2 ADD SWAP1 PUSH2 0x228 SWAP2 SWAP1 PUSH2 0x3F77 JUMP JUMPDEST PUSH2 0xA37 JUMP JUMPDEST STOP JUMPDEST CALLVALUE DUP1 ISZERO PUSH2 0x23B JUMPI PUSH1 0x0 DUP1 REVERT JUMPDEST POP PUSH2 0x256 PUSH1 0x4 DUP1 CALLDATASIZE SUB DUP2 ADD SWAP1 PUSH2 0x251 SWAP2 SWAP1 PUSH2 0x3D50 JUMP JUMPDEST PUSH2 0x1968 JUMP JUMPDEST STOP JUMPDEST CALLVALUE DUP1 ISZERO PUSH2 0x264 JUMPI PUSH1 0x0 DUP1 REVERT JUMPDEST POP PUSH2 0x26D PUSH2 0x1A06 JUMP JUMPDEST PUSH1 0x40 MLOAD PUSH2 0x27A SWAP2 SWAP1 PUSH2 0x43C5 JUMP JUMPDEST PUSH1 0x40 MLOAD DUP1 SWAP2 SUB SWAP1 RETURN JUMPDEST PUSH2 0x29D PUSH1 0x4 DUP1 CALLDATASIZE SUB DUP2 ADD SWAP1 PUSH2 0x298 SWAP2 SWAP1 PUSH2 0x3EBD JUMP JUMPDEST PUSH2 0x1A0B JUMP JUMPDEST STOP JUMPDEST CALLVALUE DUP1 ISZERO PUSH2 0x2AB JUMPI PUSH1 0x0 DUP1 REVERT JUMPDEST POP PUSH2 0x2C6 PUSH1 0x4 DUP1 CALLDATASIZE SUB DUP2 ADD SWAP1 PUSH2 0x2C1 SWAP2 SWAP1 PUSH2 0x3D50 JUMP JUMPDEST PUSH2 0x2AC2 JUMP JUMPDEST STOP JUMPDEST PUSH2 0x2E2 PUSH1 0x4 DUP1 CALLDATASIZE SUB DUP2 ADD SWAP1 PUSH2 0x2DD SWAP2 SWAP1 PUSH2 0x3D7D JUMP JUMPDEST PUSH2 0x2B5D JUMP JUMPDEST STOP JUMPDEST PUSH2 0x2EC PUSH2 0x2D98 JUMP JUMPDEST STOP JUMPDEST CALLVALUE DUP1 ISZERO PUSH2 0x2FA JUMPI PUSH1 0x0 DUP1 REVERT JUMPDEST POP PUSH2 0x303 PUSH2 0x2F76 JUMP JUMPDEST PUSH1 0x40 MLOAD PUSH2 0x310 SWAP2 SWAP1 PUSH2 0x40FB JUMP JUMPDEST PUSH1 0x40 MLOAD DUP1 SWAP2 SUB SWAP1 RETURN JUMPDEST CALLVALUE DUP1 ISZERO PUSH2 0x325 JUMPI PUSH1 0x0 DUP1 REVERT JUMPDEST POP PUSH2 0x340 PUSH1 0x4 DUP1 CALLDATASIZE SUB DUP2 ADD SWAP1 PUSH2 0x33B SWAP2 SWAP1 PUSH2 0x3DEA JUMP JUMPDEST PUSH2 0x2F9C JUMP JUMPDEST PUSH1 0x40 MLOAD PUSH2 0x34D SWAP2 SWAP1 PUSH2 0x43C5 JUMP JUMPDEST PUSH1 0x40 MLOAD DUP1 SWAP2 SUB SWAP1 RETURN JUMPDEST PUSH2 0x370 PUSH1 0x4 DUP1 CALLDATASIZE SUB DUP2 ADD SWAP1 PUSH2 0x36B SWAP2 SWAP1 PUSH2 0x3F24 JUMP JUMPDEST PUSH2 0x2FCB JUMP JUMPDEST STOP JUMPDEST CALLVALUE DUP1 ISZERO PUSH2 0x37E JUMPI PUSH1 0x0 DUP1 REVERT JUMPDEST POP PUSH2 0x387 PUSH2 0x3326 JUMP JUMPDEST PUSH1 0x40 MLOAD PUSH2 0x394 SWAP2 SWAP1 PUSH2 0x43C5 JUMP JUMPDEST PUSH1 0x40 MLOAD DUP1 SWAP2 SUB SWAP1 RETURN JUMPDEST CALLVALUE DUP1 ISZERO PUSH2 0x3A9 JUMPI PUSH1 0x0 DUP1 REVERT JUMPDEST POP PUSH2 0x3B2 PUSH2 0x332B JUMP JUMPDEST PUSH1 0x40 MLOAD PUSH2 0x3BF SWAP2 SWAP1 PUSH2 0x43C5 JUMP JUMPDEST PUSH1 0x40 MLOAD DUP1 SWAP2 SUB SWAP1 RETURN JUMPDEST CALLVALUE DUP1 ISZERO PUSH2 0x3D4 JUMPI PUSH1 0x0 DUP1 REVERT JUMPDEST POP PUSH2 0x3EF PUSH1 0x4 DUP1 CALLDATASIZE SUB DUP2 ADD SWAP1 PUSH2 0x3EA SWAP2 SWAP1 PUSH2 0x3E2A JUMP JUMPDEST PUSH2 0x3330 JUMP JUMPDEST PUSH1 0x40 MLOAD PUSH2 0x3FC SWAP2 SWAP1 PUSH2 0x4381 JUMP JUMPDEST PUSH1 0x40 MLOAD DUP1 SWAP2 SUB SWAP1 RETURN JUMPDEST CALLVALUE DUP1 ISZERO PUSH2 0x411 JUMPI PUSH1 0x0 DUP1 REVERT JUMPDEST POP PUSH2 0x41A PUSH2 0x3362 JUMP JUMPDEST PUSH1 0x40 MLOAD PUSH2 0x427 SWAP2 SWAP1 PUSH2 0x43C5 JUMP JUMPDEST PUSH1 0x40 MLOAD DUP1 SWAP2 SUB SWAP1 RETURN JUMPDEST CALLVALUE DUP1 ISZERO PUSH2 0x43C JUMPI PUSH1 0x0 DUP1 REVERT JUMPDEST POP PUSH2 0x445 PUSH2 0x3375 JUMP JUMPDEST PUSH1 0x40 MLOAD PUSH2 0x452 SWAP2 SWAP1 PUSH2 0x4381 JUMP JUMPDEST PUSH1 0x40 MLOAD DUP1 SWAP2 SUB SWAP1 RETURN JUMPDEST CALLVALUE DUP1 ISZERO PUSH2 0x467 JUMPI PUSH1 0x0 DUP1 REVERT JUMPDEST POP PUSH2 0x470 PUSH2 0x337F JUMP JUMPDEST PUSH1 0x40 MLOAD PUSH2 0x47D SWAP2 SWAP1 PUSH2 0x43C5 JUMP JUMPDEST PUSH1 0x40 MLOAD DUP1 SWAP2 SUB SWAP1 RETURN JUMPDEST CALLVALUE DUP1 ISZERO PUSH2 0x492 JUMPI PUSH1 0x0 DUP1 REVERT JUMPDEST POP PUSH2 0x4AD PUSH1 0x4 DUP1 CALLDATASIZE SUB DUP2 ADD SWAP1 PUSH2 0x4A8 SWAP2 SWAP1 PUSH2 0x3DEA JUMP JUMPDEST PUSH2 0x3384 JUMP JUMPDEST PUSH1 0x40 MLOAD PUSH2 0x4BA SWAP2 SWAP1 PUSH2 0x4381 JUMP JUMPDEST PUSH1 0x40 MLOAD DUP1 SWAP2 SUB SWAP1 RETURN JUMPDEST CALLVALUE DUP1 ISZERO PUSH2 0x4CF JUMPI PUSH1 0x0 DUP1 REVERT JUMPDEST POP PUSH2 0x4EA PUSH1 0x4 DUP1 CALLDATASIZE SUB DUP2 ADD SWAP1 PUSH2 0x4E5 SWAP2 SWAP1 PUSH2 0x3DBD JUMP JUMPDEST PUSH2 0x33A9 JUMP JUMPDEST PUSH1 0x40 MLOAD PUSH2 0x4F7 SWAP2 SWAP1 PUSH2 0x40FB JUMP JUMPDEST PUSH1 0x40 MLOAD DUP1 SWAP2 SUB SWAP1 RETURN JUMPDEST CALLVALUE DUP1 ISZERO PUSH2 0x50C JUMPI PUSH1 0x0 DUP1 REVERT JUMPDEST POP PUSH2 0x527 PUSH1 0x4 DUP1 CALLDATASIZE SUB DUP2 ADD SWAP1 PUSH2 0x522 SWAP2 SWAP1 PUSH2 0x3E7D JUMP JUMPDEST PUSH2 0x33DC JUMP JUMPDEST PUSH1 0x40 MLOAD PUSH2 0x537 SWAP5 SWAP4 SWAP3 SWAP2 SWAP1 PUSH2 0x427C JUMP JUMPDEST PUSH1 0x40 MLOAD DUP1 SWAP2 SUB SWAP1 RETURN JUMPDEST CALLVALUE DUP1 ISZERO PUSH2 0x54C JUMPI PUSH1 0x0 DUP1 REVERT JUMPDEST POP PUSH2 0x567 PUSH1 0x4 DUP1 CALLDATASIZE SUB DUP2 ADD SWAP1 PUSH2 0x562 SWAP2 SWAP1 PUSH2 0x3D50 JUMP JUMPDEST PUSH2 0x345F JUMP JUMPDEST PUSH1 0x40 MLOAD PUSH2 0x574 SWAP2 SWAP1 PUSH2 0x4381 JUMP JUMPDEST PUSH1 0x40 MLOAD DUP1 SWAP2 SUB SWAP1 RETURN JUMPDEST CALLVALUE DUP1 ISZERO PUSH2 0x589 JUMPI PUSH1 0x0 DUP1 REVERT JUMPDEST POP PUSH2 0x592 PUSH2 0x3477 JUMP JUMPDEST PUSH1 0x40 MLOAD PUSH2 0x59F SWAP2 SWAP1 PUSH2 0x43C5 JUMP JUMPDEST PUSH1 0x40 MLOAD DUP1 SWAP2 SUB SWAP1 RETURN JUMPDEST CALLVALUE DUP1 ISZERO PUSH2 0x5B4 JUMPI PUSH1 0x0 DUP1 REVERT JUMPDEST POP PUSH2 0x5CF PUSH1 0x4 DUP1 CALLDATASIZE SUB DUP2 ADD SWAP1 PUSH2 0x5CA SWAP2 SWAP1 PUSH2 0x3DEA JUMP JUMPDEST PUSH2 0x347C JUMP JUMPDEST PUSH1 0x40 MLOAD PUSH2 0x5DC SWAP2 SWAP1 PUSH2 0x4381 JUMP JUMPDEST PUSH1 0x40 MLOAD DUP1 SWAP2 SUB SWAP1 RETURN JUMPDEST CALLVALUE DUP1 ISZERO PUSH2 0x5F1 JUMPI PUSH1 0x0 DUP1 REVERT JUMPDEST POP PUSH2 0x5FA PUSH2 0x34A1 JUMP JUMPDEST PUSH1 0x40 MLOAD PUSH2 0x607 SWAP2 SWAP1 PUSH2 0x43C5 JUMP JUMPDEST PUSH1 0x40 MLOAD DUP1 SWAP2 SUB SWAP1 RETURN JUMPDEST CALLVALUE DUP1 ISZERO PUSH2 0x61C JUMPI PUSH1 0x0 DUP1 REVERT JUMPDEST POP PUSH2 0x625 PUSH2 0x34A6 JUMP JUMPDEST PUSH1 0x40 MLOAD PUSH2 0x632 SWAP2 SWAP1 PUSH2 0x4381 JUMP JUMPDEST PUSH1 0x40 MLOAD DUP1 SWAP2 SUB SWAP1 RETURN JUMPDEST CALLVALUE DUP1 ISZERO PUSH2 0x647 JUMPI PUSH1 0x0 DUP1 REVERT JUMPDEST POP PUSH2 0x650 PUSH2 0x34AC JUMP JUMPDEST PUSH1 0x40 MLOAD PUSH2 0x65D SWAP2 SWAP1 PUSH2 0x40FB JUMP JUMPDEST PUSH1 0x40 MLOAD DUP1 SWAP2 SUB SWAP1 RETURN JUMPDEST CALLVALUE DUP1 ISZERO PUSH2 0x672 JUMPI PUSH1 0x0 DUP1 REVERT JUMPDEST POP PUSH2 0x67B PUSH2 0x34D0 JUMP JUMPDEST PUSH1 0x40 MLOAD PUSH2 0x688 SWAP2 SWAP1 PUSH2 0x43C5 JUMP JUMPDEST PUSH1 0x40 MLOAD DUP1 SWAP2 SUB SWAP1 RETURN JUMPDEST CALLVALUE DUP1 ISZERO PUSH2 0x69D JUMPI PUSH1 0x0 DUP1 REVERT JUMPDEST POP PUSH2 0x6A6 PUSH2 0x34E3 JUMP JUMPDEST PUSH1 0x40 MLOAD PUSH2 0x6B3 SWAP2 SWAP1 PUSH2 0x43C5 JUMP JUMPDEST PUSH1 0x40 MLOAD DUP1 SWAP2 SUB SWAP1 RETURN JUMPDEST CALLVALUE DUP1 ISZERO PUSH2 0x6C8 JUMPI PUSH1 0x0 DUP1 REVERT JUMPDEST POP PUSH2 0x6E3 PUSH1 0x4 DUP1 CALLDATASIZE SUB DUP2 ADD SWAP1 PUSH2 0x6DE SWAP2 SWAP1 PUSH2 0x3DBD JUMP JUMPDEST PUSH2 0x34E8 JUMP JUMPDEST PUSH1 0x40 MLOAD PUSH2 0x6F0 SWAP2 SWAP1 PUSH2 0x43C5 JUMP JUMPDEST PUSH1 0x40 MLOAD DUP1 SWAP2 SUB SWAP1 RETURN JUMPDEST CALLVALUE DUP1 ISZERO PUSH2 0x705 JUMPI PUSH1 0x0 DUP1 REVERT JUMPDEST POP PUSH2 0x720 PUSH1 0x4 DUP1 CALLDATASIZE SUB DUP2 ADD SWAP1 PUSH2 0x71B SWAP2 SWAP1 PUSH2 0x3DBD JUMP JUMPDEST PUSH2 0x3508 JUMP JUMPDEST PUSH1 0x40 MLOAD PUSH2 0x72D SWAP2 SWAP1 PUSH2 0x4381 JUMP JUMPDEST PUSH1 0x40 MLOAD DUP1 SWAP2 SUB SWAP1 RETURN JUMPDEST CALLVALUE DUP1 ISZERO PUSH2 0x742 JUMPI PUSH1 0x0 DUP1 REVERT JUMPDEST POP PUSH2 0x75D PUSH1 0x4 DUP1 CALLDATASIZE SUB DUP2 ADD SWAP1 PUSH2 0x758 SWAP2 SWAP1 PUSH2 0x3DEA JUMP JUMPDEST PUSH2 0x3520 JUMP JUMPDEST PUSH1 0x40 MLOAD PUSH2 0x76A SWAP2 SWAP1 PUSH2 0x4261 JUMP JUMPDEST PUSH1 0x40 MLOAD DUP1 SWAP2 SUB SWAP1 RETURN JUMPDEST PUSH1 0x84 SLOAD DUP2 LT PUSH2 0x781 JUMPI PUSH1 0x0 DUP1 REVERT JUMPDEST PUSH1 0x1 ISZERO ISZERO PUSH1 0x87 PUSH1 0x0 DUP4 DUP2 MSTORE PUSH1 0x20 ADD SWAP1 DUP2 MSTORE PUSH1 0x20 ADD PUSH1 0x0 KECCAK256 PUSH1 0x0 CALLER PUSH20 0xFFFFFFFFFFFFFFFFFFFFFFFFFFFFFFFFFFFFFFFF AND PUSH20 0xFFFFFFFFFFFFFFFFFFFFFFFFFFFFFFFFFFFFFFFF AND DUP2 MSTORE PUSH1 0x20 ADD SWAP1 DUP2 MSTORE PUSH1 0x20 ADD PUSH1 0x0 KECCAK256 PUSH1 0x0 SWAP1 SLOAD SWAP1 PUSH2 0x100 EXP SWAP1 DIV PUSH1 0xFF AND ISZERO ISZERO EQ ISZERO PUSH2 0x7F0 JUMPI PUSH1 0x0 DUP1 REVERT JUMPDEST PUSH1 0x1 PUSH1 0x87 PUSH1 0x0 DUP4 DUP2 MSTORE PUSH1 0x20 ADD SWAP1 DUP2 MSTORE PUSH1 0x20 ADD PUSH1 0x0 KECCAK256 PUSH1 0x0 CALLER PUSH20 0xFFFFFFFFFFFFFFFFFFFFFFFFFFFFFFFFFFFFFFFF AND PUSH20 0xFFFFFFFFFFFFFFFFFFFFFFFFFFFFFFFFFFFFFFFF AND DUP2 MSTORE PUSH1 0x20 ADD SWAP1 DUP2 MSTORE PUSH1 0x20 ADD PUSH1 0x0 KECCAK256 PUSH1 0x0 PUSH2 0x100 EXP DUP2 SLOAD DUP2 PUSH1 0xFF MUL NOT AND SWAP1 DUP4 ISZERO ISZERO MUL OR SWAP1 SSTORE POP CALLER PUSH20 0xFFFFFFFFFFFFFFFFFFFFFFFFFFFFFFFFFFFFFFFF AND PUSH2 0x8FC PUSH1 0x89 PUSH1 0x0 DUP5 DUP2 MSTORE PUSH1 0x20 ADD SWAP1 DUP2 MSTORE PUSH1 0x20 ADD PUSH1 0x0 KECCAK256 PUSH1 0x0 CALLER PUSH20 0xFFFFFFFFFFFFFFFFFFFFFFFFFFFFFFFFFFFFFFFF AND PUSH20 0xFFFFFFFFFFFFFFFFFFFFFFFFFFFFFFFFFFFFFFFF AND DUP2 MSTORE PUSH1 0x20 ADD SWAP1 DUP2 MSTORE PUSH1 0x20 ADD PUSH1 0x0 KECCAK256 SLOAD PUSH1 0x88 PUSH1 0x0 DUP6 DUP2 MSTORE PUSH1 0x20 ADD SWAP1 DUP2 MSTORE PUSH1 0x20 ADD PUSH1 0x0 KECCAK256 PUSH1 0x0 CALLER PUSH20 0xFFFFFFFFFFFFFFFFFFFFFFFFFFFFFFFFFFFFFFFF AND PUSH20 0xFFFFFFFFFFFFFFFFFFFFFFFFFFFFFFFFFFFFFFFF AND DUP2 MSTORE PUSH1 0x20 ADD SWAP1 DUP2 MSTORE PUSH1 0x20 ADD PUSH1 0x0 KECCAK256 SLOAD PUSH2 0x91F SWAP2 SWAP1 PUSH2 0x43F1 JUMP JUMPDEST PUSH1 0x8A PUSH1 0x0 DUP6 DUP2 MSTORE PUSH1 0x20 ADD SWAP1 DUP2 MSTORE PUSH1 0x20 ADD PUSH1 0x0 KECCAK256 PUSH1 0x0 CALLER PUSH20 0xFFFFFFFFFFFFFFFFFFFFFFFFFFFFFFFFFFFFFFFF AND PUSH20 0xFFFFFFFFFFFFFFFFFFFFFFFFFFFFFFFFFFFFFFFF AND DUP2 MSTORE PUSH1 0x20 ADD SWAP1 DUP2 MSTORE PUSH1 0x20 ADD PUSH1 0x0 KECCAK256 PUSH1 0x0 PUSH1 0x86 PUSH1 0x0 DUP8 DUP2 MSTORE PUSH1 0x20 ADD SWAP1 DUP2 MSTORE PUSH1 0x20 ADD PUSH1 0x0 KECCAK256 PUSH1 0x0 SWAP1 SLOAD SWAP1 PUSH2 0x100 EXP SWAP1 DIV PUSH20 0xFFFFFFFFFFFFFFFFFFFFFFFFFFFFFFFFFFFFFFFF AND PUSH20 0xFFFFFFFFFFFFFFFFFFFFFFFFFFFFFFFFFFFFFFFF AND PUSH20 0xFFFFFFFFFFFFFFFFFFFFFFFFFFFFFFFFFFFFFFFF AND DUP2 MSTORE PUSH1 0x20 ADD SWAP1 DUP2 MSTORE PUSH1 0x20 ADD PUSH1 0x0 KECCAK256 SLOAD PUSH1 0x85 PUSH1 0x0 DUP7 DUP2 MSTORE PUSH1 0x20 ADD SWAP1 DUP2 MSTORE PUSH1 0x20 ADD PUSH1 0x0 KECCAK256 SLOAD PUSH2 0x9FE SWAP2 SWAP1 PUSH2 0x451C JUMP JUMPDEST PUSH2 0xA08 SWAP2 SWAP1 PUSH2 0x44AF JUMP JUMPDEST SWAP1 DUP2 ISZERO MUL SWAP1 PUSH1 0x40 MLOAD PUSH1 0x0 PUSH1 0x40 MLOAD DUP1 DUP4 SUB DUP2 DUP6 DUP9 DUP9 CALL SWAP4 POP POP POP POP ISZERO DUP1 ISZERO PUSH2 0xA33 JUMPI RETURNDATASIZE PUSH1 0x0 DUP1 RETURNDATACOPY RETURNDATASIZE PUSH1 0x0 REVERT JUMPDEST POP POP JUMP JUMPDEST PUSH1 0x83 PUSH1 0x0 SWAP1 SLOAD SWAP1 PUSH2 0x100 EXP SWAP1 DIV PUSH1 0xFF AND PUSH1 0xFF AND DUP5 PUSH1 0xFF AND LT DUP1 ISZERO PUSH2 0xA6F JUMPI POP PUSH1 0x83 PUSH1 0x1 SWAP1 SLOAD SWAP1 PUSH2 0x100 EXP SWAP1 DIV PUSH1 0xFF AND PUSH1 0xFF AND DUP4 PUSH1 0xFF AND LT JUMPDEST PUSH2 0xA78 JUMPI PUSH1 0x0 DUP1 REVERT JUMPDEST PUSH1 0x83 PUSH1 0x0 SWAP1 SLOAD SWAP1 PUSH2 0x100 EXP SWAP1 DIV PUSH1 0xFF AND PUSH1 0xFF AND DUP3 PUSH1 0xFF AND LT DUP1 ISZERO PUSH2 0xAB0 JUMPI POP PUSH1 0x83 PUSH1 0x1 SWAP1 SLOAD SWAP1 PUSH2 0x100 EXP SWAP1 DIV PUSH1 0xFF AND PUSH1 0xFF AND DUP2 PUSH1 0xFF AND LT JUMPDEST PUSH2 0xAB9 JUMPI PUSH1 0x0 DUP1 REVERT JUMPDEST PUSH1 0x1 DUP2 PUSH1 0xFF AND DUP5 PUSH1 0xFF AND LT PUSH2 0xAD9 JUMPI DUP2 DUP5 PUSH2 0xAD4 SWAP2 SWAP1 PUSH2 0x45E5 JUMP JUMPDEST PUSH2 0xAE6 JUMP JUMPDEST DUP4 DUP3 PUSH2 0xAE5 SWAP2 SWAP1 PUSH2 0x45E5 JUMP JUMPDEST JUMPDEST DUP4 PUSH1 0xFF AND DUP7 PUSH1 0xFF AND LT PUSH2 0xB04 JUMPI DUP4 DUP7 PUSH2 0xAFF SWAP2 SWAP1 PUSH2 0x45E5 JUMP JUMPDEST PUSH2 0xB11 JUMP JUMPDEST DUP6 DUP5 PUSH2 0xB10 SWAP2 SWAP1 PUSH2 0x45E5 JUMP JUMPDEST JUMPDEST PUSH2 0xB1B SWAP2 SWAP1 PUSH2 0x4447 JUMP JUMPDEST PUSH1 0xFF AND EQ PUSH2 0xB28 JUMPI PUSH1 0x0 DUP1 REVERT JUMPDEST PUSH1 0x0 PUSH1 0x3 DUP5 PUSH1 0xFF AND PUSH1 0x8 DUP2 LT PUSH2 0xB41 JUMPI PUSH2 0xB40 PUSH2 0x475F JUMP JUMPDEST JUMPDEST PUSH1 0x10 MUL ADD DUP6 PUSH1 0xFF AND PUSH1 0x8 DUP2 LT PUSH2 0xB5A JUMPI PUSH2 0xB59 PUSH2 0x475F JUMP JUMPDEST JUMPDEST PUSH1 0x2 MUL ADD SWAP1 POP PUSH1 0x0 PUSH1 0x3 DUP4 PUSH1 0xFF AND PUSH1 0x8 DUP2 LT PUSH2 0xB79 JUMPI PUSH2 0xB78 PUSH2 0x475F JUMP JUMPDEST JUMPDEST PUSH1 0x10 MUL ADD DUP5 PUSH1 0xFF AND PUSH1 0x8 DUP2 LT PUSH2 0xB92 JUMPI PUSH2 0xB91 PUSH2 0x475F JUMP JUMPDEST JUMPDEST PUSH1 0x2 MUL ADD SWAP1 POP CALLER PUSH20 0xFFFFFFFFFFFFFFFFFFFFFFFFFFFFFFFFFFFFFFFF AND DUP3 PUSH1 0x0 ADD PUSH1 0x2 SWAP1 SLOAD SWAP1 PUSH2 0x100 EXP SWAP1 DIV PUSH20 0xFFFFFFFFFFFFFFFFFFFFFFFFFFFFFFFFFFFFFFFF AND PUSH20 0xFFFFFFFFFFFFFFFFFFFFFFFFFFFFFFFFFFFFFFFF AND EQ PUSH2 0xBF4 JUMPI PUSH1 0x0 DUP1 REVERT JUMPDEST NUMBER DUP3 PUSH1 0x1 ADD SLOAD LT PUSH2 0xC3A JUMPI PUSH1 0x40 MLOAD PUSH32 0x8C379A000000000000000000000000000000000000000000000000000000000 DUP2 MSTORE PUSH1 0x4 ADD PUSH2 0xC31 SWAP1 PUSH2 0x42E1 JUMP JUMPDEST PUSH1 0x40 MLOAD DUP1 SWAP2 SUB SWAP1 REVERT JUMPDEST PUSH1 0x0 PUSH20 0xFFFFFFFFFFFFFFFFFFFFFFFFFFFFFFFFFFFFFFFF AND DUP2 PUSH1 0x0 ADD PUSH1 0x2 SWAP1 SLOAD SWAP1 PUSH2 0x100 EXP SWAP1 DIV PUSH20 0xFFFFFFFFFFFFFFFFFFFFFFFFFFFFFFFFFFFFFFFF AND PUSH20 0xFFFFFFFFFFFFFFFFFFFFFFFFFFFFFFFFFFFFFFFF AND EQ ISZERO PUSH2 0xE3A JUMPI DUP2 PUSH1 0x3 DUP5 PUSH1 0xFF AND PUSH1 0x8 DUP2 LT PUSH2 0xCAB JUMPI PUSH2 0xCAA PUSH2 0x475F JUMP JUMPDEST JUMPDEST PUSH1 0x10 MUL ADD DUP6 PUSH1 0xFF AND PUSH1 0x8 DUP2 LT PUSH2 0xCC4 JUMPI PUSH2 0xCC3 PUSH2 0x475F JUMP JUMPDEST JUMPDEST PUSH1 0x2 MUL ADD PUSH1 0x0 DUP3 ADD PUSH1 0x0 SWAP1 SLOAD SWAP1 PUSH2 0x100 EXP SWAP1 DIV PUSH1 0xFF AND DUP2 PUSH1 0x0 ADD PUSH1 0x0 PUSH2 0x100 EXP DUP2 SLOAD DUP2 PUSH1 0xFF MUL NOT AND SWAP1 DUP4 PUSH1 0x5 DUP2 GT ISZERO PUSH2 0xD00 JUMPI PUSH2 0xCFF PUSH2 0x4730 JUMP JUMPDEST JUMPDEST MUL OR SWAP1 SSTORE POP PUSH1 0x0 DUP3 ADD PUSH1 0x1 SWAP1 SLOAD SWAP1 PUSH2 0x100 EXP SWAP1 DIV PUSH1 0xFF AND DUP2 PUSH1 0x0 ADD PUSH1 0x1 PUSH2 0x100 EXP DUP2 SLOAD DUP2 PUSH1 0xFF MUL NOT AND SWAP1 DUP4 PUSH1 0xFF AND MUL OR SWAP1 SSTORE POP PUSH1 0x0 DUP3 ADD PUSH1 0x2 SWAP1 SLOAD SWAP1 PUSH2 0x100 EXP SWAP1 DIV PUSH20 0xFFFFFFFFFFFFFFFFFFFFFFFFFFFFFFFFFFFFFFFF AND DUP2 PUSH1 0x0 ADD PUSH1 0x2 PUSH2 0x100 EXP DUP2 SLOAD DUP2 PUSH20 0xFFFFFFFFFFFFFFFFFFFFFFFFFFFFFFFFFFFFFFFF MUL NOT AND SWAP1 DUP4 PUSH20 0xFFFFFFFFFFFFFFFFFFFFFFFFFFFFFFFFFFFFFFFF AND MUL OR SWAP1 SSTORE POP PUSH1 0x1 DUP3 ADD SLOAD DUP2 PUSH1 0x1 ADD SSTORE SWAP1 POP POP PUSH1 0x3 DUP6 PUSH1 0xFF AND PUSH1 0x8 DUP2 LT PUSH2 0xDBE JUMPI PUSH2 0xDBD PUSH2 0x475F JUMP JUMPDEST JUMPDEST PUSH1 0x10 MUL ADD DUP7 PUSH1 0xFF AND PUSH1 0x8 DUP2 LT PUSH2 0xDD7 JUMPI PUSH2 0xDD6 PUSH2 0x475F JUMP JUMPDEST JUMPDEST PUSH1 0x2 MUL ADD PUSH1 0x0 DUP1 DUP3 ADD PUSH1 0x0 PUSH2 0x100 EXP DUP2 SLOAD SWAP1 PUSH1 0xFF MUL NOT AND SWAP1 SSTORE PUSH1 0x0 DUP3 ADD PUSH1 0x1 PUSH2 0x100 EXP DUP2 SLOAD SWAP1 PUSH1 0xFF MUL NOT AND SWAP1 SSTORE PUSH1 0x0 DUP3 ADD PUSH1 0x2 PUSH2 0x100 EXP DUP2 SLOAD SWAP1 PUSH20 0xFFFFFFFFFFFFFFFFFFFFFFFFFFFFFFFFFFFFFFFF MUL NOT AND SWAP1 SSTORE PUSH1 0x1 DUP3 ADD PUSH1 0x0 SWAP1 SSTORE POP POP PUSH2 0x1921 JUMP JUMPDEST CALLER PUSH20 0xFFFFFFFFFFFFFFFFFFFFFFFFFFFFFFFFFFFFFFFF AND DUP2 PUSH1 0x0 ADD PUSH1 0x2 SWAP1 SLOAD SWAP1 PUSH2 0x100 EXP SWAP1 DIV PUSH20 0xFFFFFFFFFFFFFFFFFFFFFFFFFFFFFFFFFFFFFFFF AND PUSH20 0xFFFFFFFFFFFFFFFFFFFFFFFFFFFFFFFFFFFFFFFF AND EQ ISZERO PUSH2 0x1098 JUMPI DUP2 PUSH1 0x0 ADD PUSH1 0x0 SWAP1 SLOAD SWAP1 PUSH2 0x100 EXP SWAP1 DIV PUSH1 0xFF AND PUSH1 0x5 DUP2 GT ISZERO PUSH2 0xEB6 JUMPI PUSH2 0xEB5 PUSH2 0x4730 JUMP JUMPDEST JUMPDEST DUP2 PUSH1 0x0 ADD PUSH1 0x0 SWAP1 SLOAD SWAP1 PUSH2 0x100 EXP SWAP1 DIV PUSH1 0xFF AND PUSH1 0x5 DUP2 GT ISZERO PUSH2 0xEDA JUMPI PUSH2 0xED9 PUSH2 0x4730 JUMP JUMPDEST JUMPDEST EQ PUSH2 0xEE4 JUMPI PUSH1 0x0 DUP1 REVERT JUMPDEST PUSH1 0x0 DUP3 PUSH1 0x0 ADD PUSH1 0x1 SWAP1 SLOAD SWAP1 PUSH2 0x100 EXP SWAP1 DIV PUSH1 0xFF AND DUP3 PUSH1 0x0 ADD PUSH1 0x1 SWAP1 SLOAD SWAP1 PUSH2 0x100 EXP SWAP1 DIV PUSH1 0xFF AND PUSH2 0xF14 SWAP2 SWAP1 PUSH2 0x4447 JUMP JUMPDEST SWAP1 POP PUSH1 0x1E PUSH1 0xFF AND DUP2 PUSH1 0xFF AND GT ISZERO PUSH2 0xF60 JUMPI PUSH1 0x40 MLOAD PUSH32 0x8C379A000000000000000000000000000000000000000000000000000000000 DUP2 MSTORE PUSH1 0x4 ADD PUSH2 0xF57 SWAP1 PUSH2 0x42C1 JUMP JUMPDEST PUSH1 0x40 MLOAD DUP1 SWAP2 SUB SWAP1 REVERT JUMPDEST DUP1 DUP3 PUSH1 0x0 ADD PUSH1 0x1 PUSH2 0x100 EXP DUP2 SLOAD DUP2 PUSH1 0xFF MUL NOT AND SWAP1 DUP4 PUSH1 0xFF AND MUL OR SWAP1 SSTORE POP PUSH1 0x1 PUSH1 0x8B PUSH1 0x0 PUSH1 0x84 SLOAD DUP2 MSTORE PUSH1 0x20 ADD SWAP1 DUP2 MSTORE PUSH1 0x20 ADD PUSH1 0x0 KECCAK256 PUSH1 0x0 CALLER PUSH20 0xFFFFFFFFFFFFFFFFFFFFFFFFFFFFFFFFFFFFFFFF AND PUSH20 0xFFFFFFFFFFFFFFFFFFFFFFFFFFFFFFFFFFFFFFFF AND DUP2 MSTORE PUSH1 0x20 ADD SWAP1 DUP2 MSTORE PUSH1 0x20 ADD PUSH1 0x0 KECCAK256 PUSH1 0x0 DUP3 DUP3 DUP3 SWAP1 SLOAD SWAP1 PUSH2 0x100 EXP SWAP1 DIV PUSH1 0xFF AND PUSH2 0xFEC SWAP2 SWAP1 PUSH2 0x45E5 JUMP JUMPDEST SWAP3 POP PUSH2 0x100 EXP DUP2 SLOAD DUP2 PUSH1 0xFF MUL NOT AND SWAP1 DUP4 PUSH1 0xFF AND MUL OR SWAP1 SSTORE POP PUSH1 0x3 DUP7 PUSH1 0xFF AND PUSH1 0x8 DUP2 LT PUSH2 0x101B JUMPI PUSH2 0x101A PUSH2 0x475F JUMP JUMPDEST JUMPDEST PUSH1 0x10 MUL ADD DUP8 PUSH1 0xFF AND PUSH1 0x8 DUP2 LT PUSH2 0x1034 JUMPI PUSH2 0x1033 PUSH2 0x475F JUMP JUMPDEST JUMPDEST PUSH1 0x2 MUL ADD PUSH1 0x0 DUP1 DUP3 ADD PUSH1 0x0 PUSH2 0x100 EXP DUP2 SLOAD SWAP1 PUSH1 0xFF MUL NOT AND SWAP1 SSTORE PUSH1 0x0 DUP3 ADD PUSH1 0x1 PUSH2 0x100 EXP DUP2 SLOAD SWAP1 PUSH1 0xFF MUL NOT AND SWAP1 SSTORE PUSH1 0x0 DUP3 ADD PUSH1 0x2 PUSH2 0x100 EXP DUP2 SLOAD SWAP1 PUSH20 0xFFFFFFFFFFFFFFFFFFFFFFFFFFFFFFFFFFFFFFFF MUL NOT AND SWAP1 SSTORE PUSH1 0x1 DUP3 ADD PUSH1 0x0 SWAP1 SSTORE POP POP POP PUSH2 0x1920 JUMP JUMPDEST PUSH1 0x0 PUSH2 0x122A DUP4 PUSH1 0x40 MLOAD DUP1 PUSH1 0x80 ADD PUSH1 0x40 MSTORE SWAP1 DUP2 PUSH1 0x0 DUP3 ADD PUSH1 0x0 SWAP1 SLOAD SWAP1 PUSH2 0x100 EXP SWAP1 DIV PUSH1 0xFF AND PUSH1 0x5 DUP2 GT ISZERO PUSH2 0x10CE JUMPI PUSH2 0x10CD PUSH2 0x4730 JUMP JUMPDEST JUMPDEST PUSH1 0x5 DUP2 GT ISZERO PUSH2 0x10E0 JUMPI PUSH2 0x10DF PUSH2 0x4730 JUMP JUMPDEST JUMPDEST DUP2 MSTORE PUSH1 0x20 ADD PUSH1 0x0 DUP3 ADD PUSH1 0x1 SWAP1 SLOAD SWAP1 PUSH2 0x100 EXP SWAP1 DIV PUSH1 0xFF AND PUSH1 0xFF AND PUSH1 0xFF AND DUP2 MSTORE PUSH1 0x20 ADD PUSH1 0x0 DUP3 ADD PUSH1 0x2 SWAP1 SLOAD SWAP1 PUSH2 0x100 EXP SWAP1 DIV PUSH20 0xFFFFFFFFFFFFFFFFFFFFFFFFFFFFFFFFFFFFFFFF AND PUSH20 0xFFFFFFFFFFFFFFFFFFFFFFFFFFFFFFFFFFFFFFFF AND PUSH20 0xFFFFFFFFFFFFFFFFFFFFFFFFFFFFFFFFFFFFFFFF AND DUP2 MSTORE PUSH1 0x20 ADD PUSH1 0x1 DUP3 ADD SLOAD DUP2 MSTORE POP POP DUP4 PUSH1 0x40 MLOAD DUP1 PUSH1 0x80 ADD PUSH1 0x40 MSTORE SWAP1 DUP2 PUSH1 0x0 DUP3 ADD PUSH1 0x0 SWAP1 SLOAD SWAP1 PUSH2 0x100 EXP SWAP1 DIV PUSH1 0xFF AND PUSH1 0x5 DUP2 GT ISZERO PUSH2 0x1192 JUMPI PUSH2 0x1191 PUSH2 0x4730 JUMP JUMPDEST JUMPDEST PUSH1 0x5 DUP2 GT ISZERO PUSH2 0x11A4 JUMPI PUSH2 0x11A3 PUSH2 0x4730 JUMP JUMPDEST JUMPDEST DUP2 MSTORE PUSH1 0x20 ADD PUSH1 0x0 DUP3 ADD PUSH1 0x1 SWAP1 SLOAD SWAP1 PUSH2 0x100 EXP SWAP1 DIV PUSH1 0xFF AND PUSH1 0xFF AND PUSH1 0xFF AND DUP2 MSTORE PUSH1 0x20 ADD PUSH1 0x0 DUP3 ADD PUSH1 0x2 SWAP1 SLOAD SWAP1 PUSH2 0x100 EXP SWAP1 DIV PUSH20 0xFFFFFFFFFFFFFFFFFFFFFFFFFFFFFFFFFFFFFFFF AND PUSH20 0xFFFFFFFFFFFFFFFFFFFFFFFFFFFFFFFFFFFFFFFF AND PUSH20 0xFFFFFFFFFFFFFFFFFFFFFFFFFFFFFFFFFFFFFFFF AND DUP2 MSTORE PUSH1 0x20 ADD PUSH1 0x1 DUP3 ADD SLOAD DUP2 MSTORE POP POP PUSH2 0x354F JUMP JUMPDEST SWAP1 POP PUSH1 0x0 PUSH2 0x13BE DUP4 PUSH1 0x40 MLOAD DUP1 PUSH1 0x80 ADD PUSH1 0x40 MSTORE SWAP1 DUP2 PUSH1 0x0 DUP3 ADD PUSH1 0x0 SWAP1 SLOAD SWAP1 PUSH2 0x100 EXP SWAP1 DIV PUSH1 0xFF AND PUSH1 0x5 DUP2 GT ISZERO PUSH2 0x1262 JUMPI PUSH2 0x1261 PUSH2 0x4730 JUMP JUMPDEST JUMPDEST PUSH1 0x5 DUP2 GT ISZERO PUSH2 0x1274 JUMPI PUSH2 0x1273 PUSH2 0x4730 JUMP JUMPDEST JUMPDEST DUP2 MSTORE PUSH1 0x20 ADD PUSH1 0x0 DUP3 ADD PUSH1 0x1 SWAP1 SLOAD SWAP1 PUSH2 0x100 EXP SWAP1 DIV PUSH1 0xFF AND PUSH1 0xFF AND PUSH1 0xFF AND DUP2 MSTORE PUSH1 0x20 ADD PUSH1 0x0 DUP3 ADD PUSH1 0x2 SWAP1 SLOAD SWAP1 PUSH2 0x100 EXP SWAP1 DIV PUSH20 0xFFFFFFFFFFFFFFFFFFFFFFFFFFFFFFFFFFFFFFFF AND PUSH20 0xFFFFFFFFFFFFFFFFFFFFFFFFFFFFFFFFFFFFFFFF AND PUSH20 0xFFFFFFFFFFFFFFFFFFFFFFFFFFFFFFFFFFFFFFFF AND DUP2 MSTORE PUSH1 0x20 ADD PUSH1 0x1 DUP3 ADD SLOAD DUP2 MSTORE POP POP DUP6 PUSH1 0x40 MLOAD DUP1 PUSH1 0x80 ADD PUSH1 0x40 MSTORE SWAP1 DUP2 PUSH1 0x0 DUP3 ADD PUSH1 0x0 SWAP1 SLOAD SWAP1 PUSH2 0x100 EXP SWAP1 DIV PUSH1 0xFF AND PUSH1 0x5 DUP2 GT ISZERO PUSH2 0x1326 JUMPI PUSH2 0x1325 PUSH2 0x4730 JUMP JUMPDEST JUMPDEST PUSH1 0x5 DUP2 GT ISZERO PUSH2 0x1338 JUMPI PUSH2 0x1337 PUSH2 0x4730 JUMP JUMPDEST JUMPDEST DUP2 MSTORE PUSH1 0x20 ADD PUSH1 0x0 DUP3 ADD PUSH1 0x1 SWAP1 SLOAD SWAP1 PUSH2 0x100 EXP SWAP1 DIV PUSH1 0xFF AND PUSH1 0xFF AND PUSH1 0xFF AND DUP2 MSTORE PUSH1 0x20 ADD PUSH1 0x0 DUP3 ADD PUSH1 0x2 SWAP1 SLOAD SWAP1 PUSH2 0x100 EXP SWAP1 DIV PUSH20 0xFFFFFFFFFFFFFFFFFFFFFFFFFFFFFFFFFFFFFFFF AND PUSH20 0xFFFFFFFFFFFFFFFFFFFFFFFFFFFFFFFFFFFFFFFF AND PUSH20 0xFFFFFFFFFFFFFFFFFFFFFFFFFFFFFFFFFFFFFFFF AND DUP2 MSTORE PUSH1 0x20 ADD PUSH1 0x1 DUP3 ADD SLOAD DUP2 MSTORE POP POP PUSH2 0x354F JUMP JUMPDEST SWAP1 POP DUP3 PUSH1 0x0 ADD PUSH1 0x1 SWAP1 SLOAD SWAP1 PUSH2 0x100 EXP SWAP1 DIV PUSH1 0xFF AND PUSH1 0xFF AND DUP3 PUSH1 0xFF AND LT PUSH2 0x151C JUMPI PUSH1 0x1 PUSH1 0x8B PUSH1 0x0 PUSH1 0x84 SLOAD DUP2 MSTORE PUSH1 0x20 ADD SWAP1 DUP2 MSTORE PUSH1 0x20 ADD PUSH1 0x0 KECCAK256 PUSH1 0x0 DUP6 PUSH1 0x0 ADD PUSH1 0x2 SWAP1 SLOAD SWAP1 PUSH2 0x100 EXP SWAP1 DIV PUSH20 0xFFFFFFFFFFFFFFFFFFFFFFFFFFFFFFFFFFFFFFFF AND PUSH20 0xFFFFFFFFFFFFFFFFFFFFFFFFFFFFFFFFFFFFFFFF AND PUSH20 0xFFFFFFFFFFFFFFFFFFFFFFFFFFFFFFFFFFFFFFFF AND DUP2 MSTORE PUSH1 0x20 ADD SWAP1 DUP2 MSTORE PUSH1 0x20 ADD PUSH1 0x0 KECCAK256 PUSH1 0x0 DUP3 DUP3 DUP3 SWAP1 SLOAD SWAP1 PUSH2 0x100 EXP SWAP1 DIV PUSH1 0xFF AND PUSH2 0x1471 SWAP2 SWAP1 PUSH2 0x45E5 JUMP JUMPDEST SWAP3 POP PUSH2 0x100 EXP DUP2 SLOAD DUP2 PUSH1 0xFF MUL NOT AND SWAP1 DUP4 PUSH1 0xFF AND MUL OR SWAP1 SSTORE POP PUSH1 0x3 DUP6 PUSH1 0xFF AND PUSH1 0x8 DUP2 LT PUSH2 0x14A0 JUMPI PUSH2 0x149F PUSH2 0x475F JUMP JUMPDEST JUMPDEST PUSH1 0x10 MUL ADD DUP7 PUSH1 0xFF AND PUSH1 0x8 DUP2 LT PUSH2 0x14B9 JUMPI PUSH2 0x14B8 PUSH2 0x475F JUMP JUMPDEST JUMPDEST PUSH1 0x2 MUL ADD PUSH1 0x0 DUP1 DUP3 ADD PUSH1 0x0 PUSH2 0x100 EXP DUP2 SLOAD SWAP1 PUSH1 0xFF MUL NOT AND SWAP1 SSTORE PUSH1 0x0 DUP3 ADD PUSH1 0x1 PUSH2 0x100 EXP DUP2 SLOAD SWAP1 PUSH1 0xFF MUL NOT AND SWAP1 SSTORE PUSH1 0x0 DUP3 ADD PUSH1 0x2 PUSH2 0x100 EXP DUP2 SLOAD SWAP1 PUSH20 0xFFFFFFFFFFFFFFFFFFFFFFFFFFFFFFFFFFFFFFFF MUL NOT AND SWAP1 SSTORE PUSH1 0x1 DUP3 ADD PUSH1 0x0 SWAP1 SSTORE POP POP PUSH2 0x1555 JUMP JUMPDEST DUP2 DUP4 PUSH1 0x0 ADD PUSH1 0x1 DUP3 DUP3 DUP3 SWAP1 SLOAD SWAP1 PUSH2 0x100 EXP SWAP1 DIV PUSH1 0xFF AND PUSH2 0x153C SWAP2 SWAP1 PUSH2 0x45E5 JUMP JUMPDEST SWAP3 POP PUSH2 0x100 EXP DUP2 SLOAD DUP2 PUSH1 0xFF MUL NOT AND SWAP1 DUP4 PUSH1 0xFF AND MUL OR SWAP1 SSTORE POP JUMPDEST DUP4 PUSH1 0x0 ADD PUSH1 0x1 SWAP1 SLOAD SWAP1 PUSH2 0x100 EXP SWAP1 DIV PUSH1 0xFF AND PUSH1 0xFF AND DUP2 PUSH1 0xFF AND LT PUSH2 0x168D JUMPI PUSH1 0x1 PUSH1 0x8B PUSH1 0x0 PUSH1 0x84 SLOAD DUP2 MSTORE PUSH1 0x20 ADD SWAP1 DUP2 MSTORE PUSH1 0x20 ADD PUSH1 0x0 KECCAK256 PUSH1 0x0 CALLER PUSH20 0xFFFFFFFFFFFFFFFFFFFFFFFFFFFFFFFFFFFFFFFF AND PUSH20 0xFFFFFFFFFFFFFFFFFFFFFFFFFFFFFFFFFFFFFFFF AND DUP2 MSTORE PUSH1 0x20 ADD SWAP1 DUP2 MSTORE PUSH1 0x20 ADD PUSH1 0x0 KECCAK256 PUSH1 0x0 DUP3 DUP3 DUP3 SWAP1 SLOAD SWAP1 PUSH2 0x100 EXP SWAP1 DIV PUSH1 0xFF AND PUSH2 0x15E2 SWAP2 SWAP1 PUSH2 0x45E5 JUMP JUMPDEST SWAP3 POP PUSH2 0x100 EXP DUP2 SLOAD DUP2 PUSH1 0xFF MUL NOT AND SWAP1 DUP4 PUSH1 0xFF AND MUL OR SWAP1 SSTORE POP PUSH1 0x3 DUP8 PUSH1 0xFF AND PUSH1 0x8 DUP2 LT PUSH2 0x1611 JUMPI PUSH2 0x1610 PUSH2 0x475F JUMP JUMPDEST JUMPDEST PUSH1 0x10 MUL ADD DUP9 PUSH1 0xFF AND PUSH1 0x8 DUP2 LT PUSH2 0x162A JUMPI PUSH2 0x1629 PUSH2 0x475F JUMP JUMPDEST JUMPDEST PUSH1 0x2 MUL ADD PUSH1 0x0 DUP1 DUP3 ADD PUSH1 0x0 PUSH2 0x100 EXP DUP2 SLOAD SWAP1 PUSH1 0xFF MUL NOT AND SWAP1 SSTORE PUSH1 0x0 DUP3 ADD PUSH1 0x1 PUSH2 0x100 EXP DUP2 SLOAD SWAP1 PUSH1 0xFF MUL NOT AND SWAP1 SSTORE PUSH1 0x0 DUP3 ADD PUSH1 0x2 PUSH2 0x100 EXP DUP2 SLOAD SWAP1 PUSH20 0xFFFFFFFFFFFFFFFFFFFFFFFFFFFFFFFFFFFFFFFF MUL NOT AND SWAP1 SSTORE PUSH1 0x1 DUP3 ADD PUSH1 0x0 SWAP1 SSTORE POP POP PUSH2 0x16C6 JUMP JUMPDEST DUP1 DUP5 PUSH1 0x0 ADD PUSH1 0x1 DUP3 DUP3 DUP3 SWAP1 SLOAD SWAP1 PUSH2 0x100 EXP SWAP1 DIV PUSH1 0xFF AND PUSH2 0x16AD SWAP2 SWAP1 PUSH2 0x45E5 JUMP JUMPDEST SWAP3 POP PUSH2 0x100 EXP DUP2 SLOAD DUP2 PUSH1 0xFF MUL NOT AND SWAP1 DUP4 PUSH1 0xFF AND MUL OR SWAP1 SSTORE POP JUMPDEST CALLER PUSH20 0xFFFFFFFFFFFFFFFFFFFFFFFFFFFFFFFFFFFFFFFF AND DUP5 PUSH1 0x0 ADD PUSH1 0x2 SWAP1 SLOAD SWAP1 PUSH2 0x100 EXP SWAP1 DIV PUSH20 0xFFFFFFFFFFFFFFFFFFFFFFFFFFFFFFFFFFFFFFFF AND PUSH20 0xFFFFFFFFFFFFFFFFFFFFFFFFFFFFFFFFFFFFFFFF AND EQ DUP1 ISZERO PUSH2 0x1775 JUMPI POP PUSH1 0x0 PUSH20 0xFFFFFFFFFFFFFFFFFFFFFFFFFFFFFFFFFFFFFFFF AND DUP4 PUSH1 0x0 ADD PUSH1 0x2 SWAP1 SLOAD SWAP1 PUSH2 0x100 EXP SWAP1 DIV PUSH20 0xFFFFFFFFFFFFFFFFFFFFFFFFFFFFFFFFFFFFFFFF AND PUSH20 0xFFFFFFFFFFFFFFFFFFFFFFFFFFFFFFFFFFFFFFFF AND EQ JUMPDEST ISZERO PUSH2 0x191D JUMPI DUP4 PUSH1 0x3 DUP7 PUSH1 0xFF AND PUSH1 0x8 DUP2 LT PUSH2 0x1792 JUMPI PUSH2 0x1791 PUSH2 0x475F JUMP JUMPDEST JUMPDEST PUSH1 0x10 MUL ADD DUP8 PUSH1 0xFF AND PUSH1 0x8 DUP2 LT PUSH2 0x17AB JUMPI PUSH2 0x17AA PUSH2 0x475F JUMP JUMPDEST JUMPDEST PUSH1 0x2 MUL ADD PUSH1 0x0 DUP3 ADD PUSH1 0x0 SWAP1 SLOAD SWAP1 PUSH2 0x100 EXP SWAP1 DIV PUSH1 0xFF AND DUP2 PUSH1 0x0 ADD PUSH1 0x0 PUSH2 0x100 EXP DUP2 SLOAD DUP2 PUSH1 0xFF MUL NOT AND SWAP1 DUP4 PUSH1 0x5 DUP2 GT ISZERO PUSH2 0x17E7 JUMPI PUSH2 0x17E6 PUSH2 0x4730 JUMP JUMPDEST JUMPDEST MUL OR SWAP1 SSTORE POP PUSH1 0x0 DUP3 ADD PUSH1 0x1 SWAP1 SLOAD SWAP1 PUSH2 0x100 EXP SWAP1 DIV PUSH1 0xFF AND DUP2 PUSH1 0x0 ADD PUSH1 0x1 PUSH2 0x100 EXP DUP2 SLOAD DUP2 PUSH1 0xFF MUL NOT AND SWAP1 DUP4 PUSH1 0xFF AND MUL OR SWAP1 SSTORE POP PUSH1 0x0 DUP3 ADD PUSH1 0x2 SWAP1 SLOAD SWAP1 PUSH2 0x100 EXP SWAP1 DIV PUSH20 0xFFFFFFFFFFFFFFFFFFFFFFFFFFFFFFFFFFFFFFFF AND DUP2 PUSH1 0x0 ADD PUSH1 0x2 PUSH2 0x100 EXP DUP2 SLOAD DUP2 PUSH20 0xFFFFFFFFFFFFFFFFFFFFFFFFFFFFFFFFFFFFFFFF MUL NOT AND SWAP1 DUP4 PUSH20 0xFFFFFFFFFFFFFFFFFFFFFFFFFFFFFFFFFFFFFFFF AND MUL OR SWAP1 SSTORE POP PUSH1 0x1 DUP3 ADD SLOAD DUP2 PUSH1 0x1 ADD SSTORE SWAP1 POP POP PUSH1 0x3 DUP8 PUSH1 0xFF AND PUSH1 0x8 DUP2 LT PUSH2 0x18A5 JUMPI PUSH2 0x18A4 PUSH2 0x475F JUMP JUMPDEST JUMPDEST PUSH1 0x10 MUL ADD DUP9 PUSH1 0xFF AND PUSH1 0x8 DUP2 LT PUSH2 0x18BE JUMPI PUSH2 0x18BD PUSH2 0x475F JUMP JUMPDEST JUMPDEST PUSH1 0x2 MUL ADD PUSH1 0x0 DUP1 DUP3 ADD PUSH1 0x0 PUSH2 0x100 EXP DUP2 SLOAD SWAP1 PUSH1 0xFF MUL NOT AND SWAP1 SSTORE PUSH1 0x0 DUP3 ADD PUSH1 0x1 PUSH2 0x100 EXP DUP2 SLOAD SWAP1 PUSH1 0xFF MUL NOT AND SWAP1 SSTORE PUSH1 0x0 DUP3 ADD PUSH1 0x2 PUSH2 0x100 EXP DUP2 SLOAD SWAP1 PUSH20 0xFFFFFFFFFFFFFFFFFFFFFFFFFFFFFFFFFFFFFFFF MUL NOT AND SWAP1 SSTORE PUSH1 0x1 DUP3 ADD PUSH1 0x0 SWAP1 SSTORE POP POP JUMPDEST POP POP JUMPDEST JUMPDEST PUSH32 0x6C9EBC7B3FFFA9DC72668688527CAF73B3803A8CEFCF455809BA4CED9383E517 CALLER DUP8 DUP8 DUP8 DUP8 PUSH1 0x40 MLOAD PUSH2 0x1958 SWAP6 SWAP5 SWAP4 SWAP3 SWAP2 SWAP1 PUSH2 0x420E JUMP JUMPDEST PUSH1 0x40 MLOAD DUP1 SWAP2 SUB SWAP1 LOG1 POP POP POP POP POP POP JUMP JUMPDEST CALLER PUSH20 0xFFFFFFFFFFFFFFFFFFFFFFFFFFFFFFFFFFFFFFFF AND PUSH1 0x1 PUSH1 0x0 SWAP1 SLOAD SWAP1 PUSH2 0x100 EXP SWAP1 DIV PUSH20 0xFFFFFFFFFFFFFFFFFFFFFFFFFFFFFFFFFFFFFFFF AND PUSH20 0xFFFFFFFFFFFFFFFFFFFFFFFFFFFFFFFFFFFFFFFF AND EQ PUSH2 0x19C2 JUMPI PUSH1 0x0 DUP1 REVERT JUMPDEST DUP1 PUSH1 0x1 PUSH1 0x0 PUSH2 0x100 EXP DUP2 SLOAD DUP2 PUSH20 0xFFFFFFFFFFFFFFFFFFFFFFFFFFFFFFFFFFFFFFFF MUL NOT AND SWAP1 DUP4 PUSH20 0xFFFFFFFFFFFFFFFFFFFFFFFFFFFFFFFFFFFFFFFF AND MUL OR SWAP1 SSTORE POP POP JUMP JUMPDEST PUSH1 0x8 DUP2 JUMP JUMPDEST PUSH1 0x83 PUSH1 0x0 SWAP1 SLOAD SWAP1 PUSH2 0x100 EXP SWAP1 DIV PUSH1 0xFF AND PUSH1 0xFF AND DUP5 PUSH1 0xFF AND LT DUP1 ISZERO PUSH2 0x1A43 JUMPI POP PUSH1 0x83 PUSH1 0x1 SWAP1 SLOAD SWAP1 PUSH2 0x100 EXP SWAP1 DIV PUSH1 0xFF AND PUSH1 0xFF AND DUP4 PUSH1 0xFF AND LT JUMPDEST DUP1 ISZERO PUSH2 0x1AD2 JUMPI POP PUSH1 0x0 PUSH20 0xFFFFFFFFFFFFFFFFFFFFFFFFFFFFFFFFFFFFFFFF AND PUSH1 0x3 DUP5 PUSH1 0xFF AND PUSH1 0x8 DUP2 LT PUSH2 0x1A79 JUMPI PUSH2 0x1A78 PUSH2 0x475F JUMP JUMPDEST JUMPDEST PUSH1 0x10 MUL ADD DUP6 PUSH1 0xFF AND PUSH1 0x8 DUP2 LT PUSH2 0x1A92 JUMPI PUSH2 0x1A91 PUSH2 0x475F JUMP JUMPDEST JUMPDEST PUSH1 0x2 MUL ADD PUSH1 0x0 ADD PUSH1 0x2 SWAP1 SLOAD SWAP1 PUSH2 0x100 EXP SWAP1 DIV PUSH20 0xFFFFFFFFFFFFFFFFFFFFFFFFFFFFFFFFFFFFFFFF AND PUSH20 0xFFFFFFFFFFFFFFFFFFFFFFFFFFFFFFFFFFFFFFFF AND EQ JUMPDEST PUSH2 0x1B11 JUMPI PUSH1 0x40 MLOAD PUSH32 0x8C379A000000000000000000000000000000000000000000000000000000000 DUP2 MSTORE PUSH1 0x4 ADD PUSH2 0x1B08 SWAP1 PUSH2 0x4361 JUMP JUMPDEST PUSH1 0x40 MLOAD DUP1 SWAP2 SUB SWAP1 REVERT JUMPDEST PUSH1 0x0 PUSH1 0x5 DUP2 GT ISZERO PUSH2 0x1B25 JUMPI PUSH2 0x1B24 PUSH2 0x4730 JUMP JUMPDEST JUMPDEST DUP3 PUSH1 0x5 DUP2 GT ISZERO PUSH2 0x1B38 JUMPI PUSH2 0x1B37 PUSH2 0x4730 JUMP JUMPDEST JUMPDEST LT ISZERO DUP1 ISZERO PUSH2 0x1B6A JUMPI POP PUSH1 0x5 DUP1 DUP2 GT ISZERO PUSH2 0x1B54 JUMPI PUSH2 0x1B53 PUSH2 0x4730 JUMP JUMPDEST JUMPDEST DUP3 PUSH1 0x5 DUP2 GT ISZERO PUSH2 0x1B67 JUMPI PUSH2 0x1B66 PUSH2 0x4730 JUMP JUMPDEST JUMPDEST GT ISZERO JUMPDEST PUSH2 0x1B73 JUMPI PUSH1 0x0 DUP1 REVERT JUMPDEST PUSH1 0x1E PUSH1 0xFF AND DUP2 PUSH1 0xFF AND GT ISZERO PUSH2 0x1BBD JUMPI PUSH1 0x40 MLOAD PUSH32 0x8C379A000000000000000000000000000000000000000000000000000000000 DUP2 MSTORE PUSH1 0x4 ADD PUSH2 0x1BB4 SWAP1 PUSH2 0x42C1 JUMP JUMPDEST PUSH1 0x40 MLOAD DUP1 SWAP2 SUB SWAP1 REVERT JUMPDEST PUSH1 0x0 PUSH1 0x8B PUSH1 0x0 PUSH1 0x84 SLOAD DUP2 MSTORE PUSH1 0x20 ADD SWAP1 DUP2 MSTORE PUSH1 0x20 ADD PUSH1 0x0 KECCAK256 PUSH1 0x0 CALLER PUSH20 0xFFFFFFFFFFFFFFFFFFFFFFFFFFFFFFFFFFFFFFFF AND PUSH20 0xFFFFFFFFFFFFFFFFFFFFFFFFFFFFFFFFFFFFFFFF AND DUP2 MSTORE PUSH1 0x20 ADD SWAP1 DUP2 MSTORE PUSH1 0x20 ADD PUSH1 0x0 KECCAK256 PUSH1 0x0 SWAP1 SLOAD SWAP1 PUSH2 0x100 EXP SWAP1 DIV PUSH1 0xFF AND PUSH1 0xFF AND EQ ISZERO PUSH2 0x1FD4 JUMPI PUSH1 0x8 PUSH1 0xFF AND PUSH1 0x8C PUSH1 0x0 NUMBER DUP2 MSTORE PUSH1 0x20 ADD SWAP1 DUP2 MSTORE PUSH1 0x20 ADD PUSH1 0x0 KECCAK256 PUSH1 0x0 SWAP1 SLOAD SWAP1 PUSH2 0x100 EXP SWAP1 DIV PUSH1 0xFF AND PUSH1 0xFF AND GT ISZERO PUSH2 0x1C92 JUMPI PUSH1 0x40 MLOAD PUSH32 0x8C379A000000000000000000000000000000000000000000000000000000000 DUP2 MSTORE PUSH1 0x4 ADD PUSH2 0x1C89 SWAP1 PUSH2 0x4341 JUMP JUMPDEST PUSH1 0x40 MLOAD DUP1 SWAP2 SUB SWAP1 REVERT JUMPDEST PUSH2 0x1C9A PUSH2 0x2D98 JUMP JUMPDEST PUSH1 0x0 PUSH1 0x84 SLOAD PUSH1 0xA PUSH1 0xFF AND PUSH2 0x1CAE SWAP2 SWAP1 PUSH2 0x43F1 JUMP JUMPDEST DUP3 PUSH1 0xFF AND PUSH2 0x1CBC SWAP2 SWAP1 PUSH2 0x451C JUMP JUMPDEST SWAP1 POP DUP1 PUSH1 0x2 PUSH1 0x0 CALLER PUSH20 0xFFFFFFFFFFFFFFFFFFFFFFFFFFFFFFFFFFFFFFFF AND PUSH20 0xFFFFFFFFFFFFFFFFFFFFFFFFFFFFFFFFFFFFFFFF AND DUP2 MSTORE PUSH1 0x20 ADD SWAP1 DUP2 MSTORE PUSH1 0x20 ADD PUSH1 0x0 KECCAK256 PUSH1 0x0 DUP3 DUP3 SLOAD PUSH2 0x1D0D SWAP2 SWAP1 PUSH2 0x45B1 JUMP JUMPDEST SWAP3 POP POP DUP2 SWAP1 SSTORE POP DUP1 PUSH1 0x88 PUSH1 0x0 PUSH1 0x84 SLOAD DUP2 MSTORE PUSH1 0x20 ADD SWAP1 DUP2 MSTORE PUSH1 0x20 ADD PUSH1 0x0 KECCAK256 PUSH1 0x0 CALLER PUSH20 0xFFFFFFFFFFFFFFFFFFFFFFFFFFFFFFFFFFFFFFFF AND PUSH20 0xFFFFFFFFFFFFFFFFFFFFFFFFFFFFFFFFFFFFFFFF AND DUP2 MSTORE PUSH1 0x20 ADD SWAP1 DUP2 MSTORE PUSH1 0x20 ADD PUSH1 0x0 KECCAK256 PUSH1 0x0 DUP3 DUP3 SLOAD PUSH2 0x1D76 SWAP2 SWAP1 PUSH2 0x43F1 JUMP JUMPDEST SWAP3 POP POP DUP2 SWAP1 SSTORE POP PUSH32 0x2D78AABDFFBCDF19E64604C0D977DAC0612F4B6B9748E5107EDDBBDFA5203BF8 CALLER DUP3 PUSH1 0x40 MLOAD PUSH2 0x1DAE SWAP3 SWAP2 SWAP1 PUSH2 0x414D JUMP JUMPDEST PUSH1 0x40 MLOAD DUP1 SWAP2 SUB SWAP1 LOG1 PUSH1 0x40 MLOAD DUP1 PUSH1 0x80 ADD PUSH1 0x40 MSTORE DUP1 DUP5 PUSH1 0x5 DUP2 GT ISZERO PUSH2 0x1DD4 JUMPI PUSH2 0x1DD3 PUSH2 0x4730 JUMP JUMPDEST JUMPDEST DUP2 MSTORE PUSH1 0x20 ADD DUP4 PUSH1 0xFF AND DUP2 MSTORE PUSH1 0x20 ADD CALLER PUSH20 0xFFFFFFFFFFFFFFFFFFFFFFFFFFFFFFFFFFFFFFFF AND DUP2 MSTORE PUSH1 0x20 ADD NUMBER DUP2 MSTORE POP PUSH1 0x3 DUP6 PUSH1 0xFF AND PUSH1 0x8 DUP2 LT PUSH2 0x1E19 JUMPI PUSH2 0x1E18 PUSH2 0x475F JUMP JUMPDEST JUMPDEST PUSH1 0x10 MUL ADD DUP7 PUSH1 0xFF AND PUSH1 0x8 DUP2 LT PUSH2 0x1E32 JUMPI PUSH2 0x1E31 PUSH2 0x475F JUMP JUMPDEST JUMPDEST PUSH1 0x2 MUL ADD PUSH1 0x0 DUP3 ADD MLOAD DUP2 PUSH1 0x0 ADD PUSH1 0x0 PUSH2 0x100 EXP DUP2 SLOAD DUP2 PUSH1 0xFF MUL NOT AND SWAP1 DUP4 PUSH1 0x5 DUP2 GT ISZERO PUSH2 0x1E61 JUMPI PUSH2 0x1E60 PUSH2 0x4730 JUMP JUMPDEST JUMPDEST MUL OR SWAP1 SSTORE POP PUSH1 0x20 DUP3 ADD MLOAD DUP2 PUSH1 0x0 ADD PUSH1 0x1 PUSH2 0x100 EXP DUP2 SLOAD DUP2 PUSH1 0xFF MUL NOT AND SWAP1 DUP4 PUSH1 0xFF AND MUL OR SWAP1 SSTORE POP PUSH1 0x40 DUP3 ADD MLOAD DUP2 PUSH1 0x0 ADD PUSH1 0x2 PUSH2 0x100 EXP DUP2 SLOAD DUP2 PUSH20 0xFFFFFFFFFFFFFFFFFFFFFFFFFFFFFFFFFFFFFFFF MUL NOT AND SWAP1 DUP4 PUSH20 0xFFFFFFFFFFFFFFFFFFFFFFFFFFFFFFFFFFFFFFFF AND MUL OR SWAP1 SSTORE POP PUSH1 0x60 DUP3 ADD MLOAD DUP2 PUSH1 0x1 ADD SSTORE SWAP1 POP POP PUSH1 0x1 PUSH1 0x8B PUSH1 0x0 PUSH1 0x84 SLOAD DUP2 MSTORE PUSH1 0x20 ADD SWAP1 DUP2 MSTORE PUSH1 0x20 ADD PUSH1 0x0 KECCAK256 PUSH1 0x0 CALLER PUSH20 0xFFFFFFFFFFFFFFFFFFFFFFFFFFFFFFFFFFFFFFFF AND PUSH20 0xFFFFFFFFFFFFFFFFFFFFFFFFFFFFFFFFFFFFFFFF AND DUP2 MSTORE PUSH1 0x20 ADD SWAP1 DUP2 MSTORE PUSH1 0x20 ADD PUSH1 0x0 KECCAK256 PUSH1 0x0 PUSH2 0x100 EXP DUP2 SLOAD DUP2 PUSH1 0xFF MUL NOT AND SWAP1 DUP4 PUSH1 0xFF AND MUL OR SWAP1 SSTORE POP PUSH1 0x1 PUSH1 0x8C PUSH1 0x0 NUMBER DUP2 MSTORE PUSH1 0x20 ADD SWAP1 DUP2 MSTORE PUSH1 0x20 ADD PUSH1 0x0 KECCAK256 PUSH1 0x0 DUP3 DUP3 DUP3 SWAP1 SLOAD SWAP1 PUSH2 0x100 EXP SWAP1 DIV PUSH1 0xFF AND PUSH2 0x1F77 SWAP2 SWAP1 PUSH2 0x4447 JUMP JUMPDEST SWAP3 POP PUSH2 0x100 EXP DUP2 SLOAD DUP2 PUSH1 0xFF MUL NOT AND SWAP1 DUP4 PUSH1 0xFF AND MUL OR SWAP1 SSTORE POP PUSH32 0x6D0ACD8DFF7DBE302690533979375614697C5291F7E843E42FA43DF9A0FA1676 CALLER DUP7 DUP7 DUP7 DUP7 PUSH1 0x40 MLOAD PUSH2 0x1FC6 SWAP6 SWAP5 SWAP4 SWAP3 SWAP2 SWAP1 PUSH2 0x4176 JUMP JUMPDEST PUSH1 0x40 MLOAD DUP1 SWAP2 SUB SWAP1 LOG1 POP PUSH2 0x2ABC JUMP JUMPDEST PUSH1 0x1 DUP5 PUSH1 0xFF AND LT ISZERO DUP1 ISZERO PUSH2 0x2076 JUMPI POP CALLER PUSH20 0xFFFFFFFFFFFFFFFFFFFFFFFFFFFFFFFFFFFFFFFF AND PUSH1 0x3 DUP5 PUSH1 0xFF AND PUSH1 0x8 DUP2 LT PUSH2 0x2011 JUMPI PUSH2 0x2010 PUSH2 0x475F JUMP JUMPDEST JUMPDEST PUSH1 0x10 MUL ADD PUSH1 0x1 DUP7 PUSH2 0x2022 SWAP2 SWAP1 PUSH2 0x45E5 JUMP JUMPDEST PUSH1 0xFF AND PUSH1 0x8 DUP2 LT PUSH2 0x2036 JUMPI PUSH2 0x2035 PUSH2 0x475F JUMP JUMPDEST JUMPDEST PUSH1 0x2 MUL ADD PUSH1 0x0 ADD PUSH1 0x2 SWAP1 SLOAD SWAP1 PUSH2 0x100 EXP SWAP1 DIV PUSH20 0xFFFFFFFFFFFFFFFFFFFFFFFFFFFFFFFFFFFFFFFF AND PUSH20 0xFFFFFFFFFFFFFFFFFFFFFFFFFFFFFFFFFFFFFFFF AND EQ JUMPDEST DUP1 ISZERO PUSH2 0x20C4 JUMPI POP NUMBER PUSH1 0x3 DUP5 PUSH1 0xFF AND PUSH1 0x8 DUP2 LT PUSH2 0x2095 JUMPI PUSH2 0x2094 PUSH2 0x475F JUMP JUMPDEST JUMPDEST PUSH1 0x10 MUL ADD PUSH1 0x1 DUP7 PUSH2 0x20A6 SWAP2 SWAP1 PUSH2 0x45E5 JUMP JUMPDEST PUSH1 0xFF AND PUSH1 0x8 DUP2 LT PUSH2 0x20BA JUMPI PUSH2 0x20B9 PUSH2 0x475F JUMP JUMPDEST JUMPDEST PUSH1 0x2 MUL ADD PUSH1 0x1 ADD SLOAD LT JUMPDEST DUP1 PUSH2 0x21BB JUMPI POP PUSH1 0x1 DUP4 PUSH1 0xFF AND LT ISZERO DUP1 ISZERO PUSH2 0x216C JUMPI POP CALLER PUSH20 0xFFFFFFFFFFFFFFFFFFFFFFFFFFFFFFFFFFFFFFFF AND PUSH1 0x3 PUSH1 0x1 DUP6 PUSH2 0x20FF SWAP2 SWAP1 PUSH2 0x45E5 JUMP JUMPDEST PUSH1 0xFF AND PUSH1 0x8 DUP2 LT PUSH2 0x2113 JUMPI PUSH2 0x2112 PUSH2 0x475F JUMP JUMPDEST JUMPDEST PUSH1 0x10 MUL ADD DUP6 PUSH1 0xFF AND PUSH1 0x8 DUP2 LT PUSH2 0x212C JUMPI PUSH2 0x212B PUSH2 0x475F JUMP JUMPDEST JUMPDEST PUSH1 0x2 MUL ADD PUSH1 0x0 ADD PUSH1 0x2 SWAP1 SLOAD SWAP1 PUSH2 0x100 EXP SWAP1 DIV PUSH20 0xFFFFFFFFFFFFFFFFFFFFFFFFFFFFFFFFFFFFFFFF AND PUSH20 0xFFFFFFFFFFFFFFFFFFFFFFFFFFFFFFFFFFFFFFFF AND EQ JUMPDEST DUP1 ISZERO PUSH2 0x21BA JUMPI POP NUMBER PUSH1 0x3 PUSH1 0x1 DUP6 PUSH2 0x2183 SWAP2 SWAP1 PUSH2 0x45E5 JUMP JUMPDEST PUSH1 0xFF AND PUSH1 0x8 DUP2 LT PUSH2 0x2197 JUMPI PUSH2 0x2196 PUSH2 0x475F JUMP JUMPDEST JUMPDEST PUSH1 0x10 MUL ADD DUP6 PUSH1 0xFF AND PUSH1 0x8 DUP2 LT PUSH2 0x21B0 JUMPI PUSH2 0x21AF PUSH2 0x475F JUMP JUMPDEST JUMPDEST PUSH1 0x2 MUL ADD PUSH1 0x1 ADD SLOAD LT JUMPDEST JUMPDEST DUP1 PUSH2 0x22CE JUMPI POP PUSH1 0x1 PUSH1 0x83 PUSH1 0x0 SWAP1 SLOAD SWAP1 PUSH2 0x100 EXP SWAP1 DIV PUSH1 0xFF AND PUSH2 0x21DD SWAP2 SWAP1 PUSH2 0x45E5 JUMP JUMPDEST PUSH1 0xFF AND DUP5 PUSH1 0xFF AND LT DUP1 ISZERO PUSH2 0x227F JUMPI POP CALLER PUSH20 0xFFFFFFFFFFFFFFFFFFFFFFFFFFFFFFFFFFFFFFFF AND PUSH1 0x3 DUP5 PUSH1 0xFF AND PUSH1 0x8 DUP2 LT PUSH2 0x221A JUMPI PUSH2 0x2219 PUSH2 0x475F JUMP JUMPDEST JUMPDEST PUSH1 0x10 MUL ADD PUSH1 0x1 DUP7 PUSH2 0x222B SWAP2 SWAP1 PUSH2 0x4447 JUMP JUMPDEST PUSH1 0xFF AND PUSH1 0x8 DUP2 LT PUSH2 0x223F JUMPI PUSH2 0x223E PUSH2 0x475F JUMP JUMPDEST JUMPDEST PUSH1 0x2 MUL ADD PUSH1 0x0 ADD PUSH1 0x2 SWAP1 SLOAD SWAP1 PUSH2 0x100 EXP SWAP1 DIV PUSH20 0xFFFFFFFFFFFFFFFFFFFFFFFFFFFFFFFFFFFFFFFF AND PUSH20 0xFFFFFFFFFFFFFFFFFFFFFFFFFFFFFFFFFFFFFFFF AND EQ JUMPDEST DUP1 ISZERO PUSH2 0x22CD JUMPI POP NUMBER PUSH1 0x3 DUP5 PUSH1 0xFF AND PUSH1 0x8 DUP2 LT PUSH2 0x229E JUMPI PUSH2 0x229D PUSH2 0x475F JUMP JUMPDEST JUMPDEST PUSH1 0x10 MUL ADD PUSH1 0x1 DUP7 PUSH2 0x22AF SWAP2 SWAP1 PUSH2 0x4447 JUMP JUMPDEST PUSH1 0xFF AND PUSH1 0x8 DUP2 LT PUSH2 0x22C3 JUMPI PUSH2 0x22C2 PUSH2 0x475F JUMP JUMPDEST JUMPDEST PUSH1 0x2 MUL ADD PUSH1 0x1 ADD SLOAD LT JUMPDEST JUMPDEST DUP1 PUSH2 0x23E1 JUMPI POP PUSH1 0x1 PUSH1 0x83 PUSH1 0x1 SWAP1 SLOAD SWAP1 PUSH2 0x100 EXP SWAP1 DIV PUSH1 0xFF AND PUSH2 0x22F0 SWAP2 SWAP1 PUSH2 0x45E5 JUMP JUMPDEST PUSH1 0xFF AND DUP4 PUSH1 0xFF AND LT DUP1 ISZERO PUSH2 0x2392 JUMPI POP CALLER PUSH20 0xFFFFFFFFFFFFFFFFFFFFFFFFFFFFFFFFFFFFFFFF AND PUSH1 0x3 PUSH1 0x1 DUP6 PUSH2 0x2325 SWAP2 SWAP1 PUSH2 0x4447 JUMP JUMPDEST PUSH1 0xFF AND PUSH1 0x8 DUP2 LT PUSH2 0x2339 JUMPI PUSH2 0x2338 PUSH2 0x475F JUMP JUMPDEST JUMPDEST PUSH1 0x10 MUL ADD DUP6 PUSH1 0xFF AND PUSH1 0x8 DUP2 LT PUSH2 0x2352 JUMPI PUSH2 0x2351 PUSH2 0x475F JUMP JUMPDEST JUMPDEST PUSH1 0x2 MUL ADD PUSH1 0x0 ADD PUSH1 0x2 SWAP1 SLOAD SWAP1 PUSH2 0x100 EXP SWAP1 DIV PUSH20 0xFFFFFFFFFFFFFFFFFFFFFFFFFFFFFFFFFFFFFFFF AND PUSH20 0xFFFFFFFFFFFFFFFFFFFFFFFFFFFFFFFFFFFFFFFF AND EQ JUMPDEST DUP1 ISZERO PUSH2 0x23E0 JUMPI POP NUMBER PUSH1 0x3 PUSH1 0x1 DUP6 PUSH2 0x23A9 SWAP2 SWAP1 PUSH2 0x4447 JUMP JUMPDEST PUSH1 0xFF AND PUSH1 0x8 DUP2 LT PUSH2 0x23BD JUMPI PUSH2 0x23BC PUSH2 0x475F JUMP JUMPDEST JUMPDEST PUSH1 0x10 MUL ADD DUP6 PUSH1 0xFF AND PUSH1 0x8 DUP2 LT PUSH2 0x23D6 JUMPI PUSH2 0x23D5 PUSH2 0x475F JUMP JUMPDEST JUMPDEST PUSH1 0x2 MUL ADD PUSH1 0x1 ADD SLOAD LT JUMPDEST JUMPDEST PUSH2 0x2420 JUMPI PUSH1 0x40 MLOAD PUSH32 0x8C379A000000000000000000000000000000000000000000000000000000000 DUP2 MSTORE PUSH1 0x4 ADD PUSH2 0x2417 SWAP1 PUSH2 0x4301 JUMP JUMPDEST PUSH1 0x40 MLOAD DUP1 SWAP2 SUB SWAP1 REVERT JUMPDEST PUSH2 0x2428 PUSH2 0x2D98 JUMP JUMPDEST PUSH1 0x0 PUSH1 0x84 SLOAD PUSH1 0xA PUSH1 0xFF AND PUSH2 0x243C SWAP2 SWAP1 PUSH2 0x43F1 JUMP JUMPDEST DUP3 PUSH1 0xFF AND PUSH2 0x244A SWAP2 SWAP1 PUSH2 0x451C JUMP JUMPDEST SWAP1 POP DUP1 PUSH1 0x2 PUSH1 0x0 CALLER PUSH20 0xFFFFFFFFFFFFFFFFFFFFFFFFFFFFFFFFFFFFFFFF AND PUSH20 0xFFFFFFFFFFFFFFFFFFFFFFFFFFFFFFFFFFFFFFFF AND DUP2 MSTORE PUSH1 0x20 ADD SWAP1 DUP2 MSTORE PUSH1 0x20 ADD PUSH1 0x0 KECCAK256 PUSH1 0x0 DUP3 DUP3 SLOAD PUSH2 0x249B SWAP2 SWAP1 PUSH2 0x45B1 JUMP JUMPDEST SWAP3 POP POP DUP2 SWAP1 SSTORE POP DUP1 PUSH1 0x88 PUSH1 0x0 PUSH1 0x84 SLOAD DUP2 MSTORE PUSH1 0x20 ADD SWAP1 DUP2 MSTORE PUSH1 0x20 ADD PUSH1 0x0 KECCAK256 PUSH1 0x0 CALLER PUSH20 0xFFFFFFFFFFFFFFFFFFFFFFFFFFFFFFFFFFFFFFFF AND PUSH20 0xFFFFFFFFFFFFFFFFFFFFFFFFFFFFFFFFFFFFFFFF AND DUP2 MSTORE PUSH1 0x20 ADD SWAP1 DUP2 MSTORE PUSH1 0x20 ADD PUSH1 0x0 KECCAK256 PUSH1 0x0 DUP3 DUP3 SLOAD PUSH2 0x2504 SWAP2 SWAP1 PUSH2 0x43F1 JUMP JUMPDEST SWAP3 POP POP DUP2 SWAP1 SSTORE POP PUSH32 0x2D78AABDFFBCDF19E64604C0D977DAC0612F4B6B9748E5107EDDBBDFA5203BF8 CALLER DUP3 PUSH1 0x40 MLOAD PUSH2 0x253C SWAP3 SWAP2 SWAP1 PUSH2 0x414D JUMP JUMPDEST PUSH1 0x40 MLOAD DUP1 SWAP2 SUB SWAP1 LOG1 PUSH1 0x40 MLOAD DUP1 PUSH1 0x80 ADD PUSH1 0x40 MSTORE DUP1 DUP5 PUSH1 0x5 DUP2 GT ISZERO PUSH2 0x2562 JUMPI PUSH2 0x2561 PUSH2 0x4730 JUMP JUMPDEST JUMPDEST DUP2 MSTORE PUSH1 0x20 ADD DUP4 PUSH1 0xFF AND DUP2 MSTORE PUSH1 0x20 ADD CALLER PUSH20 0xFFFFFFFFFFFFFFFFFFFFFFFFFFFFFFFFFFFFFFFF AND DUP2 MSTORE PUSH1 0x20 ADD NUMBER DUP2 MSTORE POP PUSH1 0x3 DUP6 PUSH1 0xFF AND PUSH1 0x8 DUP2 LT PUSH2 0x25A7 JUMPI PUSH2 0x25A6 PUSH2 0x475F JUMP JUMPDEST JUMPDEST PUSH1 0x10 MUL ADD DUP7 PUSH1 0xFF AND PUSH1 0x8 DUP2 LT PUSH2 0x25C0 JUMPI PUSH2 0x25BF PUSH2 0x475F JUMP JUMPDEST JUMPDEST PUSH1 0x2 MUL ADD PUSH1 0x0 DUP3 ADD MLOAD DUP2 PUSH1 0x0 ADD PUSH1 0x0 PUSH2 0x100 EXP DUP2 SLOAD DUP2 PUSH1 0xFF MUL NOT AND SWAP1 DUP4 PUSH1 0x5 DUP2 GT ISZERO PUSH2 0x25EF JUMPI PUSH2 0x25EE PUSH2 0x4730 JUMP JUMPDEST JUMPDEST MUL OR SWAP1 SSTORE POP PUSH1 0x20 DUP3 ADD MLOAD DUP2 PUSH1 0x0 ADD PUSH1 0x1 PUSH2 0x100 EXP DUP2 SLOAD DUP2 PUSH1 0xFF MUL NOT AND SWAP1 DUP4 PUSH1 0xFF AND MUL OR SWAP1 SSTORE POP PUSH1 0x40 DUP3 ADD MLOAD DUP2 PUSH1 0x0 ADD PUSH1 0x2 PUSH2 0x100 EXP DUP2 SLOAD DUP2 PUSH20 0xFFFFFFFFFFFFFFFFFFFFFFFFFFFFFFFFFFFFFFFF MUL NOT AND SWAP1 DUP4 PUSH20 0xFFFFFFFFFFFFFFFFFFFFFFFFFFFFFFFFFFFFFFFF AND MUL OR SWAP1 SSTORE POP PUSH1 0x60 DUP3 ADD MLOAD DUP2 PUSH1 0x1 ADD SSTORE SWAP1 POP POP PUSH1 0x1 PUSH1 0x8B PUSH1 0x0 PUSH1 0x84 SLOAD DUP2 MSTORE PUSH1 0x20 ADD SWAP1 DUP2 MSTORE PUSH1 0x20 ADD PUSH1 0x0 KECCAK256 PUSH1 0x0 CALLER PUSH20 0xFFFFFFFFFFFFFFFFFFFFFFFFFFFFFFFFFFFFFFFF AND PUSH20 0xFFFFFFFFFFFFFFFFFFFFFFFFFFFFFFFFFFFFFFFF AND DUP2 MSTORE PUSH1 0x20 ADD SWAP1 DUP2 MSTORE PUSH1 0x20 ADD PUSH1 0x0 KECCAK256 PUSH1 0x0 DUP3 DUP3 DUP3 SWAP1 SLOAD SWAP1 PUSH2 0x100 EXP SWAP1 DIV PUSH1 0xFF AND PUSH2 0x26D8 SWAP2 SWAP1 PUSH2 0x4447 JUMP JUMPDEST SWAP3 POP PUSH2 0x100 EXP DUP2 SLOAD DUP2 PUSH1 0xFF MUL NOT AND SWAP1 DUP4 PUSH1 0xFF AND MUL OR SWAP1 SSTORE POP PUSH32 0xC24961FEBC4594B0071B89FA2C280F2B3D07E773E9CED8A26DE2E87E9C182E80 CALLER DUP7 DUP7 DUP7 DUP7 PUSH1 0x40 MLOAD PUSH2 0x2727 SWAP6 SWAP5 SWAP4 SWAP3 SWAP2 SWAP1 PUSH2 0x4176 JUMP JUMPDEST PUSH1 0x40 MLOAD DUP1 SWAP2 SUB SWAP1 LOG1 PUSH1 0x83 PUSH1 0x1 SWAP1 SLOAD SWAP1 PUSH2 0x100 EXP SWAP1 DIV PUSH1 0xFF AND PUSH1 0x83 PUSH1 0x0 SWAP1 SLOAD SWAP1 PUSH2 0x100 EXP SWAP1 DIV PUSH1 0xFF AND PUSH2 0x2759 SWAP2 SWAP1 PUSH2 0x4576 JUMP JUMPDEST PUSH1 0xFF AND PUSH1 0x8B PUSH1 0x0 PUSH1 0x84 SLOAD DUP2 MSTORE PUSH1 0x20 ADD SWAP1 DUP2 MSTORE PUSH1 0x20 ADD PUSH1 0x0 KECCAK256 PUSH1 0x0 CALLER PUSH20 0xFFFFFFFFFFFFFFFFFFFFFFFFFFFFFFFFFFFFFFFF AND PUSH20 0xFFFFFFFFFFFFFFFFFFFFFFFFFFFFFFFFFFFFFFFF AND DUP2 MSTORE PUSH1 0x20 ADD SWAP1 DUP2 MSTORE PUSH1 0x20 ADD PUSH1 0x0 KECCAK256 PUSH1 0x0 SWAP1 SLOAD SWAP1 PUSH2 0x100 EXP SWAP1 DIV PUSH1 0xFF AND PUSH1 0xFF AND EQ ISZERO PUSH2 0x2ABA JUMPI CALLER PUSH1 0x86 PUSH1 0x0 PUSH1 0x84 SLOAD DUP2 MSTORE PUSH1 0x20 ADD SWAP1 DUP2 MSTORE PUSH1 0x20 ADD PUSH1 0x0 KECCAK256 PUSH1 0x0 PUSH2 0x100 EXP DUP2 SLOAD DUP2 PUSH20 0xFFFFFFFFFFFFFFFFFFFFFFFFFFFFFFFFFFFFFFFF MUL NOT AND SWAP1 DUP4 PUSH20 0xFFFFFFFFFFFFFFFFFFFFFFFFFFFFFFFFFFFFFFFF AND MUL OR SWAP1 SSTORE POP PUSH1 0x0 PUSH1 0x89 PUSH1 0x0 PUSH1 0x84 SLOAD DUP2 MSTORE PUSH1 0x20 ADD SWAP1 DUP2 MSTORE PUSH1 0x20 ADD PUSH1 0x0 KECCAK256 PUSH1 0x0 CALLER PUSH20 0xFFFFFFFFFFFFFFFFFFFFFFFFFFFFFFFFFFFFFFFF AND PUSH20 0xFFFFFFFFFFFFFFFFFFFFFFFFFFFFFFFFFFFFFFFF AND DUP2 MSTORE PUSH1 0x20 ADD SWAP1 DUP2 MSTORE PUSH1 0x20 ADD PUSH1 0x0 KECCAK256 SLOAD PUSH1 0x88 PUSH1 0x0 PUSH1 0x84 SLOAD DUP2 MSTORE PUSH1 0x20 ADD SWAP1 DUP2 MSTORE PUSH1 0x20 ADD PUSH1 0x0 KECCAK256 PUSH1 0x0 CALLER PUSH20 0xFFFFFFFFFFFFFFFFFFFFFFFFFFFFFFFFFFFFFFFF AND PUSH20 0xFFFFFFFFFFFFFFFFFFFFFFFFFFFFFFFFFFFFFFFF AND DUP2 MSTORE PUSH1 0x20 ADD SWAP1 DUP2 MSTORE PUSH1 0x20 ADD PUSH1 0x0 KECCAK256 SLOAD PUSH2 0x28CB SWAP2 SWAP1 PUSH2 0x43F1 JUMP JUMPDEST PUSH1 0x88 PUSH1 0x0 PUSH1 0x84 SLOAD DUP2 MSTORE PUSH1 0x20 ADD SWAP1 DUP2 MSTORE PUSH1 0x20 ADD PUSH1 0x0 KECCAK256 PUSH1 0x0 CALLER PUSH20 0xFFFFFFFFFFFFFFFFFFFFFFFFFFFFFFFFFFFFFFFF AND PUSH20 0xFFFFFFFFFFFFFFFFFFFFFFFFFFFFFFFFFFFFFFFF AND DUP2 MSTORE PUSH1 0x20 ADD SWAP1 DUP2 MSTORE PUSH1 0x20 ADD PUSH1 0x0 KECCAK256 SLOAD PUSH1 0x85 PUSH1 0x0 PUSH1 0x84 SLOAD DUP2 MSTORE PUSH1 0x20 ADD SWAP1 DUP2 MSTORE PUSH1 0x20 ADD PUSH1 0x0 KECCAK256 SLOAD PUSH2 0x293E SWAP2 SWAP1 PUSH2 0x451C JUMP JUMPDEST PUSH2 0x2948 SWAP2 SWAP1 PUSH2 0x44AF JUMP JUMPDEST SWAP1 POP PUSH32 0xD1D05B4CB67FA991A51E7B2AB5FD9CD829CB70774E82694D9E576153979C3B7E PUSH1 0x84 SLOAD CALLER PUSH1 0x40 MLOAD PUSH2 0x297D SWAP3 SWAP2 SWAP1 PUSH2 0x439C JUMP JUMPDEST PUSH1 0x40 MLOAD DUP1 SWAP2 SUB SWAP1 LOG1 PUSH1 0x3 PUSH1 0x0 PUSH2 0x2993 SWAP2 SWAP1 PUSH2 0x3C3E JUMP JUMPDEST PUSH1 0x1 PUSH1 0x84 PUSH1 0x0 DUP3 DUP3 SLOAD PUSH2 0x29A6 SWAP2 SWAP1 PUSH2 0x43F1 JUMP JUMPDEST SWAP3 POP POP DUP2 SWAP1 SSTORE POP PUSH1 0x0 PUSH1 0x5 PUSH1 0x84 SLOAD PUSH2 0x29BE SWAP2 SWAP1 PUSH2 0x46A1 JUMP JUMPDEST EQ ISZERO PUSH2 0x2A71 JUMPI PUSH1 0x8 PUSH1 0xFF AND PUSH1 0x83 PUSH1 0x0 SWAP1 SLOAD SWAP1 PUSH2 0x100 EXP SWAP1 DIV PUSH1 0xFF AND PUSH1 0xFF AND LT ISZERO PUSH2 0x2A1A JUMPI PUSH1 0x1 PUSH1 0x83 PUSH1 0x0 DUP3 DUP3 DUP3 SWAP1 SLOAD SWAP1 PUSH2 0x100 EXP SWAP1 DIV PUSH1 0xFF AND PUSH2 0x2A01 SWAP2 SWAP1 PUSH2 0x4447 JUMP JUMPDEST SWAP3 POP PUSH2 0x100 EXP DUP2 SLOAD DUP2 PUSH1 0xFF MUL NOT AND SWAP1 DUP4 PUSH1 0xFF AND MUL OR SWAP1 SSTORE POP JUMPDEST PUSH1 0x8 PUSH1 0xFF AND PUSH1 0x83 PUSH1 0x1 SWAP1 SLOAD SWAP1 PUSH2 0x100 EXP SWAP1 DIV PUSH1 0xFF AND PUSH1 0xFF AND LT ISZERO PUSH2 0x2A70 JUMPI PUSH1 0x1 PUSH1 0x83 PUSH1 0x1 DUP3 DUP3 DUP3 SWAP1 SLOAD SWAP1 PUSH2 0x100 EXP SWAP1 DIV PUSH1 0xFF AND PUSH2 0x2A57 SWAP2 SWAP1 PUSH2 0x4447 JUMP JUMPDEST SWAP3 POP PUSH2 0x100 EXP DUP2 SLOAD DUP2 PUSH1 0xFF MUL NOT AND SWAP1 DUP4 PUSH1 0xFF AND MUL OR SWAP1 SSTORE POP JUMPDEST JUMPDEST CALLER PUSH20 0xFFFFFFFFFFFFFFFFFFFFFFFFFFFFFFFFFFFFFFFF AND PUSH2 0x8FC DUP3 SWAP1 DUP2 ISZERO MUL SWAP1 PUSH1 0x40 MLOAD PUSH1 0x0 PUSH1 0x40 MLOAD DUP1 DUP4 SUB DUP2 DUP6 DUP9 DUP9 CALL SWAP4 POP POP POP POP ISZERO DUP1 ISZERO PUSH2 0x2AB7 JUMPI RETURNDATASIZE PUSH1 0x0 DUP1 RETURNDATACOPY RETURNDATASIZE PUSH1 0x0 REVERT JUMPDEST POP POP JUMPDEST POP JUMPDEST POP POP POP POP JUMP JUMPDEST CALLER PUSH20 0xFFFFFFFFFFFFFFFFFFFFFFFFFFFFFFFFFFFFFFFF AND PUSH1 0x0 DUP1 SLOAD SWAP1 PUSH2 0x100 EXP SWAP1 DIV PUSH20 0xFFFFFFFFFFFFFFFFFFFFFFFFFFFFFFFFFFFFFFFF AND PUSH20 0xFFFFFFFFFFFFFFFFFFFFFFFFFFFFFFFFFFFFFFFF AND EQ PUSH2 0x2B1A JUMPI PUSH1 0x0 DUP1 REVERT JUMPDEST DUP1 PUSH1 0x0 DUP1 PUSH2 0x100 EXP DUP2 SLOAD DUP2 PUSH20 0xFFFFFFFFFFFFFFFFFFFFFFFFFFFFFFFFFFFFFFFF MUL NOT AND SWAP1 DUP4 PUSH20 0xFFFFFFFFFFFFFFFFFFFFFFFFFFFFFFFFFFFFFFFF AND MUL OR SWAP1 SSTORE POP POP JUMP JUMPDEST PUSH2 0x2B65 PUSH2 0x2D98 JUMP JUMPDEST DUP1 PUSH1 0x2 PUSH1 0x0 CALLER PUSH20 0xFFFFFFFFFFFFFFFFFFFFFFFFFFFFFFFFFFFFFFFF AND PUSH20 0xFFFFFFFFFFFFFFFFFFFFFFFFFFFFFFFFFFFFFFFF AND DUP2 MSTORE PUSH1 0x20 ADD SWAP1 DUP2 MSTORE PUSH1 0x20 ADD PUSH1 0x0 KECCAK256 PUSH1 0x0 DUP3 DUP3 SLOAD PUSH2 0x2BB4 SWAP2 SWAP1 PUSH2 0x45B1 JUMP JUMPDEST SWAP3 POP POP DUP2 SWAP1 SSTORE POP DUP1 PUSH1 0x2 PUSH1 0x0 DUP5 PUSH20 0xFFFFFFFFFFFFFFFFFFFFFFFFFFFFFFFFFFFFFFFF AND PUSH20 0xFFFFFFFFFFFFFFFFFFFFFFFFFFFFFFFFFFFFFFFF AND DUP2 MSTORE PUSH1 0x20 ADD SWAP1 DUP2 MSTORE PUSH1 0x20 ADD PUSH1 0x0 KECCAK256 PUSH1 0x0 DUP3 DUP3 SLOAD PUSH2 0x2C0A SWAP2 SWAP1 PUSH2 0x43F1 JUMP JUMPDEST SWAP3 POP POP DUP2 SWAP1 SSTORE POP DUP1 PUSH1 0x89 PUSH1 0x0 PUSH1 0x84 SLOAD DUP2 MSTORE PUSH1 0x20 ADD SWAP1 DUP2 MSTORE PUSH1 0x20 ADD PUSH1 0x0 KECCAK256 PUSH1 0x0 DUP5 PUSH20 0xFFFFFFFFFFFFFFFFFFFFFFFFFFFFFFFFFFFFFFFF AND PUSH20 0xFFFFFFFFFFFFFFFFFFFFFFFFFFFFFFFFFFFFFFFF AND DUP2 MSTORE PUSH1 0x20 ADD SWAP1 DUP2 MSTORE PUSH1 0x20 ADD PUSH1 0x0 KECCAK256 PUSH1 0x0 DUP3 DUP3 SLOAD PUSH2 0x2C73 SWAP2 SWAP1 PUSH2 0x43F1 JUMP JUMPDEST SWAP3 POP POP DUP2 SWAP1 SSTORE POP DUP1 PUSH1 0x8A PUSH1 0x0 PUSH1 0x84 SLOAD DUP2 MSTORE PUSH1 0x20 ADD SWAP1 DUP2 MSTORE PUSH1 0x20 ADD PUSH1 0x0 KECCAK256 PUSH1 0x0 CALLER PUSH20 0xFFFFFFFFFFFFFFFFFFFFFFFFFFFFFFFFFFFFFFFF AND PUSH20 0xFFFFFFFFFFFFFFFFFFFFFFFFFFFFFFFFFFFFFFFF AND DUP2 MSTORE PUSH1 0x20 ADD SWAP1 DUP2 MSTORE PUSH1 0x20 ADD PUSH1 0x0 KECCAK256 PUSH1 0x0 DUP5 PUSH20 0xFFFFFFFFFFFFFFFFFFFFFFFFFFFFFFFFFFFFFFFF AND PUSH20 0xFFFFFFFFFFFFFFFFFFFFFFFFFFFFFFFFFFFFFFFF AND DUP2 MSTORE PUSH1 0x20 ADD SWAP1 DUP2 MSTORE PUSH1 0x20 ADD PUSH1 0x0 KECCAK256 PUSH1 0x0 DUP3 DUP3 SLOAD PUSH2 0x2D19 SWAP2 SWAP1 PUSH2 0x43F1 JUMP JUMPDEST SWAP3 POP POP DUP2 SWAP1 SSTORE POP PUSH32 0x2D78AABDFFBCDF19E64604C0D977DAC0612F4B6B9748E5107EDDBBDFA5203BF8 CALLER DUP3 PUSH1 0x40 MLOAD PUSH2 0x2D51 SWAP3 SWAP2 SWAP1 PUSH2 0x414D JUMP JUMPDEST PUSH1 0x40 MLOAD DUP1 SWAP2 SUB SWAP1 LOG1 PUSH32 0x3F813E008231FAA321621AF212ED9374D27D2D71E618FFA6F40E873EEF2E1AC1 CALLER DUP4 DUP4 PUSH1 0x40 MLOAD PUSH2 0x2D8C SWAP4 SWAP3 SWAP2 SWAP1 PUSH2 0x4116 JUMP JUMPDEST PUSH1 0x40 MLOAD DUP1 SWAP2 SUB SWAP1 LOG1 POP POP JUMP JUMPDEST PUSH1 0x0 PUSH6 0x5AF3107A4000 CALLVALUE PUSH2 0x2DAC SWAP2 SWAP1 PUSH2 0x44AF JUMP JUMPDEST SWAP1 POP PUSH1 0x0 DUP2 GT ISZERO PUSH2 0x2F73 JUMPI DUP1 PUSH1 0x2 PUSH1 0x0 CALLER PUSH20 0xFFFFFFFFFFFFFFFFFFFFFFFFFFFFFFFFFFFFFFFF AND PUSH20 0xFFFFFFFFFFFFFFFFFFFFFFFFFFFFFFFFFFFFFFFF AND DUP2 MSTORE PUSH1 0x20 ADD SWAP1 DUP2 MSTORE PUSH1 0x20 ADD PUSH1 0x0 KECCAK256 PUSH1 0x0 DUP3 DUP3 SLOAD PUSH2 0x2E06 SWAP2 SWAP1 PUSH2 0x43F1 JUMP JUMPDEST SWAP3 POP POP DUP2 SWAP1 SSTORE POP PUSH1 0x64 PUSH1 0x5F CALLVALUE PUSH2 0x2E1C SWAP2 SWAP1 PUSH2 0x451C JUMP JUMPDEST PUSH2 0x2E26 SWAP2 SWAP1 PUSH2 0x44AF JUMP JUMPDEST PUSH1 0x85 PUSH1 0x0 PUSH1 0x84 SLOAD DUP2 MSTORE PUSH1 0x20 ADD SWAP1 DUP2 MSTORE PUSH1 0x20 ADD PUSH1 0x0 KECCAK256 PUSH1 0x0 DUP3 DUP3 SLOAD PUSH2 0x2E4A SWAP2 SWAP1 PUSH2 0x43F1 JUMP JUMPDEST SWAP3 POP POP DUP2 SWAP1 SSTORE POP PUSH1 0x0 DUP1 SLOAD SWAP1 PUSH2 0x100 EXP SWAP1 DIV PUSH20 0xFFFFFFFFFFFFFFFFFFFFFFFFFFFFFFFFFFFFFFFF AND PUSH20 0xFFFFFFFFFFFFFFFFFFFFFFFFFFFFFFFFFFFFFFFF AND PUSH2 0x8FC PUSH1 0x19 CALLVALUE PUSH2 0x2E98 SWAP2 SWAP1 PUSH2 0x44AF JUMP JUMPDEST SWAP1 DUP2 ISZERO MUL SWAP1 PUSH1 0x40 MLOAD PUSH1 0x0 PUSH1 0x40 MLOAD DUP1 DUP4 SUB DUP2 DUP6 DUP9 DUP9 CALL SWAP4 POP POP POP POP ISZERO DUP1 ISZERO PUSH2 0x2EC3 JUMPI RETURNDATASIZE PUSH1 0x0 DUP1 RETURNDATACOPY RETURNDATASIZE PUSH1 0x0 REVERT JUMPDEST POP PUSH1 0x1 PUSH1 0x0 SWAP1 SLOAD SWAP1 PUSH2 0x100 EXP SWAP1 DIV PUSH20 0xFFFFFFFFFFFFFFFFFFFFFFFFFFFFFFFFFFFFFFFF AND PUSH20 0xFFFFFFFFFFFFFFFFFFFFFFFFFFFFFFFFFFFFFFFF AND PUSH2 0x8FC PUSH1 0x64 CALLVALUE PUSH2 0x2F0D SWAP2 SWAP1 PUSH2 0x44AF JUMP JUMPDEST SWAP1 DUP2 ISZERO MUL SWAP1 PUSH1 0x40 MLOAD PUSH1 0x0 PUSH1 0x40 MLOAD DUP1 DUP4 SUB DUP2 DUP6 DUP9 DUP9 CALL SWAP4 POP POP POP POP ISZERO DUP1 ISZERO PUSH2 0x2F38 JUMPI RETURNDATASIZE PUSH1 0x0 DUP1 RETURNDATACOPY RETURNDATASIZE PUSH1 0x0 REVERT JUMPDEST POP PUSH32 0xCD17F300CBAA3A53B211634D2A532FD1B21508A1B1C8F4779F77906AD420BB3A CALLER DUP3 PUSH1 0x40 MLOAD PUSH2 0x2F6A SWAP3 SWAP2 SWAP1 PUSH2 0x414D JUMP JUMPDEST PUSH1 0x40 MLOAD DUP1 SWAP2 SUB SWAP1 LOG1 JUMPDEST POP JUMP JUMPDEST PUSH1 0x1 PUSH1 0x0 SWAP1 SLOAD SWAP1 PUSH2 0x100 EXP SWAP1 DIV PUSH20 0xFFFFFFFFFFFFFFFFFFFFFFFFFFFFFFFFFFFFFFFF AND DUP2 JUMP JUMPDEST PUSH1 0x8B PUSH1 0x20 MSTORE DUP2 PUSH1 0x0 MSTORE PUSH1 0x40 PUSH1 0x0 KECCAK256 PUSH1 0x20 MSTORE DUP1 PUSH1 0x0 MSTORE PUSH1 0x40 PUSH1 0x0 KECCAK256 PUSH1 0x0 SWAP2 POP SWAP2 POP SWAP1 SLOAD SWAP1 PUSH2 0x100 EXP SWAP1 DIV PUSH1 0xFF AND DUP2 JUMP JUMPDEST PUSH1 0x83 PUSH1 0x0 SWAP1 SLOAD SWAP1 PUSH2 0x100 EXP SWAP1 DIV PUSH1 0xFF AND PUSH1 0xFF AND DUP4 PUSH1 0xFF AND LT DUP1 ISZERO PUSH2 0x3003 JUMPI POP PUSH1 0x83 PUSH1 0x1 SWAP1 SLOAD SWAP1 PUSH2 0x100 EXP SWAP1 DIV PUSH1 0xFF AND PUSH1 0xFF AND DUP3 PUSH1 0xFF AND LT JUMPDEST DUP1 ISZERO PUSH2 0x3091 JUMPI POP CALLER PUSH20 0xFFFFFFFFFFFFFFFFFFFFFFFFFFFFFFFFFFFFFFFF AND PUSH1 0x3 DUP4 PUSH1 0xFF AND PUSH1 0x8 DUP2 LT PUSH2 0x3038 JUMPI PUSH2 0x3037 PUSH2 0x475F JUMP JUMPDEST JUMPDEST PUSH1 0x10 MUL ADD DUP5 PUSH1 0xFF AND PUSH1 0x8 DUP2 LT PUSH2 0x3051 JUMPI PUSH2 0x3050 PUSH2 0x475F JUMP JUMPDEST JUMPDEST PUSH1 0x2 MUL ADD PUSH1 0x0 ADD PUSH1 0x2 SWAP1 SLOAD SWAP1 PUSH2 0x100 EXP SWAP1 DIV PUSH20 0xFFFFFFFFFFFFFFFFFFFFFFFFFFFFFFFFFFFFFFFF AND PUSH20 0xFFFFFFFFFFFFFFFFFFFFFFFFFFFFFFFFFFFFFFFF AND EQ JUMPDEST PUSH2 0x30D0 JUMPI PUSH1 0x40 MLOAD PUSH32 0x8C379A000000000000000000000000000000000000000000000000000000000 DUP2 MSTORE PUSH1 0x4 ADD PUSH2 0x30C7 SWAP1 PUSH2 0x4321 JUMP JUMPDEST PUSH1 0x40 MLOAD DUP1 SWAP2 SUB SWAP1 REVERT JUMPDEST PUSH1 0x0 DUP2 PUSH1 0x3 DUP5 PUSH1 0xFF AND PUSH1 0x8 DUP2 LT PUSH2 0x30EA JUMPI PUSH2 0x30E9 PUSH2 0x475F JUMP JUMPDEST JUMPDEST PUSH1 0x10 MUL ADD DUP6 PUSH1 0xFF AND PUSH1 0x8 DUP2 LT PUSH2 0x3103 JUMPI PUSH2 0x3102 PUSH2 0x475F JUMP JUMPDEST JUMPDEST PUSH1 0x2 MUL ADD PUSH1 0x0 ADD PUSH1 0x1 SWAP1 SLOAD SWAP1 PUSH2 0x100 EXP SWAP1 DIV PUSH1 0xFF AND PUSH2 0x3122 SWAP2 SWAP1 PUSH2 0x4447 JUMP JUMPDEST SWAP1 POP PUSH1 0x1E PUSH1 0xFF AND DUP2 PUSH1 0xFF AND GT ISZERO PUSH2 0x316E JUMPI PUSH1 0x40 MLOAD PUSH32 0x8C379A000000000000000000000000000000000000000000000000000000000 DUP2 MSTORE PUSH1 0x4 ADD PUSH2 0x3165 SWAP1 PUSH2 0x42C1 JUMP JUMPDEST PUSH1 0x40 MLOAD DUP1 SWAP2 SUB SWAP1 REVERT JUMPDEST PUSH2 0x3176 PUSH2 0x2D98 JUMP JUMPDEST PUSH1 0x0 PUSH1 0x84 SLOAD PUSH1 0xA PUSH1 0xFF AND PUSH2 0x318A SWAP2 SWAP1 PUSH2 0x43F1 JUMP JUMPDEST DUP4 PUSH1 0xFF AND PUSH2 0x3198 SWAP2 SWAP1 PUSH2 0x451C JUMP JUMPDEST SWAP1 POP DUP1 PUSH1 0x2 PUSH1 0x0 CALLER PUSH20 0xFFFFFFFFFFFFFFFFFFFFFFFFFFFFFFFFFFFFFFFF AND PUSH20 0xFFFFFFFFFFFFFFFFFFFFFFFFFFFFFFFFFFFFFFFF AND DUP2 MSTORE PUSH1 0x20 ADD SWAP1 DUP2 MSTORE PUSH1 0x20 ADD PUSH1 0x0 KECCAK256 PUSH1 0x0 DUP3 DUP3 SLOAD PUSH2 0x31E9 SWAP2 SWAP1 PUSH2 0x45B1 JUMP JUMPDEST SWAP3 POP POP DUP2 SWAP1 SSTORE POP DUP1 PUSH1 0x88 PUSH1 0x0 PUSH1 0x84 SLOAD DUP2 MSTORE PUSH1 0x20 ADD SWAP1 DUP2 MSTORE PUSH1 0x20 ADD PUSH1 0x0 KECCAK256 PUSH1 0x0 CALLER PUSH20 0xFFFFFFFFFFFFFFFFFFFFFFFFFFFFFFFFFFFFFFFF AND PUSH20 0xFFFFFFFFFFFFFFFFFFFFFFFFFFFFFFFFFFFFFFFF AND DUP2 MSTORE PUSH1 0x20 ADD SWAP1 DUP2 MSTORE PUSH1 0x20 ADD PUSH1 0x0 KECCAK256 PUSH1 0x0 DUP3 DUP3 SLOAD PUSH2 0x3252 SWAP2 SWAP1 PUSH2 0x43F1 JUMP JUMPDEST SWAP3 POP POP DUP2 SWAP1 SSTORE POP PUSH32 0x2D78AABDFFBCDF19E64604C0D977DAC0612F4B6B9748E5107EDDBBDFA5203BF8 CALLER DUP3 PUSH1 0x40 MLOAD PUSH2 0x328A SWAP3 SWAP2 SWAP1 PUSH2 0x414D JUMP JUMPDEST PUSH1 0x40 MLOAD DUP1 SWAP2 SUB SWAP1 LOG1 DUP2 PUSH1 0x3 DUP6 PUSH1 0xFF AND PUSH1 0x8 DUP2 LT PUSH2 0x32AA JUMPI PUSH2 0x32A9 PUSH2 0x475F JUMP JUMPDEST JUMPDEST PUSH1 0x10 MUL ADD DUP7 PUSH1 0xFF AND PUSH1 0x8 DUP2 LT PUSH2 0x32C3 JUMPI PUSH2 0x32C2 PUSH2 0x475F JUMP JUMPDEST JUMPDEST PUSH1 0x2 MUL ADD PUSH1 0x0 ADD PUSH1 0x1 PUSH2 0x100 EXP DUP2 SLOAD DUP2 PUSH1 0xFF MUL NOT AND SWAP1 DUP4 PUSH1 0xFF AND MUL OR SWAP1 SSTORE POP PUSH32 0xE689AB9829CAB67DF59770AA37B4AE2E84C0E3CEAA686E2FD48FAF4CCF40B847 CALLER DUP7 DUP7 DUP7 PUSH1 0x40 MLOAD PUSH2 0x3317 SWAP5 SWAP4 SWAP3 SWAP2 SWAP1 PUSH2 0x41C9 JUMP JUMPDEST PUSH1 0x40 MLOAD DUP1 SWAP2 SUB SWAP1 LOG1 POP POP POP POP POP JUMP JUMPDEST PUSH1 0x4 DUP2 JUMP JUMPDEST PUSH1 0xA DUP2 JUMP JUMPDEST PUSH1 0x8A PUSH1 0x20 MSTORE DUP3 PUSH1 0x0 MSTORE PUSH1 0x40 PUSH1 0x0 KECCAK256 PUSH1 0x20 MSTORE DUP2 PUSH1 0x0 MSTORE PUSH1 0x40 PUSH1 0x0 KECCAK256 PUSH1 0x20 MSTORE DUP1 PUSH1 0x0 MSTORE PUSH1 0x40 PUSH1 0x0 KECCAK256 PUSH1 0x0 SWAP3 POP SWAP3 POP POP POP SLOAD DUP2 JUMP JUMPDEST PUSH1 0x83 PUSH1 0x0 SWAP1 SLOAD SWAP1 PUSH2 0x100 EXP SWAP1 DIV PUSH1 0xFF AND DUP2 JUMP JUMPDEST PUSH6 0x5AF3107A4000 DUP2 JUMP JUMPDEST PUSH1 0x8 DUP2 JUMP JUMPDEST PUSH1 0x88 PUSH1 0x20 MSTORE DUP2 PUSH1 0x0 MSTORE PUSH1 0x40 PUSH1 0x0 KECCAK256 PUSH1 0x20 MSTORE DUP1 PUSH1 0x0 MSTORE PUSH1 0x40 PUSH1 0x0 KECCAK256 PUSH1 0x0 SWAP2 POP SWAP2 POP POP SLOAD DUP2 JUMP JUMPDEST PUSH1 0x86 PUSH1 0x20 MSTORE DUP1 PUSH1 0x0 MSTORE PUSH1 0x40 PUSH1 0x0 KECCAK256 PUSH1 0x0 SWAP2 POP SLOAD SWAP1 PUSH2 0x100 EXP SWAP1 DIV PUSH20 0xFFFFFFFFFFFFFFFFFFFFFFFFFFFFFFFFFFFFFFFF AND DUP2 JUMP JUMPDEST PUSH1 0x3 DUP3 PUSH1 0x8 DUP2 LT PUSH2 0x33EC JUMPI PUSH1 0x0 DUP1 REVERT JUMPDEST PUSH1 0x10 MUL ADD DUP2 PUSH1 0x8 DUP2 LT PUSH2 0x33FE JUMPI PUSH1 0x0 DUP1 REVERT JUMPDEST PUSH1 0x2 MUL ADD PUSH1 0x0 SWAP2 POP SWAP2 POP POP DUP1 PUSH1 0x0 ADD PUSH1 0x0 SWAP1 SLOAD SWAP1 PUSH2 0x100 EXP SWAP1 DIV PUSH1 0xFF AND SWAP1 DUP1 PUSH1 0x0 ADD PUSH1 0x1 SWAP1 SLOAD SWAP1 PUSH2 0x100 EXP SWAP1 DIV PUSH1 0xFF AND SWAP1 DUP1 PUSH1 0x0 ADD PUSH1 0x2 SWAP1 SLOAD SWAP1 PUSH2 0x100 EXP SWAP1 DIV PUSH20 0xFFFFFFFFFFFFFFFFFFFFFFFFFFFFFFFFFFFFFFFF AND SWAP1 DUP1 PUSH1 0x1 ADD SLOAD SWAP1 POP DUP5 JUMP JUMPDEST PUSH1 0x2 PUSH1 0x20 MSTORE DUP1 PUSH1 0x0 MSTORE PUSH1 0x40 PUSH1 0x0 KECCAK256 PUSH1 0x0 SWAP2 POP SWAP1 POP SLOAD DUP2 JUMP JUMPDEST PUSH1 0x1E DUP2 JUMP JUMPDEST PUSH1 0x89 PUSH1 0x20 MSTORE DUP2 PUSH1 0x0 MSTORE PUSH1 0x40 PUSH1 0x0 KECCAK256 PUSH1 0x20 MSTORE DUP1 PUSH1 0x0 MSTORE PUSH1 0x40 PUSH1 0x0 KECCAK256 PUSH1 0x0 SWAP2 POP SWAP2 POP POP SLOAD DUP2 JUMP JUMPDEST PUSH1 0x8 DUP2 JUMP JUMPDEST PUSH1 0x84 SLOAD DUP2 JUMP JUMPDEST PUSH1 0x0 DUP1 SLOAD SWAP1 PUSH2 0x100 EXP SWAP1 DIV PUSH20 0xFFFFFFFFFFFFFFFFFFFFFFFFFFFFFFFFFFFFFFFF AND DUP2 JUMP JUMPDEST PUSH1 0x83 PUSH1 0x1 SWAP1 SLOAD SWAP1 PUSH2 0x100 EXP SWAP1 DIV PUSH1 0xFF AND DUP2 JUMP JUMPDEST PUSH1 0x4 DUP2 JUMP JUMPDEST PUSH1 0x8C PUSH1 0x20 MSTORE DUP1 PUSH1 0x0 MSTORE PUSH1 0x40 PUSH1 0x0 KECCAK256 PUSH1 0x0 SWAP2 POP SLOAD SWAP1 PUSH2 0x100 EXP SWAP1 DIV PUSH1 0xFF AND DUP2 JUMP JUMPDEST PUSH1 0x85 PUSH1 0x20 MSTORE DUP1 PUSH1 0x0 MSTORE PUSH1 0x40 PUSH1 0x0 KECCAK256 PUSH1 0x0 SWAP2 POP SWAP1 POP SLOAD DUP2 JUMP JUMPDEST PUSH1 0x87 PUSH1 0x20 MSTORE DUP2 PUSH1 0x0 MSTORE PUSH1 0x40 PUSH1 0x0 KECCAK256 PUSH1 0x20 MSTORE DUP1 PUSH1 0x0 MSTORE PUSH1 0x40 PUSH1 0x0 KECCAK256 PUSH1 0x0 SWAP2 POP SWAP2 POP SWAP1 SLOAD SWAP1 PUSH2 0x100 EXP SWAP1 DIV PUSH1 0xFF AND DUP2 JUMP JUMPDEST PUSH1 0x0 DUP1 DUP4 PUSH1 0x20 ADD MLOAD PUSH1 0xFF AND SWAP1 POP PUSH1 0x0 PUSH1 0x5 DUP2 GT ISZERO PUSH2 0x3570 JUMPI PUSH2 0x356F PUSH2 0x4730 JUMP JUMPDEST JUMPDEST DUP5 PUSH1 0x0 ADD MLOAD PUSH1 0x5 DUP2 GT ISZERO PUSH2 0x3587 JUMPI PUSH2 0x3586 PUSH2 0x4730 JUMP JUMPDEST JUMPDEST EQ ISZERO PUSH2 0x36BD JUMPI PUSH1 0x5 DUP1 DUP2 GT ISZERO PUSH2 0x35A0 JUMPI PUSH2 0x359F PUSH2 0x4730 JUMP JUMPDEST JUMPDEST DUP4 PUSH1 0x0 ADD MLOAD PUSH1 0x5 DUP2 GT ISZERO PUSH2 0x35B7 JUMPI PUSH2 0x35B6 PUSH2 0x4730 JUMP JUMPDEST JUMPDEST EQ ISZERO PUSH2 0x35D1 JUMPI PUSH1 0x2 DUP2 PUSH2 0x35CA SWAP2 SWAP1 PUSH2 0x44E0 JUMP JUMPDEST SWAP1 POP PUSH2 0x36B8 JUMP JUMPDEST PUSH1 0x1 PUSH1 0x5 DUP2 GT ISZERO PUSH2 0x35E5 JUMPI PUSH2 0x35E4 PUSH2 0x4730 JUMP JUMPDEST JUMPDEST DUP4 PUSH1 0x0 ADD MLOAD PUSH1 0x5 DUP2 GT ISZERO PUSH2 0x35FC JUMPI PUSH2 0x35FB PUSH2 0x4730 JUMP JUMPDEST JUMPDEST EQ DUP1 PUSH2 0x3630 JUMPI POP PUSH1 0x2 PUSH1 0x5 DUP2 GT ISZERO PUSH2 0x3617 JUMPI PUSH2 0x3616 PUSH2 0x4730 JUMP JUMPDEST JUMPDEST DUP4 PUSH1 0x0 ADD MLOAD PUSH1 0x5 DUP2 GT ISZERO PUSH2 0x362E JUMPI PUSH2 0x362D PUSH2 0x4730 JUMP JUMPDEST JUMPDEST EQ JUMPDEST DUP1 PUSH2 0x3663 JUMPI POP PUSH1 0x3 PUSH1 0x5 DUP2 GT ISZERO PUSH2 0x364A JUMPI PUSH2 0x3649 PUSH2 0x4730 JUMP JUMPDEST JUMPDEST DUP4 PUSH1 0x0 ADD MLOAD PUSH1 0x5 DUP2 GT ISZERO PUSH2 0x3661 JUMPI PUSH2 0x3660 PUSH2 0x4730 JUMP JUMPDEST JUMPDEST EQ JUMPDEST DUP1 PUSH2 0x3696 JUMPI POP PUSH1 0x4 PUSH1 0x5 DUP2 GT ISZERO PUSH2 0x367D JUMPI PUSH2 0x367C PUSH2 0x4730 JUMP JUMPDEST JUMPDEST DUP4 PUSH1 0x0 ADD MLOAD PUSH1 0x5 DUP2 GT ISZERO PUSH2 0x3694 JUMPI PUSH2 0x3693 PUSH2 0x4730 JUMP JUMPDEST JUMPDEST EQ JUMPDEST ISZERO PUSH2 0x36B7 JUMPI PUSH1 0x7D PUSH1 0x64 DUP3 PUSH2 0x36AA SWAP2 SWAP1 PUSH2 0x44E0 JUMP JUMPDEST PUSH2 0x36B4 SWAP2 SWAP1 PUSH2 0x447E JUMP JUMPDEST SWAP1 POP JUMPDEST JUMPDEST PUSH2 0x3C34 JUMP JUMPDEST PUSH1 0x5 DUP1 DUP2 GT ISZERO PUSH2 0x36D0 JUMPI PUSH2 0x36CF PUSH2 0x4730 JUMP JUMPDEST JUMPDEST DUP5 PUSH1 0x0 ADD MLOAD PUSH1 0x5 DUP2 GT ISZERO PUSH2 0x36E7 JUMPI PUSH2 0x36E6 PUSH2 0x4730 JUMP JUMPDEST JUMPDEST EQ ISZERO PUSH2 0x381E JUMPI PUSH1 0x1 PUSH1 0x5 DUP2 GT ISZERO PUSH2 0x3701 JUMPI PUSH2 0x3700 PUSH2 0x4730 JUMP JUMPDEST JUMPDEST DUP4 PUSH1 0x0 ADD MLOAD PUSH1 0x5 DUP2 GT ISZERO PUSH2 0x3718 JUMPI PUSH2 0x3717 PUSH2 0x4730 JUMP JUMPDEST JUMPDEST EQ DUP1 PUSH2 0x374C JUMPI POP PUSH1 0x2 PUSH1 0x5 DUP2 GT ISZERO PUSH2 0x3733 JUMPI PUSH2 0x3732 PUSH2 0x4730 JUMP JUMPDEST JUMPDEST DUP4 PUSH1 0x0 ADD MLOAD PUSH1 0x5 DUP2 GT ISZERO PUSH2 0x374A JUMPI PUSH2 0x3749 PUSH2 0x4730 JUMP JUMPDEST JUMPDEST EQ JUMPDEST DUP1 PUSH2 0x377F JUMPI POP PUSH1 0x3 PUSH1 0x5 DUP2 GT ISZERO PUSH2 0x3766 JUMPI PUSH2 0x3765 PUSH2 0x4730 JUMP JUMPDEST JUMPDEST DUP4 PUSH1 0x0 ADD MLOAD PUSH1 0x5 DUP2 GT ISZERO PUSH2 0x377D JUMPI PUSH2 0x377C PUSH2 0x4730 JUMP JUMPDEST JUMPDEST EQ JUMPDEST DUP1 PUSH2 0x37B2 JUMPI POP PUSH1 0x4 PUSH1 0x5 DUP2 GT ISZERO PUSH2 0x3799 JUMPI PUSH2 0x3798 PUSH2 0x4730 JUMP JUMPDEST JUMPDEST DUP4 PUSH1 0x0 ADD MLOAD PUSH1 0x5 DUP2 GT ISZERO PUSH2 0x37B0 JUMPI PUSH2 0x37AF PUSH2 0x4730 JUMP JUMPDEST JUMPDEST EQ JUMPDEST ISZERO PUSH2 0x37D7 JUMPI PUSH1 0x64 PUSH1 0x7D DUP3 PUSH2 0x37C6 SWAP2 SWAP1 PUSH2 0x44E0 JUMP JUMPDEST PUSH2 0x37D0 SWAP2 SWAP1 PUSH2 0x447E JUMP JUMPDEST SWAP1 POP PUSH2 0x3819 JUMP JUMPDEST PUSH1 0x0 PUSH1 0x5 DUP2 GT ISZERO PUSH2 0x37EB JUMPI PUSH2 0x37EA PUSH2 0x4730 JUMP JUMPDEST JUMPDEST DUP4 PUSH1 0x0 ADD MLOAD PUSH1 0x5 DUP2 GT ISZERO PUSH2 0x3802 JUMPI PUSH2 0x3801 PUSH2 0x4730 JUMP JUMPDEST JUMPDEST EQ ISZERO PUSH2 0x3818 JUMPI PUSH1 0x2 DUP2 PUSH2 0x3815 SWAP2 SWAP1 PUSH2 0x447E JUMP JUMPDEST SWAP1 POP JUMPDEST JUMPDEST PUSH2 0x3C33 JUMP JUMPDEST PUSH1 0x0 PUSH1 0x5 DUP2 GT ISZERO PUSH2 0x3832 JUMPI PUSH2 0x3831 PUSH2 0x4730 JUMP JUMPDEST JUMPDEST DUP4 PUSH1 0x0 ADD MLOAD PUSH1 0x5 DUP2 GT ISZERO PUSH2 0x3849 JUMPI PUSH2 0x3848 PUSH2 0x4730 JUMP JUMPDEST JUMPDEST EQ ISZERO PUSH2 0x386F JUMPI PUSH1 0x64 PUSH1 0x7D DUP3 PUSH2 0x385E SWAP2 SWAP1 PUSH2 0x44E0 JUMP JUMPDEST PUSH2 0x3868 SWAP2 SWAP1 PUSH2 0x447E JUMP JUMPDEST SWAP1 POP PUSH2 0x3C32 JUMP JUMPDEST PUSH1 0x5 DUP1 DUP2 GT ISZERO PUSH2 0x3882 JUMPI PUSH2 0x3881 PUSH2 0x4730 JUMP JUMPDEST JUMPDEST DUP4 PUSH1 0x0 ADD MLOAD PUSH1 0x5 DUP2 GT ISZERO PUSH2 0x3899 JUMPI PUSH2 0x3898 PUSH2 0x4730 JUMP JUMPDEST JUMPDEST EQ ISZERO PUSH2 0x38BF JUMPI PUSH1 0x7D PUSH1 0x64 DUP3 PUSH2 0x38AE SWAP2 SWAP1 PUSH2 0x44E0 JUMP JUMPDEST PUSH2 0x38B8 SWAP2 SWAP1 PUSH2 0x447E JUMP JUMPDEST SWAP1 POP PUSH2 0x3C31 JUMP JUMPDEST PUSH1 0x1 PUSH1 0x5 DUP2 GT ISZERO PUSH2 0x38D3 JUMPI PUSH2 0x38D2 PUSH2 0x4730 JUMP JUMPDEST JUMPDEST DUP5 PUSH1 0x0 ADD MLOAD PUSH1 0x5 DUP2 GT ISZERO PUSH2 0x38EA JUMPI PUSH2 0x38E9 PUSH2 0x4730 JUMP JUMPDEST JUMPDEST EQ DUP1 ISZERO PUSH2 0x391F JUMPI POP PUSH1 0x3 PUSH1 0x5 DUP2 GT ISZERO PUSH2 0x3906 JUMPI PUSH2 0x3905 PUSH2 0x4730 JUMP JUMPDEST JUMPDEST DUP4 PUSH1 0x0 ADD MLOAD PUSH1 0x5 DUP2 GT ISZERO PUSH2 0x391D JUMPI PUSH2 0x391C PUSH2 0x4730 JUMP JUMPDEST JUMPDEST EQ JUMPDEST DUP1 PUSH2 0x3986 JUMPI POP PUSH1 0x3 PUSH1 0x5 DUP2 GT ISZERO PUSH2 0x3939 JUMPI PUSH2 0x3938 PUSH2 0x4730 JUMP JUMPDEST JUMPDEST DUP5 PUSH1 0x0 ADD MLOAD PUSH1 0x5 DUP2 GT ISZERO PUSH2 0x3950 JUMPI PUSH2 0x394F PUSH2 0x4730 JUMP JUMPDEST JUMPDEST EQ DUP1 ISZERO PUSH2 0x3985 JUMPI POP PUSH1 0x4 PUSH1 0x5 DUP2 GT ISZERO PUSH2 0x396C JUMPI PUSH2 0x396B PUSH2 0x4730 JUMP JUMPDEST JUMPDEST DUP4 PUSH1 0x0 ADD MLOAD PUSH1 0x5 DUP2 GT ISZERO PUSH2 0x3983 JUMPI PUSH2 0x3982 PUSH2 0x4730 JUMP JUMPDEST JUMPDEST EQ JUMPDEST JUMPDEST DUP1 PUSH2 0x39ED JUMPI POP PUSH1 0x4 PUSH1 0x5 DUP2 GT ISZERO PUSH2 0x39A0 JUMPI PUSH2 0x399F PUSH2 0x4730 JUMP JUMPDEST JUMPDEST DUP5 PUSH1 0x0 ADD MLOAD PUSH1 0x5 DUP2 GT ISZERO PUSH2 0x39B7 JUMPI PUSH2 0x39B6 PUSH2 0x4730 JUMP JUMPDEST JUMPDEST EQ DUP1 ISZERO PUSH2 0x39EC JUMPI POP PUSH1 0x2 PUSH1 0x5 DUP2 GT ISZERO PUSH2 0x39D3 JUMPI PUSH2 0x39D2 PUSH2 0x4730 JUMP JUMPDEST JUMPDEST DUP4 PUSH1 0x0 ADD MLOAD PUSH1 0x5 DUP2 GT ISZERO PUSH2 0x39EA JUMPI PUSH2 0x39E9 PUSH2 0x4730 JUMP JUMPDEST JUMPDEST EQ JUMPDEST JUMPDEST DUP1 PUSH2 0x3A54 JUMPI POP PUSH1 0x2 PUSH1 0x5 DUP2 GT ISZERO PUSH2 0x3A07 JUMPI PUSH2 0x3A06 PUSH2 0x4730 JUMP JUMPDEST JUMPDEST DUP5 PUSH1 0x0 ADD MLOAD PUSH1 0x5 DUP2 GT ISZERO PUSH2 0x3A1E JUMPI PUSH2 0x3A1D PUSH2 0x4730 JUMP JUMPDEST JUMPDEST EQ DUP1 ISZERO PUSH2 0x3A53 JUMPI POP PUSH1 0x1 PUSH1 0x5 DUP2 GT ISZERO PUSH2 0x3A3A JUMPI PUSH2 0x3A39 PUSH2 0x4730 JUMP JUMPDEST JUMPDEST DUP4 PUSH1 0x0 ADD MLOAD PUSH1 0x5 DUP2 GT ISZERO PUSH2 0x3A51 JUMPI PUSH2 0x3A50 PUSH2 0x4730 JUMP JUMPDEST JUMPDEST EQ JUMPDEST JUMPDEST ISZERO PUSH2 0x3A79 JUMPI PUSH1 0xA PUSH1 0xF DUP3 PUSH2 0x3A68 SWAP2 SWAP1 PUSH2 0x44E0 JUMP JUMPDEST PUSH2 0x3A72 SWAP2 SWAP1 PUSH2 0x447E JUMP JUMPDEST SWAP1 POP PUSH2 0x3C30 JUMP JUMPDEST PUSH1 0x3 PUSH1 0x5 DUP2 GT ISZERO PUSH2 0x3A8D JUMPI PUSH2 0x3A8C PUSH2 0x4730 JUMP JUMPDEST JUMPDEST DUP5 PUSH1 0x0 ADD MLOAD PUSH1 0x5 DUP2 GT ISZERO PUSH2 0x3AA4 JUMPI PUSH2 0x3AA3 PUSH2 0x4730 JUMP JUMPDEST JUMPDEST EQ DUP1 ISZERO PUSH2 0x3AD9 JUMPI POP PUSH1 0x1 PUSH1 0x5 DUP2 GT ISZERO PUSH2 0x3AC0 JUMPI PUSH2 0x3ABF PUSH2 0x4730 JUMP JUMPDEST JUMPDEST DUP4 PUSH1 0x0 ADD MLOAD PUSH1 0x5 DUP2 GT ISZERO PUSH2 0x3AD7 JUMPI PUSH2 0x3AD6 PUSH2 0x4730 JUMP JUMPDEST JUMPDEST EQ JUMPDEST DUP1 PUSH2 0x3B40 JUMPI POP PUSH1 0x4 PUSH1 0x5 DUP2 GT ISZERO PUSH2 0x3AF3 JUMPI PUSH2 0x3AF2 PUSH2 0x4730 JUMP JUMPDEST JUMPDEST DUP5 PUSH1 0x0 ADD MLOAD PUSH1 0x5 DUP2 GT ISZERO PUSH2 0x3B0A JUMPI PUSH2 0x3B09 PUSH2 0x4730 JUMP JUMPDEST JUMPDEST EQ DUP1 ISZERO PUSH2 0x3B3F JUMPI POP PUSH1 0x3 PUSH1 0x5 DUP2 GT ISZERO PUSH2 0x3B26 JUMPI PUSH2 0x3B25 PUSH2 0x4730 JUMP JUMPDEST JUMPDEST DUP4 PUSH1 0x0 ADD MLOAD PUSH1 0x5 DUP2 GT ISZERO PUSH2 0x3B3D JUMPI PUSH2 0x3B3C PUSH2 0x4730 JUMP JUMPDEST JUMPDEST EQ JUMPDEST JUMPDEST DUP1 PUSH2 0x3BA7 JUMPI POP PUSH1 0x2 PUSH1 0x5 DUP2 GT ISZERO PUSH2 0x3B5A JUMPI PUSH2 0x3B59 PUSH2 0x4730 JUMP JUMPDEST JUMPDEST DUP5 PUSH1 0x0 ADD MLOAD PUSH1 0x5 DUP2 GT ISZERO PUSH2 0x3B71 JUMPI PUSH2 0x3B70 PUSH2 0x4730 JUMP JUMPDEST JUMPDEST EQ DUP1 ISZERO PUSH2 0x3BA6 JUMPI POP PUSH1 0x4 PUSH1 0x5 DUP2 GT ISZERO PUSH2 0x3B8D JUMPI PUSH2 0x3B8C PUSH2 0x4730 JUMP JUMPDEST JUMPDEST DUP4 PUSH1 0x0 ADD MLOAD PUSH1 0x5 DUP2 GT ISZERO PUSH2 0x3BA4 JUMPI PUSH2 0x3BA3 PUSH2 0x4730 JUMP JUMPDEST JUMPDEST EQ JUMPDEST JUMPDEST DUP1 PUSH2 0x3C0E JUMPI POP PUSH1 0x1 PUSH1 0x5 DUP2 GT ISZERO PUSH2 0x3BC1 JUMPI PUSH2 0x3BC0 PUSH2 0x4730 JUMP JUMPDEST JUMPDEST DUP5 PUSH1 0x0 ADD MLOAD PUSH1 0x5 DUP2 GT ISZERO PUSH2 0x3BD8 JUMPI PUSH2 0x3BD7 PUSH2 0x4730 JUMP JUMPDEST JUMPDEST EQ DUP1 ISZERO PUSH2 0x3C0D JUMPI POP PUSH1 0x2 PUSH1 0x5 DUP2 GT ISZERO PUSH2 0x3BF4 JUMPI PUSH2 0x3BF3 PUSH2 0x4730 JUMP JUMPDEST JUMPDEST DUP4 PUSH1 0x0 ADD MLOAD PUSH1 0x5 DUP2 GT ISZERO PUSH2 0x3C0B JUMPI PUSH2 0x3C0A PUSH2 0x4730 JUMP JUMPDEST JUMPDEST EQ JUMPDEST JUMPDEST ISZERO PUSH2 0x3C2F JUMPI PUSH1 0xF PUSH1 0xA DUP3 PUSH2 0x3C22 SWAP2 SWAP1 PUSH2 0x44E0 JUMP JUMPDEST PUSH2 0x3C2C SWAP2 SWAP1 PUSH2 0x447E JUMP JUMPDEST SWAP1 POP JUMPDEST JUMPDEST JUMPDEST JUMPDEST JUMPDEST JUMPDEST DUP1 SWAP2 POP POP SWAP3 SWAP2 POP POP JUMP JUMPDEST POP DUP1 PUSH1 0x8 PUSH1 0x10 MUL ADD SWAP1 PUSH2 0x3C51 SWAP2 SWAP1 PUSH2 0x3C54 JUMP JUMPDEST POP JUMP JUMPDEST JUMPDEST DUP1 DUP3 GT ISZERO PUSH2 0x3C74 JUMPI PUSH1 0x0 DUP2 DUP2 PUSH2 0x3C6B SWAP2 SWAP1 PUSH2 0x3C78 JUMP JUMPDEST POP PUSH1 0x10 ADD PUSH2 0x3C55 JUMP JUMPDEST POP SWAP1 JUMP JUMPDEST POP DUP1 PUSH1 0x8 PUSH1 0x2 MUL ADD SWAP1 PUSH2 0x3C8B SWAP2 SWAP1 PUSH2 0x3C8E JUMP JUMPDEST POP JUMP JUMPDEST JUMPDEST DUP1 DUP3 GT ISZERO PUSH2 0x3CF8 JUMPI PUSH1 0x0 DUP1 DUP3 ADD PUSH1 0x0 PUSH2 0x100 EXP DUP2 SLOAD SWAP1 PUSH1 0xFF MUL NOT AND SWAP1 SSTORE PUSH1 0x0 DUP3 ADD PUSH1 0x1 PUSH2 0x100 EXP DUP2 SLOAD SWAP1 PUSH1 0xFF MUL NOT AND SWAP1 SSTORE PUSH1 0x0 DUP3 ADD PUSH1 0x2 PUSH2 0x100 EXP DUP2 SLOAD SWAP1 PUSH20 0xFFFFFFFFFFFFFFFFFFFFFFFFFFFFFFFFFFFFFFFF MUL NOT AND SWAP1 SSTORE PUSH1 0x1 DUP3 ADD PUSH1 0x0 SWAP1 SSTORE POP PUSH1 0x2 ADD PUSH2 0x3C8F JUMP JUMPDEST POP SWAP1 JUMP JUMPDEST PUSH1 0x0 DUP2 CALLDATALOAD SWAP1 POP PUSH2 0x3D0B DUP2 PUSH2 0x490F JUMP JUMPDEST SWAP3 SWAP2 POP POP JUMP JUMPDEST PUSH1 0x0 DUP2 CALLDATALOAD SWAP1 POP PUSH2 0x3D20 DUP2 PUSH2 0x4926 JUMP JUMPDEST SWAP3 SWAP2 POP POP JUMP JUMPDEST PUSH1 0x0 DUP2 CALLDATALOAD SWAP1 POP PUSH2 0x3D35 DUP2 PUSH2 0x4936 JUMP JUMPDEST SWAP3 SWAP2 POP POP JUMP JUMPDEST PUSH1 0x0 DUP2 CALLDATALOAD SWAP1 POP PUSH2 0x3D4A DUP2 PUSH2 0x494D JUMP JUMPDEST SWAP3 SWAP2 POP POP JUMP JUMPDEST PUSH1 0x0 PUSH1 0x20 DUP3 DUP5 SUB SLT ISZERO PUSH2 0x3D66 JUMPI PUSH2 0x3D65 PUSH2 0x478E JUMP JUMPDEST JUMPDEST PUSH1 0x0 PUSH2 0x3D74 DUP5 DUP3 DUP6 ADD PUSH2 0x3CFC JUMP JUMPDEST SWAP2 POP POP SWAP3 SWAP2 POP POP JUMP JUMPDEST PUSH1 0x0 DUP1 PUSH1 0x40 DUP4 DUP6 SUB SLT ISZERO PUSH2 0x3D94 JUMPI PUSH2 0x3D93 PUSH2 0x478E JUMP JUMPDEST JUMPDEST PUSH1 0x0 PUSH2 0x3DA2 DUP6 DUP3 DUP7 ADD PUSH2 0x3CFC JUMP JUMPDEST SWAP3 POP POP PUSH1 0x20 PUSH2 0x3DB3 DUP6 DUP3 DUP7 ADD PUSH2 0x3D26 JUMP JUMPDEST SWAP2 POP POP SWAP3 POP SWAP3 SWAP1 POP JUMP JUMPDEST PUSH1 0x0 PUSH1 0x20 DUP3 DUP5 SUB SLT ISZERO PUSH2 0x3DD3 JUMPI PUSH2 0x3DD2 PUSH2 0x478E JUMP JUMPDEST JUMPDEST PUSH1 0x0 PUSH2 0x3DE1 DUP5 DUP3 DUP6 ADD PUSH2 0x3D26 JUMP JUMPDEST SWAP2 POP POP SWAP3 SWAP2 POP POP JUMP JUMPDEST PUSH1 0x0 DUP1 PUSH1 0x40 DUP4 DUP6 SUB SLT ISZERO PUSH2 0x3E01 JUMPI PUSH2 0x3E00 PUSH2 0x478E JUMP JUMPDEST JUMPDEST PUSH1 0x0 PUSH2 0x3E0F DUP6 DUP3 DUP7 ADD PUSH2 0x3D26 JUMP JUMPDEST SWAP3 POP POP PUSH1 0x20 PUSH2 0x3E20 DUP6 DUP3 DUP7 ADD PUSH2 0x3CFC JUMP JUMPDEST SWAP2 POP POP SWAP3 POP SWAP3 SWAP1 POP JUMP JUMPDEST PUSH1 0x0 DUP1 PUSH1 0x0 PUSH1 0x60 DUP5 DUP7 SUB SLT ISZERO PUSH2 0x3E43 JUMPI PUSH2 0x3E42 PUSH2 0x478E JUMP JUMPDEST JUMPDEST PUSH1 0x0 PUSH2 0x3E51 DUP7 DUP3 DUP8 ADD PUSH2 0x3D26 JUMP JUMPDEST SWAP4 POP POP PUSH1 0x20 PUSH2 0x3E62 DUP7 DUP3 DUP8 ADD PUSH2 0x3CFC JUMP JUMPDEST SWAP3 POP POP PUSH1 0x40 PUSH2 0x3E73 DUP7 DUP3 DUP8 ADD PUSH2 0x3CFC JUMP JUMPDEST SWAP2 POP POP SWAP3 POP SWAP3 POP SWAP3 JUMP JUMPDEST PUSH1 0x0 DUP1 PUSH1 0x40 DUP4 DUP6 SUB SLT ISZERO PUSH2 0x3E94 JUMPI PUSH2 0x3E93 PUSH2 0x478E JUMP JUMPDEST JUMPDEST PUSH1 0x0 PUSH2 0x3EA2 DUP6 DUP3 DUP7 ADD PUSH2 0x3D26 JUMP JUMPDEST SWAP3 POP POP PUSH1 0x20 PUSH2 0x3EB3 DUP6 DUP3 DUP7 ADD PUSH2 0x3D26 JUMP JUMPDEST SWAP2 POP POP SWAP3 POP SWAP3 SWAP1 POP JUMP JUMPDEST PUSH1 0x0 DUP1 PUSH1 0x0 DUP1 PUSH1 0x80 DUP6 DUP8 SUB SLT ISZERO PUSH2 0x3ED7 JUMPI PUSH2 0x3ED6 PUSH2 0x478E JUMP JUMPDEST JUMPDEST PUSH1 0x0 PUSH2 0x3EE5 DUP8 DUP3 DUP9 ADD PUSH2 0x3D3B JUMP JUMPDEST SWAP5 POP POP PUSH1 0x20 PUSH2 0x3EF6 DUP8 DUP3 DUP9 ADD PUSH2 0x3D3B JUMP JUMPDEST SWAP4 POP POP PUSH1 0x40 PUSH2 0x3F07 DUP8 DUP3 DUP9 ADD PUSH2 0x3D11 JUMP JUMPDEST SWAP3 POP POP PUSH1 0x60 PUSH2 0x3F18 DUP8 DUP3 DUP9 ADD PUSH2 0x3D3B JUMP JUMPDEST SWAP2 POP POP SWAP3 SWAP6 SWAP2 SWAP5 POP SWAP3 POP JUMP JUMPDEST PUSH1 0x0 DUP1 PUSH1 0x0 PUSH1 0x60 DUP5 DUP7 SUB SLT ISZERO PUSH2 0x3F3D JUMPI PUSH2 0x3F3C PUSH2 0x478E JUMP JUMPDEST JUMPDEST PUSH1 0x0 PUSH2 0x3F4B DUP7 DUP3 DUP8 ADD PUSH2 0x3D3B JUMP JUMPDEST SWAP4 POP POP PUSH1 0x20 PUSH2 0x3F5C DUP7 DUP3 DUP8 ADD PUSH2 0x3D3B JUMP JUMPDEST SWAP3 POP POP PUSH1 0x40 PUSH2 0x3F6D DUP7 DUP3 DUP8 ADD PUSH2 0x3D3B JUMP JUMPDEST SWAP2 POP POP SWAP3 POP SWAP3 POP SWAP3 JUMP JUMPDEST PUSH1 0x0 DUP1 PUSH1 0x0 DUP1 PUSH1 0x80 DUP6 DUP8 SUB SLT ISZERO PUSH2 0x3F91 JUMPI PUSH2 0x3F90 PUSH2 0x478E JUMP JUMPDEST JUMPDEST PUSH1 0x0 PUSH2 0x3F9F DUP8 DUP3 DUP9 ADD PUSH2 0x3D3B JUMP JUMPDEST SWAP5 POP POP PUSH1 0x20 PUSH2 0x3FB0 DUP8 DUP3 DUP9 ADD PUSH2 0x3D3B JUMP JUMPDEST SWAP4 POP POP PUSH1 0x40 PUSH2 0x3FC1 DUP8 DUP3 DUP9 ADD PUSH2 0x3D3B JUMP JUMPDEST SWAP3 POP POP PUSH1 0x60 PUSH2 0x3FD2 DUP8 DUP3 DUP9 ADD PUSH2 0x3D3B JUMP JUMPDEST SWAP2 POP POP SWAP3 SWAP6 SWAP2 SWAP5 POP SWAP3 POP JUMP JUMPDEST PUSH2 0x3FE7 DUP2 PUSH2 0x4619 JUMP JUMPDEST DUP3 MSTORE POP POP JUMP JUMPDEST PUSH2 0x3FF6 DUP2 PUSH2 0x462B JUMP JUMPDEST DUP3 MSTORE POP POP JUMP JUMPDEST PUSH2 0x4005 DUP2 PUSH2 0x468F JUMP JUMPDEST DUP3 MSTORE POP POP JUMP JUMPDEST PUSH1 0x0 PUSH2 0x4018 PUSH1 0x21 DUP4 PUSH2 0x43E0 JUMP JUMPDEST SWAP2 POP PUSH2 0x4023 DUP3 PUSH2 0x4793 JUMP JUMPDEST PUSH1 0x40 DUP3 ADD SWAP1 POP SWAP2 SWAP1 POP JUMP JUMPDEST PUSH1 0x0 PUSH2 0x403B PUSH1 0x1F DUP4 PUSH2 0x43E0 JUMP JUMPDEST SWAP2 POP PUSH2 0x4046 DUP3 PUSH2 0x47E2 JUMP JUMPDEST PUSH1 0x20 DUP3 ADD SWAP1 POP SWAP2 SWAP1 POP JUMP JUMPDEST PUSH1 0x0 PUSH2 0x405E PUSH1 0x2F DUP4 PUSH2 0x43E0 JUMP JUMPDEST SWAP2 POP PUSH2 0x4069 DUP3 PUSH2 0x480B JUMP JUMPDEST PUSH1 0x40 DUP3 ADD SWAP1 POP SWAP2 SWAP1 POP JUMP JUMPDEST PUSH1 0x0 PUSH2 0x4081 PUSH1 0x18 DUP4 PUSH2 0x43E0 JUMP JUMPDEST SWAP2 POP PUSH2 0x408C DUP3 PUSH2 0x485A JUMP JUMPDEST PUSH1 0x20 DUP3 ADD SWAP1 POP SWAP2 SWAP1 POP JUMP JUMPDEST PUSH1 0x0 PUSH2 0x40A4 PUSH1 0x22 DUP4 PUSH2 0x43E0 JUMP JUMPDEST SWAP2 POP PUSH2 0x40AF DUP3 PUSH2 0x4883 JUMP JUMPDEST PUSH1 0x40 DUP3 ADD SWAP1 POP SWAP2 SWAP1 POP JUMP JUMPDEST PUSH1 0x0 PUSH2 0x40C7 PUSH1 0x17 DUP4 PUSH2 0x43E0 JUMP JUMPDEST SWAP2 POP PUSH2 0x40D2 DUP3 PUSH2 0x48D2 JUMP JUMPDEST PUSH1 0x20 DUP3 ADD SWAP1 POP SWAP2 SWAP1 POP JUMP JUMPDEST PUSH2 0x40E6 DUP2 PUSH2 0x4678 JUMP JUMPDEST DUP3 MSTORE POP POP JUMP JUMPDEST PUSH2 0x40F5 DUP2 PUSH2 0x4682 JUMP JUMPDEST DUP3 MSTORE POP POP JUMP JUMPDEST PUSH1 0x0 PUSH1 0x20 DUP3 ADD SWAP1 POP PUSH2 0x4110 PUSH1 0x0 DUP4 ADD DUP5 PUSH2 0x3FDE JUMP JUMPDEST SWAP3 SWAP2 POP POP JUMP JUMPDEST PUSH1 0x0 PUSH1 0x60 DUP3 ADD SWAP1 POP PUSH2 0x412B PUSH1 0x0 DUP4 ADD DUP7 PUSH2 0x3FDE JUMP JUMPDEST PUSH2 0x4138 PUSH1 0x20 DUP4 ADD DUP6 PUSH2 0x3FDE JUMP JUMPDEST PUSH2 0x4145 PUSH1 0x40 DUP4 ADD DUP5 PUSH2 0x40DD JUMP JUMPDEST SWAP5 SWAP4 POP POP POP POP JUMP JUMPDEST PUSH1 0x0 PUSH1 0x40 DUP3 ADD SWAP1 POP PUSH2 0x4162 PUSH1 0x0 DUP4 ADD DUP6 PUSH2 0x3FDE JUMP JUMPDEST PUSH2 0x416F PUSH1 0x20 DUP4 ADD DUP5 PUSH2 0x40DD JUMP JUMPDEST SWAP4 SWAP3 POP POP POP JUMP JUMPDEST PUSH1 0x0 PUSH1 0xA0 DUP3 ADD SWAP1 POP PUSH2 0x418B PUSH1 0x0 DUP4 ADD DUP9 PUSH2 0x3FDE JUMP JUMPDEST PUSH2 0x4198 PUSH1 0x20 DUP4 ADD DUP8 PUSH2 0x40EC JUMP JUMPDEST PUSH2 0x41A5 PUSH1 0x40 DUP4 ADD DUP7 PUSH2 0x40EC JUMP JUMPDEST PUSH2 0x41B2 PUSH1 0x60 DUP4 ADD DUP6 PUSH2 0x3FFC JUMP JUMPDEST PUSH2 0x41BF PUSH1 0x80 DUP4 ADD DUP5 PUSH2 0x40EC JUMP JUMPDEST SWAP7 SWAP6 POP POP POP POP POP POP JUMP JUMPDEST PUSH1 0x0 PUSH1 0x80 DUP3 ADD SWAP1 POP PUSH2 0x41DE PUSH1 0x0 DUP4 ADD DUP8 PUSH2 0x3FDE JUMP JUMPDEST PUSH2 0x41EB PUSH1 0x20 DUP4 ADD DUP7 PUSH2 0x40EC JUMP JUMPDEST PUSH2 0x41F8 PUSH1 0x40 DUP4 ADD DUP6 PUSH2 0x40EC JUMP JUMPDEST PUSH2 0x4205 PUSH1 0x60 DUP4 ADD DUP5 PUSH2 0x40EC JUMP JUMPDEST SWAP6 SWAP5 POP POP POP POP POP JUMP JUMPDEST PUSH1 0x0 PUSH1 0xA0 DUP3 ADD SWAP1 POP PUSH2 0x4223 PUSH1 0x0 DUP4 ADD DUP9 PUSH2 0x3FDE JUMP JUMPDEST PUSH2 0x4230 PUSH1 0x20 DUP4 ADD DUP8 PUSH2 0x40EC JUMP JUMPDEST PUSH2 0x423D PUSH1 0x40 DUP4 ADD DUP7 PUSH2 0x40EC JUMP JUMPDEST PUSH2 0x424A PUSH1 0x60 DUP4 ADD DUP6 PUSH2 0x40EC JUMP JUMPDEST PUSH2 0x4257 PUSH1 0x80 DUP4 ADD DUP5 PUSH2 0x40EC JUMP JUMPDEST SWAP7 SWAP6 POP POP POP POP POP POP JUMP JUMPDEST PUSH1 0x0 PUSH1 0x20 DUP3 ADD SWAP1 POP PUSH2 0x4276 PUSH1 0x0 DUP4 ADD DUP5 PUSH2 0x3FED JUMP JUMPDEST SWAP3 SWAP2 POP POP JUMP JUMPDEST PUSH1 0x0 PUSH1 0x80 DUP3 ADD SWAP1 POP PUSH2 0x4291 PUSH1 0x0 DUP4 ADD DUP8 PUSH2 0x3FFC JUMP JUMPDEST PUSH2 0x429E PUSH1 0x20 DUP4 ADD DUP7 PUSH2 0x40EC JUMP JUMPDEST PUSH2 0x42AB PUSH1 0x40 DUP4 ADD DUP6 PUSH2 0x3FDE JUMP JUMPDEST PUSH2 0x42B8 PUSH1 0x60 DUP4 ADD DUP5 PUSH2 0x40DD JUMP JUMPDEST SWAP6 SWAP5 POP POP POP POP POP JUMP JUMPDEST PUSH1 0x0 PUSH1 0x20 DUP3 ADD SWAP1 POP DUP2 DUP2 SUB PUSH1 0x0 DUP4 ADD MSTORE PUSH2 0x42DA DUP2 PUSH2 0x400B JUMP JUMPDEST SWAP1 POP SWAP2 SWAP1 POP JUMP JUMPDEST PUSH1 0x0 PUSH1 0x20 DUP3 ADD SWAP1 POP DUP2 DUP2 SUB PUSH1 0x0 DUP4 ADD MSTORE PUSH2 0x42FA DUP2 PUSH2 0x402E JUMP JUMPDEST SWAP1 POP SWAP2 SWAP1 POP JUMP JUMPDEST PUSH1 0x0 PUSH1 0x20 DUP3 ADD SWAP1 POP DUP2 DUP2 SUB PUSH1 0x0 DUP4 ADD MSTORE PUSH2 0x431A DUP2 PUSH2 0x4051 JUMP JUMPDEST SWAP1 POP SWAP2 SWAP1 POP JUMP JUMPDEST PUSH1 0x0 PUSH1 0x20 DUP3 ADD SWAP1 POP DUP2 DUP2 SUB PUSH1 0x0 DUP4 ADD MSTORE PUSH2 0x433A DUP2 PUSH2 0x4074 JUMP JUMPDEST SWAP1 POP SWAP2 SWAP1 POP JUMP JUMPDEST PUSH1 0x0 PUSH1 0x20 DUP3 ADD SWAP1 POP DUP2 DUP2 SUB PUSH1 0x0 DUP4 ADD MSTORE PUSH2 0x435A DUP2 PUSH2 0x4097 JUMP JUMPDEST SWAP1 POP SWAP2 SWAP1 POP JUMP JUMPDEST PUSH1 0x0 PUSH1 0x20 DUP3 ADD SWAP1 POP DUP2 DUP2 SUB PUSH1 0x0 DUP4 ADD MSTORE PUSH2 0x437A DUP2 PUSH2 0x40BA JUMP JUMPDEST SWAP1 POP SWAP2 SWAP1 POP JUMP JUMPDEST PUSH1 0x0 PUSH1 0x20 DUP3 ADD SWAP1 POP PUSH2 0x4396 PUSH1 0x0 DUP4 ADD DUP5 PUSH2 0x40DD JUMP JUMPDEST SWAP3 SWAP2 POP POP JUMP JUMPDEST PUSH1 0x0 PUSH1 0x40 DUP3 ADD SWAP1 POP PUSH2 0x43B1 PUSH1 0x0 DUP4 ADD DUP6 PUSH2 0x40DD JUMP JUMPDEST PUSH2 0x43BE PUSH1 0x20 DUP4 ADD DUP5 PUSH2 0x3FDE JUMP JUMPDEST SWAP4 SWAP3 POP POP POP JUMP JUMPDEST PUSH1 0x0 PUSH1 0x20 DUP3 ADD SWAP1 POP PUSH2 0x43DA PUSH1 0x0 DUP4 ADD DUP5 PUSH2 0x40EC JUMP JUMPDEST SWAP3 SWAP2 POP POP JUMP JUMPDEST PUSH1 0x0 DUP3 DUP3 MSTORE PUSH1 0x20 DUP3 ADD SWAP1 POP SWAP3 SWAP2 POP POP JUMP JUMPDEST PUSH1 0x0 PUSH2 0x43FC DUP3 PUSH2 0x4678 JUMP JUMPDEST SWAP2 POP PUSH2 0x4407 DUP4 PUSH2 0x4678 JUMP JUMPDEST SWAP3 POP DUP3 PUSH32 0xFFFFFFFFFFFFFFFFFFFFFFFFFFFFFFFFFFFFFFFFFFFFFFFFFFFFFFFFFFFFFFFF SUB DUP3 GT ISZERO PUSH2 0x443C JUMPI PUSH2 0x443B PUSH2 0x46D2 JUMP JUMPDEST JUMPDEST DUP3 DUP3 ADD SWAP1 POP SWAP3 SWAP2 POP POP JUMP JUMPDEST PUSH1 0x0 PUSH2 0x4452 DUP3 PUSH2 0x4682 JUMP JUMPDEST SWAP2 POP PUSH2 0x445D DUP4 PUSH2 0x4682 JUMP JUMPDEST SWAP3 POP DUP3 PUSH1 0xFF SUB DUP3 GT ISZERO PUSH2 0x4473 JUMPI PUSH2 0x4472 PUSH2 0x46D2 JUMP JUMPDEST JUMPDEST DUP3 DUP3 ADD SWAP1 POP SWAP3 SWAP2 POP POP JUMP JUMPDEST PUSH1 0x0 PUSH2 0x4489 DUP3 PUSH2 0x464A JUMP JUMPDEST SWAP2 POP PUSH2 0x4494 DUP4 PUSH2 0x464A JUMP JUMPDEST SWAP3 POP DUP3 PUSH2 0x44A4 JUMPI PUSH2 0x44A3 PUSH2 0x4701 JUMP JUMPDEST JUMPDEST DUP3 DUP3 DIV SWAP1 POP SWAP3 SWAP2 POP POP JUMP JUMPDEST PUSH1 0x0 PUSH2 0x44BA DUP3 PUSH2 0x4678 JUMP JUMPDEST SWAP2 POP PUSH2 0x44C5 DUP4 PUSH2 0x4678 JUMP JUMPDEST SWAP3 POP DUP3 PUSH2 0x44D5 JUMPI PUSH2 0x44D4 PUSH2 0x4701 JUMP JUMPDEST JUMPDEST DUP3 DUP3 DIV SWAP1 POP SWAP3 SWAP2 POP POP JUMP JUMPDEST PUSH1 0x0 PUSH2 0x44EB DUP3 PUSH2 0x464A JUMP JUMPDEST SWAP2 POP PUSH2 0x44F6 DUP4 PUSH2 0x464A JUMP JUMPDEST SWAP3 POP DUP2 PUSH2 0xFFFF DIV DUP4 GT DUP3 ISZERO ISZERO AND ISZERO PUSH2 0x4511 JUMPI PUSH2 0x4510 PUSH2 0x46D2 JUMP JUMPDEST JUMPDEST DUP3 DUP3 MUL SWAP1 POP SWAP3 SWAP2 POP POP JUMP JUMPDEST PUSH1 0x0 PUSH2 0x4527 DUP3 PUSH2 0x4678 JUMP JUMPDEST SWAP2 POP PUSH2 0x4532 DUP4 PUSH2 0x4678 JUMP JUMPDEST SWAP3 POP DUP2 PUSH32 0xFFFFFFFFFFFFFFFFFFFFFFFFFFFFFFFFFFFFFFFFFFFFFFFFFFFFFFFFFFFFFFFF DIV DUP4 GT DUP3 ISZERO ISZERO AND ISZERO PUSH2 0x456B JUMPI PUSH2 0x456A PUSH2 0x46D2 JUMP JUMPDEST JUMPDEST DUP3 DUP3 MUL SWAP1 POP SWAP3 SWAP2 POP POP JUMP JUMPDEST PUSH1 0x0 PUSH2 0x4581 DUP3 PUSH2 0x4682 JUMP JUMPDEST SWAP2 POP PUSH2 0x458C DUP4 PUSH2 0x4682 JUMP JUMPDEST SWAP3 POP DUP2 PUSH1 0xFF DIV DUP4 GT DUP3 ISZERO ISZERO AND ISZERO PUSH2 0x45A6 JUMPI PUSH2 0x45A5 PUSH2 0x46D2 JUMP JUMPDEST JUMPDEST DUP3 DUP3 MUL SWAP1 POP SWAP3 SWAP2 POP POP JUMP JUMPDEST PUSH1 0x0 PUSH2 0x45BC DUP3 PUSH2 0x4678 JUMP JUMPDEST SWAP2 POP PUSH2 0x45C7 DUP4 PUSH2 0x4678 JUMP JUMPDEST SWAP3 POP DUP3 DUP3 LT ISZERO PUSH2 0x45DA JUMPI PUSH2 0x45D9 PUSH2 0x46D2 JUMP JUMPDEST JUMPDEST DUP3 DUP3 SUB SWAP1 POP SWAP3 SWAP2 POP POP JUMP JUMPDEST PUSH1 0x0 PUSH2 0x45F0 DUP3 PUSH2 0x4682 JUMP JUMPDEST SWAP2 POP PUSH2 0x45FB DUP4 PUSH2 0x4682 JUMP JUMPDEST SWAP3 POP DUP3 DUP3 LT ISZERO PUSH2 0x460E JUMPI PUSH2 0x460D PUSH2 0x46D2 JUMP JUMPDEST JUMPDEST DUP3 DUP3 SUB SWAP1 POP SWAP3 SWAP2 POP POP JUMP JUMPDEST PUSH1 0x0 PUSH2 0x4624 DUP3 PUSH2 0x4658 JUMP JUMPDEST SWAP1 POP SWAP2 SWAP1 POP JUMP JUMPDEST PUSH1 0x0 DUP2 ISZERO ISZERO SWAP1 POP SWAP2 SWAP1 POP JUMP JUMPDEST PUSH1 0x0 DUP2 SWAP1 POP PUSH2 0x4645 DUP3 PUSH2 0x48FB JUMP JUMPDEST SWAP2 SWAP1 POP JUMP JUMPDEST PUSH1 0x0 PUSH2 0xFFFF DUP3 AND SWAP1 POP SWAP2 SWAP1 POP JUMP JUMPDEST PUSH1 0x0 PUSH20 0xFFFFFFFFFFFFFFFFFFFFFFFFFFFFFFFFFFFFFFFF DUP3 AND SWAP1 POP SWAP2 SWAP1 POP JUMP JUMPDEST PUSH1 0x0 DUP2 SWAP1 POP SWAP2 SWAP1 POP JUMP JUMPDEST PUSH1 0x0 PUSH1 0xFF DUP3 AND SWAP1 POP SWAP2 SWAP1 POP JUMP JUMPDEST PUSH1 0x0 PUSH2 0x469A DUP3 PUSH2 0x4637 JUMP JUMPDEST SWAP1 POP SWAP2 SWAP1 POP JUMP JUMPDEST PUSH1 0x0 PUSH2 0x46AC DUP3 PUSH2 0x4678 JUMP JUMPDEST SWAP2 POP PUSH2 0x46B7 DUP4 PUSH2 0x4678 JUMP JUMPDEST SWAP3 POP DUP3 PUSH2 0x46C7 JUMPI PUSH2 0x46C6 PUSH2 0x4701 JUMP JUMPDEST JUMPDEST DUP3 DUP3 MOD SWAP1 POP SWAP3 SWAP2 POP POP JUMP JUMPDEST PUSH32 0x4E487B7100000000000000000000000000000000000000000000000000000000 PUSH1 0x0 MSTORE PUSH1 0x11 PUSH1 0x4 MSTORE PUSH1 0x24 PUSH1 0x0 REVERT JUMPDEST PUSH32 0x4E487B7100000000000000000000000000000000000000000000000000000000 PUSH1 0x0 MSTORE PUSH1 0x12 PUSH1 0x4 MSTORE PUSH1 0x24 PUSH1 0x0 REVERT JUMPDEST PUSH32 0x4E487B7100000000000000000000000000000000000000000000000000000000 PUSH1 0x0 MSTORE PUSH1 0x21 PUSH1 0x4 MSTORE PUSH1 0x24 PUSH1 0x0 REVERT JUMPDEST PUSH32 0x4E487B7100000000000000000000000000000000000000000000000000000000 PUSH1 0x0 MSTORE PUSH1 0x32 PUSH1 0x4 MSTORE PUSH1 0x24 PUSH1 0x0 REVERT JUMPDEST PUSH1 0x0 DUP1 REVERT JUMPDEST PUSH32 0x45786365656473206D617820756E697420636F756E7473207065722073706163 PUSH1 0x0 DUP3 ADD MSTORE PUSH32 0x6500000000000000000000000000000000000000000000000000000000000000 PUSH1 0x20 DUP3 ADD MSTORE POP JUMP JUMPDEST PUSH32 0x5761697420756E74696C206E65787420626C6F636B20746F2061747461636B00 PUSH1 0x0 DUP3 ADD MSTORE POP JUMP JUMPDEST PUSH32 0x4F6E6C792073756D6D6F6E206E65787420746F207370616365206F6363757069 PUSH1 0x0 DUP3 ADD MSTORE PUSH32 0x656420627920796F75722061726D790000000000000000000000000000000000 PUSH1 0x20 DUP3 ADD MSTORE POP JUMP JUMPDEST PUSH32 0x4F6E6C7920617070656E6420746F20796F75722061726D790000000000000000 PUSH1 0x0 DUP3 ADD MSTORE POP JUMP JUMPDEST PUSH32 0x45786365656473206D617820656E74657220636F756E74732070657220626C6F PUSH1 0x0 DUP3 ADD MSTORE PUSH32 0x636B000000000000000000000000000000000000000000000000000000000000 PUSH1 0x20 DUP3 ADD MSTORE POP JUMP JUMPDEST PUSH32 0x54686973207370616365206973206E6F7420656D707479000000000000000000 PUSH1 0x0 DUP3 ADD MSTORE POP JUMP JUMPDEST PUSH1 0x6 DUP2 LT PUSH2 0x490C JUMPI PUSH2 0x490B PUSH2 0x4730 JUMP JUMPDEST JUMPDEST POP JUMP JUMPDEST PUSH2 0x4918 DUP2 PUSH2 0x4619 JUMP JUMPDEST DUP2 EQ PUSH2 0x4923 JUMPI PUSH1 0x0 DUP1 REVERT JUMPDEST POP JUMP JUMPDEST PUSH1 0x6 DUP2 LT PUSH2 0x4933 JUMPI PUSH1 0x0 DUP1 REVERT JUMPDEST POP JUMP JUMPDEST PUSH2 0x493F DUP2 PUSH2 0x4678 JUMP JUMPDEST DUP2 EQ PUSH2 0x494A JUMPI PUSH1 0x0 DUP1 REVERT JUMPDEST POP JUMP JUMPDEST PUSH2 0x4956 DUP2 PUSH2 0x4682 JUMP JUMPDEST DUP2 EQ PUSH2 0x4961 JUMPI PUSH1 0x0 DUP1 REVERT JUMPDEST POP JUMP INVALID LOG2 PUSH5 0x6970667358 0x22 SLT KECCAK256 PUSH16 0x7CF27E1944249D8132A36ACA72FC7C0A PUSH27 0xB6170E455A28073A809E9225FE4864736F6C634300080500330000 "
        },
        "methodIdentifiers": {
          "BASE_MAP_H()": "83ab6d13",
          "BASE_MAP_W()": "ec7f8288",
          "BASE_SUMMON_ENERGY()": "88e8e53b",
          "ENERGY_PRICE()": "96ff66c2",
          "MAX_ENTER_COUNT_PER_BLOCK()": "c0145d8d",
          "MAX_MAP_H()": "219467b4",
          "MAX_MAP_W()": "9e20a269",
          "MAX_UNIT_COUNT()": "ba9ae481",
          "appendUnits(uint8,uint8,uint8)": "568305b3",
          "attack(uint8,uint8,uint8,uint8)": "1097bcf5",
          "buyEnergy()": "39e765a1",
          "changeDevSupporter(address)": "1616df50",
          "changeDeveloper(address)": "31119b4d",
          "createArmy(uint8,uint8,uint8,uint8)": "23c834bc",
          "devSupporter()": "3d5425fe",
          "developer()": "ca4b208b",
          "energies(address)": "ba0380b2",
          "energySupported(uint256,address,address)": "8ba2c280",
          "energyTaken(uint256,address)": "bde1847c",
          "energyUsed(uint256,address)": "9eae6f26",
          "enterCountsPerBlock(uint256)": "f0204194",
          "map(uint256,uint256)": "a90b9128",
          "mapHeight()": "e70b5259",
          "mapWidth()": "8d049190",
          "occupyCounts(uint256,address)": "4f0a1eb2",
          "rewards(uint256)": "f301af42",
          "season()": "c50b0fb0",
          "support(address,uint256)": "36c96cc0",
          "supporterWithdraw(uint256)": "0fcf06a2",
          "supporterWithdrawns(uint256,address)": "fd48d4a6",
          "winners(uint256)": "a2fb1175"
        }
      }
    }
  }
}