{
  "_format": "hh-sol-artifact-1",
  "contractName": "SixElements",
  "sourceName": "contracts/SixElements.sol",
  "abi": [
    {
      "inputs": [
        {
          "internalType": "address",
          "name": "_devSupporter",
          "type": "address"
        }
      ],
      "stateMutability": "nonpayable",
      "type": "constructor"
    },
    {
      "anonymous": false,
      "inputs": [
        {
          "indexed": false,
          "internalType": "address",
          "name": "player",
          "type": "address"
        },
        {
          "indexed": false,
          "internalType": "uint8",
          "name": "x",
          "type": "uint8"
        },
        {
          "indexed": false,
          "internalType": "uint8",
          "name": "y",
          "type": "uint8"
        },
        {
          "indexed": false,
          "internalType": "uint8",
          "name": "unitCount",
          "type": "uint8"
        }
      ],
      "name": "AppendUnits",
      "type": "event"
    },
    {
      "anonymous": false,
      "inputs": [
        {
          "indexed": false,
          "internalType": "address",
          "name": "player",
          "type": "address"
        },
        {
          "indexed": false,
          "internalType": "uint8",
          "name": "fromX",
          "type": "uint8"
        },
        {
          "indexed": false,
          "internalType": "uint8",
          "name": "fromY",
          "type": "uint8"
        },
        {
          "indexed": false,
          "internalType": "uint8",
          "name": "toX",
          "type": "uint8"
        },
        {
          "indexed": false,
          "internalType": "uint8",
          "name": "toY",
          "type": "uint8"
        }
      ],
      "name": "Attack",
      "type": "event"
    },
    {
      "anonymous": false,
      "inputs": [
        {
          "indexed": false,
          "internalType": "address",
          "name": "player",
          "type": "address"
        },
        {
          "indexed": false,
          "internalType": "uint256",
          "name": "quantity",
          "type": "uint256"
        }
      ],
      "name": "BuyEnergy",
      "type": "event"
    },
    {
      "anonymous": false,
      "inputs": [
        {
          "indexed": false,
          "internalType": "address",
          "name": "player",
          "type": "address"
        },
        {
          "indexed": false,
          "internalType": "uint8",
          "name": "x",
          "type": "uint8"
        },
        {
          "indexed": false,
          "internalType": "uint8",
          "name": "y",
          "type": "uint8"
        },
        {
          "indexed": false,
          "internalType": "enum SixElements.ArmyKind",
          "name": "kind",
          "type": "uint8"
        },
        {
          "indexed": false,
          "internalType": "uint8",
          "name": "unitCount",
          "type": "uint8"
        }
      ],
      "name": "CreateArmy",
      "type": "event"
    },
    {
      "anonymous": false,
      "inputs": [
        {
          "indexed": false,
          "internalType": "uint256",
          "name": "season",
          "type": "uint256"
        },
        {
          "indexed": false,
          "internalType": "address",
          "name": "winner",
          "type": "address"
        }
      ],
      "name": "EndSeason",
      "type": "event"
    },
    {
      "anonymous": false,
      "inputs": [
        {
          "indexed": false,
          "internalType": "address",
          "name": "player",
          "type": "address"
        },
        {
          "indexed": false,
          "internalType": "uint8",
          "name": "x",
          "type": "uint8"
        },
        {
          "indexed": false,
          "internalType": "uint8",
          "name": "y",
          "type": "uint8"
        },
        {
          "indexed": false,
          "internalType": "enum SixElements.ArmyKind",
          "name": "kind",
          "type": "uint8"
        },
        {
          "indexed": false,
          "internalType": "uint8",
          "name": "unitCount",
          "type": "uint8"
        }
      ],
      "name": "JoinGame",
      "type": "event"
    },
    {
      "anonymous": false,
      "inputs": [
        {
          "indexed": false,
          "internalType": "address",
          "name": "supporter",
          "type": "address"
        },
        {
          "indexed": false,
          "internalType": "address",
          "name": "to",
          "type": "address"
        },
        {
          "indexed": false,
          "internalType": "uint256",
          "name": "quantity",
          "type": "uint256"
        }
      ],
      "name": "Support",
      "type": "event"
    },
    {
      "anonymous": false,
      "inputs": [
        {
          "indexed": false,
          "internalType": "address",
          "name": "player",
          "type": "address"
        },
        {
          "indexed": false,
          "internalType": "uint256",
          "name": "quantity",
          "type": "uint256"
        }
      ],
      "name": "UseEnergy",
      "type": "event"
    },
    {
      "inputs": [],
      "name": "BASE_MAP_H",
      "outputs": [
        {
          "internalType": "uint8",
          "name": "",
          "type": "uint8"
        }
      ],
      "stateMutability": "view",
      "type": "function"
    },
    {
      "inputs": [],
      "name": "BASE_MAP_W",
      "outputs": [
        {
          "internalType": "uint8",
          "name": "",
          "type": "uint8"
        }
      ],
      "stateMutability": "view",
      "type": "function"
    },
    {
      "inputs": [],
      "name": "BASE_SUMMON_ENERGY",
      "outputs": [
        {
          "internalType": "uint8",
          "name": "",
          "type": "uint8"
        }
      ],
      "stateMutability": "view",
      "type": "function"
    },
    {
      "inputs": [],
      "name": "ENERGY_PRICE",
      "outputs": [
        {
          "internalType": "uint256",
          "name": "",
          "type": "uint256"
        }
      ],
      "stateMutability": "view",
      "type": "function"
    },
    {
      "inputs": [],
      "name": "MAX_ENTER_COUNT_PER_BLOCK",
      "outputs": [
        {
          "internalType": "uint8",
          "name": "",
          "type": "uint8"
        }
      ],
      "stateMutability": "view",
      "type": "function"
    },
    {
      "inputs": [],
      "name": "MAX_MAP_H",
      "outputs": [
        {
          "internalType": "uint8",
          "name": "",
          "type": "uint8"
        }
      ],
      "stateMutability": "view",
      "type": "function"
    },
    {
      "inputs": [],
      "name": "MAX_MAP_W",
      "outputs": [
        {
          "internalType": "uint8",
          "name": "",
          "type": "uint8"
        }
      ],
      "stateMutability": "view",
      "type": "function"
    },
    {
      "inputs": [],
      "name": "MAX_UNIT_COUNT",
      "outputs": [
        {
          "internalType": "uint8",
          "name": "",
          "type": "uint8"
        }
      ],
      "stateMutability": "view",
      "type": "function"
    },
    {
      "inputs": [
        {
          "internalType": "uint8",
          "name": "x",
          "type": "uint8"
        },
        {
          "internalType": "uint8",
          "name": "y",
          "type": "uint8"
        },
        {
          "internalType": "uint8",
          "name": "unitCount",
          "type": "uint8"
        }
      ],
      "name": "appendUnits",
      "outputs": [],
      "stateMutability": "payable",
      "type": "function"
    },
    {
      "inputs": [
        {
          "internalType": "uint8",
          "name": "fromX",
          "type": "uint8"
        },
        {
          "internalType": "uint8",
          "name": "fromY",
          "type": "uint8"
        },
        {
          "internalType": "uint8",
          "name": "toX",
          "type": "uint8"
        },
        {
          "internalType": "uint8",
          "name": "toY",
          "type": "uint8"
        }
      ],
      "name": "attack",
      "outputs": [],
      "stateMutability": "nonpayable",
      "type": "function"
    },
    {
      "inputs": [],
      "name": "buyEnergy",
      "outputs": [],
      "stateMutability": "payable",
      "type": "function"
    },
    {
      "inputs": [
        {
          "internalType": "address",
          "name": "newDevSupporter",
          "type": "address"
        }
      ],
      "name": "changeDevSupporter",
      "outputs": [],
      "stateMutability": "nonpayable",
      "type": "function"
    },
    {
      "inputs": [
        {
          "internalType": "address",
          "name": "newDeveloper",
          "type": "address"
        }
      ],
      "name": "changeDeveloper",
      "outputs": [],
      "stateMutability": "nonpayable",
      "type": "function"
    },
    {
      "inputs": [
        {
          "internalType": "uint8",
          "name": "x",
          "type": "uint8"
        },
        {
          "internalType": "uint8",
          "name": "y",
          "type": "uint8"
        },
        {
          "internalType": "enum SixElements.ArmyKind",
          "name": "kind",
          "type": "uint8"
        },
        {
          "internalType": "uint8",
          "name": "unitCount",
          "type": "uint8"
        }
      ],
      "name": "createArmy",
      "outputs": [],
      "stateMutability": "payable",
      "type": "function"
    },
    {
      "inputs": [],
      "name": "devSupporter",
      "outputs": [
        {
          "internalType": "address",
          "name": "",
          "type": "address"
        }
      ],
      "stateMutability": "view",
      "type": "function"
    },
    {
      "inputs": [],
      "name": "developer",
      "outputs": [
        {
          "internalType": "address",
          "name": "",
          "type": "address"
        }
      ],
      "stateMutability": "view",
      "type": "function"
    },
    {
      "inputs": [
        {
          "internalType": "address",
          "name": "",
          "type": "address"
        }
      ],
      "name": "energies",
      "outputs": [
        {
          "internalType": "uint256",
          "name": "",
          "type": "uint256"
        }
      ],
      "stateMutability": "view",
      "type": "function"
    },
    {
      "inputs": [
        {
          "internalType": "uint256",
          "name": "",
          "type": "uint256"
        },
        {
          "internalType": "address",
          "name": "",
          "type": "address"
        },
        {
          "internalType": "address",
          "name": "",
          "type": "address"
        }
      ],
      "name": "energySupported",
      "outputs": [
        {
          "internalType": "uint256",
          "name": "",
          "type": "uint256"
        }
      ],
      "stateMutability": "view",
      "type": "function"
    },
    {
      "inputs": [
        {
          "internalType": "uint256",
          "name": "",
          "type": "uint256"
        },
        {
          "internalType": "address",
          "name": "",
          "type": "address"
        }
      ],
      "name": "energyTaken",
      "outputs": [
        {
          "internalType": "uint256",
          "name": "",
          "type": "uint256"
        }
      ],
      "stateMutability": "view",
      "type": "function"
    },
    {
      "inputs": [
        {
          "internalType": "uint256",
          "name": "",
          "type": "uint256"
        },
        {
          "internalType": "address",
          "name": "",
          "type": "address"
        }
      ],
      "name": "energyUsed",
      "outputs": [
        {
          "internalType": "uint256",
          "name": "",
          "type": "uint256"
        }
      ],
      "stateMutability": "view",
      "type": "function"
    },
    {
      "inputs": [
        {
          "internalType": "uint256",
          "name": "",
          "type": "uint256"
        }
      ],
      "name": "enterCountsPerBlock",
      "outputs": [
        {
          "internalType": "uint8",
          "name": "",
          "type": "uint8"
        }
      ],
      "stateMutability": "view",
      "type": "function"
    },
    {
      "inputs": [
        {
          "internalType": "uint256",
          "name": "",
          "type": "uint256"
        },
        {
          "internalType": "uint256",
          "name": "",
          "type": "uint256"
        }
      ],
      "name": "map",
      "outputs": [
        {
          "internalType": "enum SixElements.ArmyKind",
          "name": "kind",
          "type": "uint8"
        },
        {
          "internalType": "uint8",
          "name": "unitCount",
          "type": "uint8"
        },
        {
          "internalType": "address",
          "name": "owner",
          "type": "address"
        },
        {
          "internalType": "uint256",
          "name": "blockNumber",
          "type": "uint256"
        }
      ],
      "stateMutability": "view",
      "type": "function"
    },
    {
      "inputs": [],
      "name": "mapHeight",
      "outputs": [
        {
          "internalType": "uint8",
          "name": "",
          "type": "uint8"
        }
      ],
      "stateMutability": "view",
      "type": "function"
    },
    {
      "inputs": [],
      "name": "mapWidth",
      "outputs": [
        {
          "internalType": "uint8",
          "name": "",
          "type": "uint8"
        }
      ],
      "stateMutability": "view",
      "type": "function"
    },
    {
      "inputs": [
        {
          "internalType": "uint256",
          "name": "",
          "type": "uint256"
        },
        {
          "internalType": "address",
          "name": "",
          "type": "address"
        }
      ],
      "name": "occupyCounts",
      "outputs": [
        {
          "internalType": "uint8",
          "name": "",
          "type": "uint8"
        }
      ],
      "stateMutability": "view",
      "type": "function"
    },
    {
      "inputs": [
        {
          "internalType": "uint256",
          "name": "",
          "type": "uint256"
        }
      ],
      "name": "rewards",
      "outputs": [
        {
          "internalType": "uint256",
          "name": "",
          "type": "uint256"
        }
      ],
      "stateMutability": "view",
      "type": "function"
    },
    {
      "inputs": [],
      "name": "season",
      "outputs": [
        {
          "internalType": "uint256",
          "name": "",
          "type": "uint256"
        }
      ],
      "stateMutability": "view",
      "type": "function"
    },
    {
      "inputs": [
        {
          "internalType": "address",
          "name": "to",
          "type": "address"
        },
        {
          "internalType": "uint256",
          "name": "quantity",
          "type": "uint256"
        }
      ],
      "name": "support",
      "outputs": [],
      "stateMutability": "payable",
      "type": "function"
    },
    {
      "inputs": [
        {
          "internalType": "uint256",
          "name": "targetSeason",
          "type": "uint256"
        }
      ],
      "name": "supporterWithdraw",
      "outputs": [],
      "stateMutability": "nonpayable",
      "type": "function"
    },
    {
      "inputs": [
        {
          "internalType": "uint256",
          "name": "",
          "type": "uint256"
        },
        {
          "internalType": "address",
          "name": "",
          "type": "address"
        }
      ],
      "name": "supporterWithdrawns",
      "outputs": [
        {
          "internalType": "bool",
          "name": "",
          "type": "bool"
        }
      ],
      "stateMutability": "view",
      "type": "function"
    },
    {
      "inputs": [
        {
          "internalType": "uint256",
          "name": "",
          "type": "uint256"
        }
      ],
      "name": "winners",
      "outputs": [
        {
          "internalType": "address",
          "name": "",
          "type": "address"
        }
      ],
      "stateMutability": "view",
      "type": "function"
    }
  ],
  "bytecode": "0x60806040526004608360006101000a81548160ff021916908360ff1602179055506004608360016101000a81548160ff021916908360ff16021790555060006084553480156200004e57600080fd5b5060405162004b4238038062004b42833981810160405281019062000074919062000113565b336000806101000a81548173ffffffffffffffffffffffffffffffffffffffff021916908373ffffffffffffffffffffffffffffffffffffffff16021790555080600160006101000a81548173ffffffffffffffffffffffffffffffffffffffff021916908373ffffffffffffffffffffffffffffffffffffffff1602179055505062000198565b6000815190506200010d816200017e565b92915050565b6000602082840312156200012c576200012b62000179565b5b60006200013c84828501620000fc565b91505092915050565b6000620001528262000159565b9050919050565b600073ffffffffffffffffffffffffffffffffffffffff82169050919050565b600080fd5b620001898162000145565b81146200019557600080fd5b50565b61499a80620001a86000396000f3fe6080604052600436106101d85760003560e01c806396ff66c211610102578063c0145d8d11610095578063ec7f828811610064578063ec7f828814610691578063f0204194146106bc578063f301af42146106f9578063fd48d4a614610736576101d8565b8063c0145d8d146105e5578063c50b0fb014610610578063ca4b208b1461063b578063e70b525914610666576101d8565b8063a90b9128116100d1578063a90b912814610500578063ba0380b214610540578063ba9ae4811461057d578063bde1847c146105a8576101d8565b806396ff66c2146104305780639e20a2691461045b5780639eae6f2614610486578063a2fb1175146104c3576101d8565b806339e765a11161017a57806383ab6d131161014957806383ab6d131461037257806388e8e53b1461039d5780638ba2c280146103c85780638d04919014610405576101d8565b806339e765a1146102e45780633d5425fe146102ee5780634f0a1eb214610319578063568305b314610356576101d8565b8063219467b4116101b6578063219467b41461025857806323c834bc1461028357806331119b4d1461029f57806336c96cc0146102c8576101d8565b80630fcf06a2146101dd5780631097bcf5146102065780631616df501461022f575b600080fd5b3480156101e957600080fd5b5061020460048036038101906101ff9190613dbd565b610773565b005b34801561021257600080fd5b5061022d60048036038101906102289190613f77565b610a37565b005b34801561023b57600080fd5b5061025660048036038101906102519190613d50565b611968565b005b34801561026457600080fd5b5061026d611a06565b60405161027a91906143c5565b60405180910390f35b61029d60048036038101906102989190613ebd565b611a0b565b005b3480156102ab57600080fd5b506102c660048036038101906102c19190613d50565b612ac2565b005b6102e260048036038101906102dd9190613d7d565b612b5d565b005b6102ec612d98565b005b3480156102fa57600080fd5b50610303612f76565b60405161031091906140fb565b60405180910390f35b34801561032557600080fd5b50610340600480360381019061033b9190613dea565b612f9c565b60405161034d91906143c5565b60405180910390f35b610370600480360381019061036b9190613f24565b612fcb565b005b34801561037e57600080fd5b50610387613326565b60405161039491906143c5565b60405180910390f35b3480156103a957600080fd5b506103b261332b565b6040516103bf91906143c5565b60405180910390f35b3480156103d457600080fd5b506103ef60048036038101906103ea9190613e2a565b613330565b6040516103fc9190614381565b60405180910390f35b34801561041157600080fd5b5061041a613362565b60405161042791906143c5565b60405180910390f35b34801561043c57600080fd5b50610445613375565b6040516104529190614381565b60405180910390f35b34801561046757600080fd5b5061047061337f565b60405161047d91906143c5565b60405180910390f35b34801561049257600080fd5b506104ad60048036038101906104a89190613dea565b613384565b6040516104ba9190614381565b60405180910390f35b3480156104cf57600080fd5b506104ea60048036038101906104e59190613dbd565b6133a9565b6040516104f791906140fb565b60405180910390f35b34801561050c57600080fd5b5061052760048036038101906105229190613e7d565b6133dc565b604051610537949392919061427c565b60405180910390f35b34801561054c57600080fd5b5061056760048036038101906105629190613d50565b61345f565b6040516105749190614381565b60405180910390f35b34801561058957600080fd5b50610592613477565b60405161059f91906143c5565b60405180910390f35b3480156105b457600080fd5b506105cf60048036038101906105ca9190613dea565b61347c565b6040516105dc9190614381565b60405180910390f35b3480156105f157600080fd5b506105fa6134a1565b60405161060791906143c5565b60405180910390f35b34801561061c57600080fd5b506106256134a6565b6040516106329190614381565b60405180910390f35b34801561064757600080fd5b506106506134ac565b60405161065d91906140fb565b60405180910390f35b34801561067257600080fd5b5061067b6134d0565b60405161068891906143c5565b60405180910390f35b34801561069d57600080fd5b506106a66134e3565b6040516106b391906143c5565b60405180910390f35b3480156106c857600080fd5b506106e360048036038101906106de9190613dbd565b6134e8565b6040516106f091906143c5565b60405180910390f35b34801561070557600080fd5b50610720600480360381019061071b9190613dbd565b613508565b60405161072d9190614381565b60405180910390f35b34801561074257600080fd5b5061075d60048036038101906107589190613dea565b613520565b60405161076a9190614261565b60405180910390f35b608454811061078157600080fd5b600115156087600083815260200190815260200160002060003373ffffffffffffffffffffffffffffffffffffffff1673ffffffffffffffffffffffffffffffffffffffff16815260200190815260200160002060009054906101000a900460ff16151514156107f057600080fd5b60016087600083815260200190815260200160002060003373ffffffffffffffffffffffffffffffffffffffff1673ffffffffffffffffffffffffffffffffffffffff16815260200190815260200160002060006101000a81548160ff0219169083151502179055503373ffffffffffffffffffffffffffffffffffffffff166108fc6089600084815260200190815260200160002060003373ffffffffffffffffffffffffffffffffffffffff1673ffffffffffffffffffffffffffffffffffffffff168152602001908152602001600020546088600085815260200190815260200160002060003373ffffffffffffffffffffffffffffffffffffffff1673ffffffffffffffffffffffffffffffffffffffff1681526020019081526020016000205461091f91906143f1565b608a600085815260200190815260200160002060003373ffffffffffffffffffffffffffffffffffffffff1673ffffffffffffffffffffffffffffffffffffffff16815260200190815260200160002060006086600087815260200190815260200160002060009054906101000a900473ffffffffffffffffffffffffffffffffffffffff1673ffffffffffffffffffffffffffffffffffffffff1673ffffffffffffffffffffffffffffffffffffffff1681526020019081526020016000205460856000868152602001908152602001600020546109fe919061451c565b610a0891906144af565b9081150290604051600060405180830381858888f19350505050158015610a33573d6000803e3d6000fd5b5050565b608360009054906101000a900460ff1660ff168460ff16108015610a6f5750608360019054906101000a900460ff1660ff168360ff16105b610a7857600080fd5b608360009054906101000a900460ff1660ff168260ff16108015610ab05750608360019054906101000a900460ff1660ff168160ff16105b610ab957600080fd5b60018160ff168460ff1610610ad9578184610ad491906145e5565b610ae6565b8382610ae591906145e5565b5b8360ff168660ff1610610b04578386610aff91906145e5565b610b11565b8584610b1091906145e5565b5b610b1b9190614447565b60ff1614610b2857600080fd5b600060038460ff1660088110610b4157610b4061475f565b5b601002018560ff1660088110610b5a57610b5961475f565b5b600202019050600060038360ff1660088110610b7957610b7861475f565b5b601002018460ff1660088110610b9257610b9161475f565b5b6002020190503373ffffffffffffffffffffffffffffffffffffffff168260000160029054906101000a900473ffffffffffffffffffffffffffffffffffffffff1673ffffffffffffffffffffffffffffffffffffffff1614610bf457600080fd5b43826001015410610c3a576040517f08c379a0000000000000000000000000000000000000000000000000000000008152600401610c31906142e1565b60405180910390fd5b600073ffffffffffffffffffffffffffffffffffffffff168160000160029054906101000a900473ffffffffffffffffffffffffffffffffffffffff1673ffffffffffffffffffffffffffffffffffffffff161415610e3a578160038460ff1660088110610cab57610caa61475f565b5b601002018560ff1660088110610cc457610cc361475f565b5b600202016000820160009054906101000a900460ff168160000160006101000a81548160ff02191690836005811115610d0057610cff614730565b5b02179055506000820160019054906101000a900460ff168160000160016101000a81548160ff021916908360ff1602179055506000820160029054906101000a900473ffffffffffffffffffffffffffffffffffffffff168160000160026101000a81548173ffffffffffffffffffffffffffffffffffffffff021916908373ffffffffffffffffffffffffffffffffffffffff1602179055506001820154816001015590505060038560ff1660088110610dbe57610dbd61475f565b5b601002018660ff1660088110610dd757610dd661475f565b5b60020201600080820160006101000a81549060ff02191690556000820160016101000a81549060ff02191690556000820160026101000a81549073ffffffffffffffffffffffffffffffffffffffff021916905560018201600090555050611921565b3373ffffffffffffffffffffffffffffffffffffffff168160000160029054906101000a900473ffffffffffffffffffffffffffffffffffffffff1673ffffffffffffffffffffffffffffffffffffffff161415611098578160000160009054906101000a900460ff166005811115610eb657610eb5614730565b5b8160000160009054906101000a900460ff166005811115610eda57610ed9614730565b5b14610ee457600080fd5b60008260000160019054906101000a900460ff168260000160019054906101000a900460ff16610f149190614447565b9050601e60ff168160ff161115610f60576040517f08c379a0000000000000000000000000000000000000000000000000000000008152600401610f57906142c1565b60405180910390fd5b808260000160016101000a81548160ff021916908360ff1602179055506001608b6000608454815260200190815260200160002060003373ffffffffffffffffffffffffffffffffffffffff1673ffffffffffffffffffffffffffffffffffffffff16815260200190815260200160002060008282829054906101000a900460ff16610fec91906145e5565b92506101000a81548160ff021916908360ff16021790555060038660ff166008811061101b5761101a61475f565b5b601002018760ff16600881106110345761103361475f565b5b60020201600080820160006101000a81549060ff02191690556000820160016101000a81549060ff02191690556000820160026101000a81549073ffffffffffffffffffffffffffffffffffffffff02191690556001820160009055505050611920565b600061122a836040518060800160405290816000820160009054906101000a900460ff1660058111156110ce576110cd614730565b5b60058111156110e0576110df614730565b5b81526020016000820160019054906101000a900460ff1660ff1660ff1681526020016000820160029054906101000a900473ffffffffffffffffffffffffffffffffffffffff1673ffffffffffffffffffffffffffffffffffffffff1673ffffffffffffffffffffffffffffffffffffffff168152602001600182015481525050836040518060800160405290816000820160009054906101000a900460ff16600581111561119257611191614730565b5b60058111156111a4576111a3614730565b5b81526020016000820160019054906101000a900460ff1660ff1660ff1681526020016000820160029054906101000a900473ffffffffffffffffffffffffffffffffffffffff1673ffffffffffffffffffffffffffffffffffffffff1673ffffffffffffffffffffffffffffffffffffffff16815260200160018201548152505061354f565b905060006113be836040518060800160405290816000820160009054906101000a900460ff16600581111561126257611261614730565b5b600581111561127457611273614730565b5b81526020016000820160019054906101000a900460ff1660ff1660ff1681526020016000820160029054906101000a900473ffffffffffffffffffffffffffffffffffffffff1673ffffffffffffffffffffffffffffffffffffffff1673ffffffffffffffffffffffffffffffffffffffff168152602001600182015481525050856040518060800160405290816000820160009054906101000a900460ff16600581111561132657611325614730565b5b600581111561133857611337614730565b5b81526020016000820160019054906101000a900460ff1660ff1660ff1681526020016000820160029054906101000a900473ffffffffffffffffffffffffffffffffffffffff1673ffffffffffffffffffffffffffffffffffffffff1673ffffffffffffffffffffffffffffffffffffffff16815260200160018201548152505061354f565b90508260000160019054906101000a900460ff1660ff168260ff161061151c576001608b6000608454815260200190815260200160002060008560000160029054906101000a900473ffffffffffffffffffffffffffffffffffffffff1673ffffffffffffffffffffffffffffffffffffffff1673ffffffffffffffffffffffffffffffffffffffff16815260200190815260200160002060008282829054906101000a900460ff1661147191906145e5565b92506101000a81548160ff021916908360ff16021790555060038560ff16600881106114a05761149f61475f565b5b601002018660ff16600881106114b9576114b861475f565b5b60020201600080820160006101000a81549060ff02191690556000820160016101000a81549060ff02191690556000820160026101000a81549073ffffffffffffffffffffffffffffffffffffffff021916905560018201600090555050611555565b818360000160018282829054906101000a900460ff1661153c91906145e5565b92506101000a81548160ff021916908360ff1602179055505b8360000160019054906101000a900460ff1660ff168160ff161061168d576001608b6000608454815260200190815260200160002060003373ffffffffffffffffffffffffffffffffffffffff1673ffffffffffffffffffffffffffffffffffffffff16815260200190815260200160002060008282829054906101000a900460ff166115e291906145e5565b92506101000a81548160ff021916908360ff16021790555060038760ff16600881106116115761161061475f565b5b601002018860ff166008811061162a5761162961475f565b5b60020201600080820160006101000a81549060ff02191690556000820160016101000a81549060ff02191690556000820160026101000a81549073ffffffffffffffffffffffffffffffffffffffff0219169055600182016000905550506116c6565b808460000160018282829054906101000a900460ff166116ad91906145e5565b92506101000a81548160ff021916908360ff1602179055505b3373ffffffffffffffffffffffffffffffffffffffff168460000160029054906101000a900473ffffffffffffffffffffffffffffffffffffffff1673ffffffffffffffffffffffffffffffffffffffff161480156117755750600073ffffffffffffffffffffffffffffffffffffffff168360000160029054906101000a900473ffffffffffffffffffffffffffffffffffffffff1673ffffffffffffffffffffffffffffffffffffffff16145b1561191d578360038660ff16600881106117925761179161475f565b5b601002018760ff16600881106117ab576117aa61475f565b5b600202016000820160009054906101000a900460ff168160000160006101000a81548160ff021916908360058111156117e7576117e6614730565b5b02179055506000820160019054906101000a900460ff168160000160016101000a81548160ff021916908360ff1602179055506000820160029054906101000a900473ffffffffffffffffffffffffffffffffffffffff168160000160026101000a81548173ffffffffffffffffffffffffffffffffffffffff021916908373ffffffffffffffffffffffffffffffffffffffff1602179055506001820154816001015590505060038760ff16600881106118a5576118a461475f565b5b601002018860ff16600881106118be576118bd61475f565b5b60020201600080820160006101000a81549060ff02191690556000820160016101000a81549060ff02191690556000820160026101000a81549073ffffffffffffffffffffffffffffffffffffffff0219169055600182016000905550505b50505b5b7f6c9ebc7b3fffa9dc72668688527caf73b3803a8cefcf455809ba4ced9383e517338787878760405161195895949392919061420e565b60405180910390a1505050505050565b3373ffffffffffffffffffffffffffffffffffffffff16600160009054906101000a900473ffffffffffffffffffffffffffffffffffffffff1673ffffffffffffffffffffffffffffffffffffffff16146119c257600080fd5b80600160006101000a81548173ffffffffffffffffffffffffffffffffffffffff021916908373ffffffffffffffffffffffffffffffffffffffff16021790555050565b600881565b608360009054906101000a900460ff1660ff168460ff16108015611a435750608360019054906101000a900460ff1660ff168360ff16105b8015611ad25750600073ffffffffffffffffffffffffffffffffffffffff1660038460ff1660088110611a7957611a7861475f565b5b601002018560ff1660088110611a9257611a9161475f565b5b6002020160000160029054906101000a900473ffffffffffffffffffffffffffffffffffffffff1673ffffffffffffffffffffffffffffffffffffffff16145b611b11576040517f08c379a0000000000000000000000000000000000000000000000000000000008152600401611b0890614361565b60405180910390fd5b60006005811115611b2557611b24614730565b5b826005811115611b3857611b37614730565b5b10158015611b6a5750600580811115611b5457611b53614730565b5b826005811115611b6757611b66614730565b5b11155b611b7357600080fd5b601e60ff168160ff161115611bbd576040517f08c379a0000000000000000000000000000000000000000000000000000000008152600401611bb4906142c1565b60405180910390fd5b6000608b6000608454815260200190815260200160002060003373ffffffffffffffffffffffffffffffffffffffff1673ffffffffffffffffffffffffffffffffffffffff16815260200190815260200160002060009054906101000a900460ff1660ff161415611fd457600860ff16608c600043815260200190815260200160002060009054906101000a900460ff1660ff161115611c92576040517f08c379a0000000000000000000000000000000000000000000000000000000008152600401611c8990614341565b60405180910390fd5b611c9a612d98565b6000608454600a60ff16611cae91906143f1565b8260ff16611cbc919061451c565b905080600260003373ffffffffffffffffffffffffffffffffffffffff1673ffffffffffffffffffffffffffffffffffffffff1681526020019081526020016000206000828254611d0d91906145b1565b925050819055508060886000608454815260200190815260200160002060003373ffffffffffffffffffffffffffffffffffffffff1673ffffffffffffffffffffffffffffffffffffffff1681526020019081526020016000206000828254611d7691906143f1565b925050819055507f2d78aabdffbcdf19e64604c0d977dac0612f4b6b9748e5107eddbbdfa5203bf83382604051611dae92919061414d565b60405180910390a16040518060800160405280846005811115611dd457611dd3614730565b5b81526020018360ff1681526020013373ffffffffffffffffffffffffffffffffffffffff1681526020014381525060038560ff1660088110611e1957611e1861475f565b5b601002018660ff1660088110611e3257611e3161475f565b5b6002020160008201518160000160006101000a81548160ff02191690836005811115611e6157611e60614730565b5b021790555060208201518160000160016101000a81548160ff021916908360ff16021790555060408201518160000160026101000a81548173ffffffffffffffffffffffffffffffffffffffff021916908373ffffffffffffffffffffffffffffffffffffffff160217905550606082015181600101559050506001608b6000608454815260200190815260200160002060003373ffffffffffffffffffffffffffffffffffffffff1673ffffffffffffffffffffffffffffffffffffffff16815260200190815260200160002060006101000a81548160ff021916908360ff1602179055506001608c600043815260200190815260200160002060008282829054906101000a900460ff16611f779190614447565b92506101000a81548160ff021916908360ff1602179055507f6d0acd8dff7dbe302690533979375614697c5291f7e843e42fa43df9a0fa16763386868686604051611fc6959493929190614176565b60405180910390a150612abc565b60018460ff161015801561207657503373ffffffffffffffffffffffffffffffffffffffff1660038460ff16600881106120115761201061475f565b5b6010020160018661202291906145e5565b60ff16600881106120365761203561475f565b5b6002020160000160029054906101000a900473ffffffffffffffffffffffffffffffffffffffff1673ffffffffffffffffffffffffffffffffffffffff16145b80156120c457504360038460ff16600881106120955761209461475f565b5b601002016001866120a691906145e5565b60ff16600881106120ba576120b961475f565b5b6002020160010154105b806121bb575060018360ff161015801561216c57503373ffffffffffffffffffffffffffffffffffffffff1660036001856120ff91906145e5565b60ff16600881106121135761211261475f565b5b601002018560ff166008811061212c5761212b61475f565b5b6002020160000160029054906101000a900473ffffffffffffffffffffffffffffffffffffffff1673ffffffffffffffffffffffffffffffffffffffff16145b80156121ba575043600360018561218391906145e5565b60ff16600881106121975761219661475f565b5b601002018560ff16600881106121b0576121af61475f565b5b6002020160010154105b5b806122ce57506001608360009054906101000a900460ff166121dd91906145e5565b60ff168460ff1610801561227f57503373ffffffffffffffffffffffffffffffffffffffff1660038460ff166008811061221a5761221961475f565b5b6010020160018661222b9190614447565b60ff166008811061223f5761223e61475f565b5b6002020160000160029054906101000a900473ffffffffffffffffffffffffffffffffffffffff1673ffffffffffffffffffffffffffffffffffffffff16145b80156122cd57504360038460ff166008811061229e5761229d61475f565b5b601002016001866122af9190614447565b60ff16600881106122c3576122c261475f565b5b6002020160010154105b5b806123e157506001608360019054906101000a900460ff166122f091906145e5565b60ff168360ff1610801561239257503373ffffffffffffffffffffffffffffffffffffffff1660036001856123259190614447565b60ff16600881106123395761233861475f565b5b601002018560ff16600881106123525761235161475f565b5b6002020160000160029054906101000a900473ffffffffffffffffffffffffffffffffffffffff1673ffffffffffffffffffffffffffffffffffffffff16145b80156123e057504360036001856123a99190614447565b60ff16600881106123bd576123bc61475f565b5b601002018560ff16600881106123d6576123d561475f565b5b6002020160010154105b5b612420576040517f08c379a000000000000000000000000000000000000000000000000000000000815260040161241790614301565b60405180910390fd5b612428612d98565b6000608454600a60ff1661243c91906143f1565b8260ff1661244a919061451c565b905080600260003373ffffffffffffffffffffffffffffffffffffffff1673ffffffffffffffffffffffffffffffffffffffff168152602001908152602001600020600082825461249b91906145b1565b925050819055508060886000608454815260200190815260200160002060003373ffffffffffffffffffffffffffffffffffffffff1673ffffffffffffffffffffffffffffffffffffffff168152602001908152602001600020600082825461250491906143f1565b925050819055507f2d78aabdffbcdf19e64604c0d977dac0612f4b6b9748e5107eddbbdfa5203bf8338260405161253c92919061414d565b60405180910390a1604051806080016040528084600581111561256257612561614730565b5b81526020018360ff1681526020013373ffffffffffffffffffffffffffffffffffffffff1681526020014381525060038560ff16600881106125a7576125a661475f565b5b601002018660ff16600881106125c0576125bf61475f565b5b6002020160008201518160000160006101000a81548160ff021916908360058111156125ef576125ee614730565b5b021790555060208201518160000160016101000a81548160ff021916908360ff16021790555060408201518160000160026101000a81548173ffffffffffffffffffffffffffffffffffffffff021916908373ffffffffffffffffffffffffffffffffffffffff160217905550606082015181600101559050506001608b6000608454815260200190815260200160002060003373ffffffffffffffffffffffffffffffffffffffff1673ffffffffffffffffffffffffffffffffffffffff16815260200190815260200160002060008282829054906101000a900460ff166126d89190614447565b92506101000a81548160ff021916908360ff1602179055507fc24961febc4594b0071b89fa2c280f2b3d07e773e9ced8a26de2e87e9c182e803386868686604051612727959493929190614176565b60405180910390a1608360019054906101000a900460ff16608360009054906101000a900460ff166127599190614576565b60ff16608b6000608454815260200190815260200160002060003373ffffffffffffffffffffffffffffffffffffffff1673ffffffffffffffffffffffffffffffffffffffff16815260200190815260200160002060009054906101000a900460ff1660ff161415612aba573360866000608454815260200190815260200160002060006101000a81548173ffffffffffffffffffffffffffffffffffffffff021916908373ffffffffffffffffffffffffffffffffffffffff160217905550600060896000608454815260200190815260200160002060003373ffffffffffffffffffffffffffffffffffffffff1673ffffffffffffffffffffffffffffffffffffffff1681526020019081526020016000205460886000608454815260200190815260200160002060003373ffffffffffffffffffffffffffffffffffffffff1673ffffffffffffffffffffffffffffffffffffffff168152602001908152602001600020546128cb91906143f1565b60886000608454815260200190815260200160002060003373ffffffffffffffffffffffffffffffffffffffff1673ffffffffffffffffffffffffffffffffffffffff168152602001908152602001600020546085600060845481526020019081526020016000205461293e919061451c565b61294891906144af565b90507fd1d05b4cb67fa991a51e7b2ab5fd9cd829cb70774e82694d9e576153979c3b7e6084543360405161297d92919061439c565b60405180910390a1600360006129939190613c3e565b6001608460008282546129a691906143f1565b92505081905550600060056084546129be91906146a1565b1415612a7157600860ff16608360009054906101000a900460ff1660ff161015612a1a576001608360008282829054906101000a900460ff16612a019190614447565b92506101000a81548160ff021916908360ff1602179055505b600860ff16608360019054906101000a900460ff1660ff161015612a70576001608360018282829054906101000a900460ff16612a579190614447565b92506101000a81548160ff021916908360ff1602179055505b5b3373ffffffffffffffffffffffffffffffffffffffff166108fc829081150290604051600060405180830381858888f19350505050158015612ab7573d6000803e3d6000fd5b50505b505b50505050565b3373ffffffffffffffffffffffffffffffffffffffff1660008054906101000a900473ffffffffffffffffffffffffffffffffffffffff1673ffffffffffffffffffffffffffffffffffffffff1614612b1a57600080fd5b806000806101000a81548173ffffffffffffffffffffffffffffffffffffffff021916908373ffffffffffffffffffffffffffffffffffffffff16021790555050565b612b65612d98565b80600260003373ffffffffffffffffffffffffffffffffffffffff1673ffffffffffffffffffffffffffffffffffffffff1681526020019081526020016000206000828254612bb491906145b1565b9250508190555080600260008473ffffffffffffffffffffffffffffffffffffffff1673ffffffffffffffffffffffffffffffffffffffff1681526020019081526020016000206000828254612c0a91906143f1565b925050819055508060896000608454815260200190815260200160002060008473ffffffffffffffffffffffffffffffffffffffff1673ffffffffffffffffffffffffffffffffffffffff1681526020019081526020016000206000828254612c7391906143f1565b9250508190555080608a6000608454815260200190815260200160002060003373ffffffffffffffffffffffffffffffffffffffff1673ffffffffffffffffffffffffffffffffffffffff16815260200190815260200160002060008473ffffffffffffffffffffffffffffffffffffffff1673ffffffffffffffffffffffffffffffffffffffff1681526020019081526020016000206000828254612d1991906143f1565b925050819055507f2d78aabdffbcdf19e64604c0d977dac0612f4b6b9748e5107eddbbdfa5203bf83382604051612d5192919061414d565b60405180910390a17f3f813e008231faa321621af212ed9374d27d2d71e618ffa6f40e873eef2e1ac1338383604051612d8c93929190614116565b60405180910390a15050565b6000655af3107a400034612dac91906144af565b90506000811115612f735780600260003373ffffffffffffffffffffffffffffffffffffffff1673ffffffffffffffffffffffffffffffffffffffff1681526020019081526020016000206000828254612e0691906143f1565b925050819055506064605f34612e1c919061451c565b612e2691906144af565b6085600060845481526020019081526020016000206000828254612e4a91906143f1565b9250508190555060008054906101000a900473ffffffffffffffffffffffffffffffffffffffff1673ffffffffffffffffffffffffffffffffffffffff166108fc601934612e9891906144af565b9081150290604051600060405180830381858888f19350505050158015612ec3573d6000803e3d6000fd5b50600160009054906101000a900473ffffffffffffffffffffffffffffffffffffffff1673ffffffffffffffffffffffffffffffffffffffff166108fc606434612f0d91906144af565b9081150290604051600060405180830381858888f19350505050158015612f38573d6000803e3d6000fd5b507fcd17f300cbaa3a53b211634d2a532fd1b21508a1b1c8f4779f77906ad420bb3a3382604051612f6a92919061414d565b60405180910390a15b50565b600160009054906101000a900473ffffffffffffffffffffffffffffffffffffffff1681565b608b6020528160005260406000206020528060005260406000206000915091509054906101000a900460ff1681565b608360009054906101000a900460ff1660ff168360ff161080156130035750608360019054906101000a900460ff1660ff168260ff16105b801561309157503373ffffffffffffffffffffffffffffffffffffffff1660038360ff16600881106130385761303761475f565b5b601002018460ff16600881106130515761305061475f565b5b6002020160000160029054906101000a900473ffffffffffffffffffffffffffffffffffffffff1673ffffffffffffffffffffffffffffffffffffffff16145b6130d0576040517f08c379a00000000000000000000000000000000000000000000000000000000081526004016130c790614321565b60405180910390fd5b60008160038460ff16600881106130ea576130e961475f565b5b601002018560ff16600881106131035761310261475f565b5b6002020160000160019054906101000a900460ff166131229190614447565b9050601e60ff168160ff16111561316e576040517f08c379a0000000000000000000000000000000000000000000000000000000008152600401613165906142c1565b60405180910390fd5b613176612d98565b6000608454600a60ff1661318a91906143f1565b8360ff16613198919061451c565b905080600260003373ffffffffffffffffffffffffffffffffffffffff1673ffffffffffffffffffffffffffffffffffffffff16815260200190815260200160002060008282546131e991906145b1565b925050819055508060886000608454815260200190815260200160002060003373ffffffffffffffffffffffffffffffffffffffff1673ffffffffffffffffffffffffffffffffffffffff168152602001908152602001600020600082825461325291906143f1565b925050819055507f2d78aabdffbcdf19e64604c0d977dac0612f4b6b9748e5107eddbbdfa5203bf8338260405161328a92919061414d565b60405180910390a18160038560ff16600881106132aa576132a961475f565b5b601002018660ff16600881106132c3576132c261475f565b5b6002020160000160016101000a81548160ff021916908360ff1602179055507fe689ab9829cab67df59770aa37b4ae2e84c0e3ceaa686e2fd48faf4ccf40b8473386868660405161331794939291906141c9565b60405180910390a15050505050565b600481565b600a81565b608a60205282600052604060002060205281600052604060002060205280600052604060002060009250925050505481565b608360009054906101000a900460ff1681565b655af3107a400081565b600881565b6088602052816000526040600020602052806000526040600020600091509150505481565b60866020528060005260406000206000915054906101000a900473ffffffffffffffffffffffffffffffffffffffff1681565b600382600881106133ec57600080fd5b6010020181600881106133fe57600080fd5b60020201600091509150508060000160009054906101000a900460ff16908060000160019054906101000a900460ff16908060000160029054906101000a900473ffffffffffffffffffffffffffffffffffffffff16908060010154905084565b60026020528060005260406000206000915090505481565b601e81565b6089602052816000526040600020602052806000526040600020600091509150505481565b600881565b60845481565b60008054906101000a900473ffffffffffffffffffffffffffffffffffffffff1681565b608360019054906101000a900460ff1681565b600481565b608c6020528060005260406000206000915054906101000a900460ff1681565b60856020528060005260406000206000915090505481565b60876020528160005260406000206020528060005260406000206000915091509054906101000a900460ff1681565b600080836020015160ff169050600060058111156135705761356f614730565b5b8460000151600581111561358757613586614730565b5b14156136bd576005808111156135a05761359f614730565b5b836000015160058111156135b7576135b6614730565b5b14156135d1576002816135ca91906144e0565b90506136b8565b600160058111156135e5576135e4614730565b5b836000015160058111156135fc576135fb614730565b5b148061363057506002600581111561361757613616614730565b5b8360000151600581111561362e5761362d614730565b5b145b8061366357506003600581111561364a57613649614730565b5b8360000151600581111561366157613660614730565b5b145b8061369657506004600581111561367d5761367c614730565b5b8360000151600581111561369457613693614730565b5b145b156136b757607d6064826136aa91906144e0565b6136b4919061447e565b90505b5b613c34565b6005808111156136d0576136cf614730565b5b846000015160058111156136e7576136e6614730565b5b141561381e576001600581111561370157613700614730565b5b8360000151600581111561371857613717614730565b5b148061374c57506002600581111561373357613732614730565b5b8360000151600581111561374a57613749614730565b5b145b8061377f57506003600581111561376657613765614730565b5b8360000151600581111561377d5761377c614730565b5b145b806137b257506004600581111561379957613798614730565b5b836000015160058111156137b0576137af614730565b5b145b156137d7576064607d826137c691906144e0565b6137d0919061447e565b9050613819565b600060058111156137eb576137ea614730565b5b8360000151600581111561380257613801614730565b5b141561381857600281613815919061447e565b90505b5b613c33565b6000600581111561383257613831614730565b5b8360000151600581111561384957613848614730565b5b141561386f576064607d8261385e91906144e0565b613868919061447e565b9050613c32565b60058081111561388257613881614730565b5b8360000151600581111561389957613898614730565b5b14156138bf57607d6064826138ae91906144e0565b6138b8919061447e565b9050613c31565b600160058111156138d3576138d2614730565b5b846000015160058111156138ea576138e9614730565b5b14801561391f57506003600581111561390657613905614730565b5b8360000151600581111561391d5761391c614730565b5b145b8061398657506003600581111561393957613938614730565b5b846000015160058111156139505761394f614730565b5b14801561398557506004600581111561396c5761396b614730565b5b8360000151600581111561398357613982614730565b5b145b5b806139ed5750600460058111156139a05761399f614730565b5b846000015160058111156139b7576139b6614730565b5b1480156139ec5750600260058111156139d3576139d2614730565b5b836000015160058111156139ea576139e9614730565b5b145b5b80613a54575060026005811115613a0757613a06614730565b5b84600001516005811115613a1e57613a1d614730565b5b148015613a53575060016005811115613a3a57613a39614730565b5b83600001516005811115613a5157613a50614730565b5b145b5b15613a7957600a600f82613a6891906144e0565b613a72919061447e565b9050613c30565b60036005811115613a8d57613a8c614730565b5b84600001516005811115613aa457613aa3614730565b5b148015613ad9575060016005811115613ac057613abf614730565b5b83600001516005811115613ad757613ad6614730565b5b145b80613b40575060046005811115613af357613af2614730565b5b84600001516005811115613b0a57613b09614730565b5b148015613b3f575060036005811115613b2657613b25614730565b5b83600001516005811115613b3d57613b3c614730565b5b145b5b80613ba7575060026005811115613b5a57613b59614730565b5b84600001516005811115613b7157613b70614730565b5b148015613ba6575060046005811115613b8d57613b8c614730565b5b83600001516005811115613ba457613ba3614730565b5b145b5b80613c0e575060016005811115613bc157613bc0614730565b5b84600001516005811115613bd857613bd7614730565b5b148015613c0d575060026005811115613bf457613bf3614730565b5b83600001516005811115613c0b57613c0a614730565b5b145b5b15613c2f57600f600a82613c2291906144e0565b613c2c919061447e565b90505b5b5b5b5b5b8091505092915050565b508060086010020190613c519190613c54565b50565b5b80821115613c745760008181613c6b9190613c78565b50601001613c55565b5090565b508060086002020190613c8b9190613c8e565b50565b5b80821115613cf857600080820160006101000a81549060ff02191690556000820160016101000a81549060ff02191690556000820160026101000a81549073ffffffffffffffffffffffffffffffffffffffff0219169055600182016000905550600201613c8f565b5090565b600081359050613d0b8161490f565b92915050565b600081359050613d2081614926565b92915050565b600081359050613d3581614936565b92915050565b600081359050613d4a8161494d565b92915050565b600060208284031215613d6657613d6561478e565b5b6000613d7484828501613cfc565b91505092915050565b60008060408385031215613d9457613d9361478e565b5b6000613da285828601613cfc565b9250506020613db385828601613d26565b9150509250929050565b600060208284031215613dd357613dd261478e565b5b6000613de184828501613d26565b91505092915050565b60008060408385031215613e0157613e0061478e565b5b6000613e0f85828601613d26565b9250506020613e2085828601613cfc565b9150509250929050565b600080600060608486031215613e4357613e4261478e565b5b6000613e5186828701613d26565b9350506020613e6286828701613cfc565b9250506040613e7386828701613cfc565b9150509250925092565b60008060408385031215613e9457613e9361478e565b5b6000613ea285828601613d26565b9250506020613eb385828601613d26565b9150509250929050565b60008060008060808587031215613ed757613ed661478e565b5b6000613ee587828801613d3b565b9450506020613ef687828801613d3b565b9350506040613f0787828801613d11565b9250506060613f1887828801613d3b565b91505092959194509250565b600080600060608486031215613f3d57613f3c61478e565b5b6000613f4b86828701613d3b565b9350506020613f5c86828701613d3b565b9250506040613f6d86828701613d3b565b9150509250925092565b60008060008060808587031215613f9157613f9061478e565b5b6000613f9f87828801613d3b565b9450506020613fb087828801613d3b565b9350506040613fc187828801613d3b565b9250506060613fd287828801613d3b565b91505092959194509250565b613fe781614619565b82525050565b613ff68161462b565b82525050565b6140058161468f565b82525050565b60006140186021836143e0565b915061402382614793565b604082019050919050565b600061403b601f836143e0565b9150614046826147e2565b602082019050919050565b600061405e602f836143e0565b91506140698261480b565b604082019050919050565b60006140816018836143e0565b915061408c8261485a565b602082019050919050565b60006140a46022836143e0565b91506140af82614883565b604082019050919050565b60006140c76017836143e0565b91506140d2826148d2565b602082019050919050565b6140e681614678565b82525050565b6140f581614682565b82525050565b60006020820190506141106000830184613fde565b92915050565b600060608201905061412b6000830186613fde565b6141386020830185613fde565b61414560408301846140dd565b949350505050565b60006040820190506141626000830185613fde565b61416f60208301846140dd565b9392505050565b600060a08201905061418b6000830188613fde565b61419860208301876140ec565b6141a560408301866140ec565b6141b26060830185613ffc565b6141bf60808301846140ec565b9695505050505050565b60006080820190506141de6000830187613fde565b6141eb60208301866140ec565b6141f860408301856140ec565b61420560608301846140ec565b95945050505050565b600060a0820190506142236000830188613fde565b61423060208301876140ec565b61423d60408301866140ec565b61424a60608301856140ec565b61425760808301846140ec565b9695505050505050565b60006020820190506142766000830184613fed565b92915050565b60006080820190506142916000830187613ffc565b61429e60208301866140ec565b6142ab6040830185613fde565b6142b860608301846140dd565b95945050505050565b600060208201905081810360008301526142da8161400b565b9050919050565b600060208201905081810360008301526142fa8161402e565b9050919050565b6000602082019050818103600083015261431a81614051565b9050919050565b6000602082019050818103600083015261433a81614074565b9050919050565b6000602082019050818103600083015261435a81614097565b9050919050565b6000602082019050818103600083015261437a816140ba565b9050919050565b600060208201905061439660008301846140dd565b92915050565b60006040820190506143b160008301856140dd565b6143be6020830184613fde565b9392505050565b60006020820190506143da60008301846140ec565b92915050565b600082825260208201905092915050565b60006143fc82614678565b915061440783614678565b9250827fffffffffffffffffffffffffffffffffffffffffffffffffffffffffffffffff0382111561443c5761443b6146d2565b5b828201905092915050565b600061445282614682565b915061445d83614682565b92508260ff03821115614473576144726146d2565b5b828201905092915050565b60006144898261464a565b91506144948361464a565b9250826144a4576144a3614701565b5b828204905092915050565b60006144ba82614678565b91506144c583614678565b9250826144d5576144d4614701565b5b828204905092915050565b60006144eb8261464a565b91506144f68361464a565b92508161ffff0483118215151615614511576145106146d2565b5b828202905092915050565b600061452782614678565b915061453283614678565b9250817fffffffffffffffffffffffffffffffffffffffffffffffffffffffffffffffff048311821515161561456b5761456a6146d2565b5b828202905092915050565b600061458182614682565b915061458c83614682565b92508160ff04831182151516156145a6576145a56146d2565b5b828202905092915050565b60006145bc82614678565b91506145c783614678565b9250828210156145da576145d96146d2565b5b828203905092915050565b60006145f082614682565b91506145fb83614682565b92508282101561460e5761460d6146d2565b5b828203905092915050565b600061462482614658565b9050919050565b60008115159050919050565b6000819050614645826148fb565b919050565b600061ffff82169050919050565b600073ffffffffffffffffffffffffffffffffffffffff82169050919050565b6000819050919050565b600060ff82169050919050565b600061469a82614637565b9050919050565b60006146ac82614678565b91506146b783614678565b9250826146c7576146c6614701565b5b828206905092915050565b7f4e487b7100000000000000000000000000000000000000000000000000000000600052601160045260246000fd5b7f4e487b7100000000000000000000000000000000000000000000000000000000600052601260045260246000fd5b7f4e487b7100000000000000000000000000000000000000000000000000000000600052602160045260246000fd5b7f4e487b7100000000000000000000000000000000000000000000000000000000600052603260045260246000fd5b600080fd5b7f45786365656473206d617820756e697420636f756e747320706572207370616360008201527f6500000000000000000000000000000000000000000000000000000000000000602082015250565b7f5761697420756e74696c206e65787420626c6f636b20746f2061747461636b00600082015250565b7f4f6e6c792073756d6d6f6e206e65787420746f207370616365206f636375706960008201527f656420627920796f75722061726d790000000000000000000000000000000000602082015250565b7f4f6e6c7920617070656e6420746f20796f75722061726d790000000000000000600082015250565b7f45786365656473206d617820656e74657220636f756e74732070657220626c6f60008201527f636b000000000000000000000000000000000000000000000000000000000000602082015250565b7f54686973207370616365206973206e6f7420656d707479000000000000000000600082015250565b6006811061490c5761490b614730565b5b50565b61491881614619565b811461492357600080fd5b50565b6006811061493357600080fd5b50565b61493f81614678565b811461494a57600080fd5b50565b61495681614682565b811461496157600080fd5b5056fea26469706673582212206f7cf27e1944249d8132a36aca72fc7c0a7ab6170e455a28073a809e9225fe4864736f6c63430008050033",
  "linkReferences": {},
  "deployedLinkReferences": {}
}